:020000040800F2
:10000000E00D00209D01000829150008FD090008E9
:10001000250A00085508000875290008000000009E
:10002000000000000000000000000000991500081A
:10003000C10800080000000071150008BD16000886
:10004000B7010008B7010008B7010008B7010008B0
:10005000B7010008B7010008B7010008B7010008A0
:10006000B7010008B7010008B7010008B701000890
:10007000B7010008B7010008B7010008B701000880
:10008000B7010008B7010008B7010008B701000870
:1000900059080008B7010008B7010008B7010008B7
:1000A000C91A0008F91A0008E11A0008B701000887
:1000B000111B0008251B0008B7010008B701000844
:1000C000B7010008B7010008B7010008B701000830
:1000D000B7010008B7010008B7010008B701000820
:1000E000B7010008B7010008B70100086D1B000840
:1000F000D11B0008B91B0008851B0008B7010008C8
:10010000B7010008B7010008B7010008B7010008EF
:10011000B7010008B70100083D1B0008551B000887
:10012000B7010008B7010008B7010008B7010008CF
:10013000B7010008B7010008B7010008B7010008BF
:10014000B7010008B7010008B7010008B7010008AF
:10015000B7010008B7010008B7010008B70100089F
:10016000B7010008B7010008B7010008B70100088F
:10017000B7010008B7010008B7010008000000003F
:10018000B7010008B7010008DFF80CD000F02EFB23
:100190000048004721350008E00D00200648804750
:1001A00006480047FEE7FEE7FEE7FEE7FEE7FEE75C
:1001B000FEE7FEE7FEE7FEE7E1160008890100081A
:1001C0002DE9FE4F81EA030404F0004421F00041D0
:1001D00000944FF0000B23F0004350EA01045ED07E
:1001E00052EA03045BD0C3F30A54C1F30A552C440A
:1001F000A4F2F3340194A0FB0254C1F3130141F4BF
:100200008011C3F3130343F4801301FB024400FB8A
:10021000034E840A970A44EA815447EA8357A4FBB1
:10022000076802958D0A05FB07854FEA932C04FBAE
:100230000C542705029D4FEA065847EA1637B5EBDE
:1002400008056EEB070C870E920E47EA811742EA0B
:100250008312A7FB0201B6EB0B0164EB00042B0D2C
:1002600043EA0C335E1844EB1C50DA465146E7FB78
:100270000201C5F313044FEA0B3343EA14534FEA68
:100280000432019C43EA0603A4F10C040294009C8E
:10029000CDE900B400F033F903B0BDE8F08F0020E1
:1002A0000146F9E72DE9F04D81EA030404F0004B23
:1002B00021F0004514464FF0000A23F0004150EAB7
:1002C000050220D054EA01021DD0C5F30A570246A8
:1002D000C5F31303C1F31300C1F30A5640F48015AC
:1002E00043F48013A7EB0608101BD64608F2FD382E
:1002F00073EB050002D308F1010801E092185B419D
:10030000B8F1000F03DA00200146BDE8F08D0020AF
:100310004FF48011064684460EE0171B73EB050769
:1003200005D3121B63EB050306434CEA010C490895
:100330004FEA300092185B4150EA0107EDD152EAD2
:10034000030012D082EA040083EA0501084305D0C5
:10035000101BAB4106D20122002306E000224FF021
:10036000004302E06FF0010253101AEB06004CEB61
:10037000085110EB0A0041EB0B01BDE8F04D00F015
:10038000AFB80EB540F2334102910021CDE9001122
:100390000A460B4600F0B3F803B000BD70B5C1F3D8
:1003A0000A5201F000450024C1F3130140F2FF336B
:1003B00041F480119A4201DA002070BD40F23343CB
:1003C0009A42A2F2334203DC524200F079F800E094
:1003D00090402C43F1D0404270BDC1F30A5210B599
:1003E000C1F3130140F2FF3341F480119A4201DA64
:1003F000002010BD40F233439A42A2F2334203DCA4
:10040000524200F05DF810BD904010BD00F0004277
:1004100030F000400AD0C10D01F56071C0F3160044
:1004200042EA0151C20840071143704700200146CB
:10043000704730B50B46014600202022012409E018
:1004400021FA02F59D4205D303FA02F5491B04FA8D
:1004500002F52844151EA2F10102F1DC30BD2DE9A0
:10046000F05F0546002092469B4688460646814638
:1004700040241BE0284641464746224600F020F82B
:1004800053465A46C01A914110D311461846224687
:1004900000F0BEF92D1A67EB01084F4622460120F5
:1004A000002100F0B5F917EB00094E41201EA4F120
:1004B0000104DFDC484631462A464346BDE8F09F4A
:1004C000202A04DB203A21FA02F00021704721FAA9
:1004D00002F3D040C2F12002914008431946704710
:1004E00010B5141E73F1000408DA401C41F100013C
:1004F00092185B411A4301D120F0010010BD2DE993
:10050000F04D92469B4611B1B1FA81F202E0B0FA89
:1005100080F22032904600F07BF904460F4640EA14
:100520000A0041EA0B0153465A46084313D01146CC
:1005300053EA010019D0C8F140025046FFF7C0FF4E
:1005400005460E4650465946424600F061F90843BA
:1005500005D0012004E020463946BDE8F08D00209A
:10056000054346EAE0762C4337430A986305E40ADC
:10057000A0EB08000022FD0A44EA47540A3002D5E5
:1005800000200146E9E7010510196941DDE9084548
:1005900000196941BDE8F04DA2E72DE9FE4F804604
:1005A00081EA0300C00F0C46009021F0004123F0C7
:1005B0000045B8EB0200A94105D2404621469046CD
:1005C0001C460B46024623F00040104347D0270D3F
:1005D000C7F30A00C3F30A510290401A0190402861
:1005E0006BDAC3F3130040F4801B0098924620B1ED
:1005F0000023D2EB030A63EB0B0B01985946C0F1C1
:100600004002504600F004F906460D465046594651
:10061000019A00F00CF910EB08006141002487EA10
:10062000115284EAE7731A4340D0009A62B3019AE8
:10063000012A4FEA075215DC001B61EB02014FF063
:10064000004202EA0752CDE90042001C41F5801148
:1006500032462B46FFF753FF03B0BDE8F08F40460C
:100660002146F9E7001B61EB0201001C41F58013F4
:1006700000185B412018A2F5001747EB030140EA80
:10068000D570B6196D4111E06D084FEA360645EA9E
:10069000C0754FEA0752001B61EB0201001C41F5D7
:1006A000801149084FEA30000019514132462B466B
:1006B00003B0BDE8F04FFFF713BF009801224000E0
:1006C0000023D0EB020263EBE073009821464FEA6F
:1006D000E074B8EB000061EB0401E9E783F000434C
:1006E0005BE781F0004158E72DE9F04D00231A4601
:1006F0001B1A8A4103DB00200146BDE8F08DC1F3DF
:100700000A52C1F3130141F480154FF0000BD107D9
:1007100002D100186D41521E0027044640F2FF111D
:10072000384601EB620A3E468046024600204FF4FE
:100730008011FFF7C5FEC2197141BB1846EB0100DD
:10074000B4EB030C75EB000C04D3E41A65EB000565
:1007500017460E46241908F101006D4180463428E1
:10076000E3DDF91946EB0600091BA84103D24FF05F
:10077000FF32134601E0002213461BEB070046EB55
:100780000A51BDE8F04DFFF7ABBEC1F30A52C1F309
:10079000130140F2FF3341F480119A4202DA002043
:1007A0000146704740F233439A42A2F2334202DCE0
:1007B0005242FFF785BE00F02BB8000030B5041E92
:1007C00071F1000404DB4FF00044404264EB01018E
:1007D000141E73F1000405DB1C464FF00043524227
:1007E00063EB0403994208BF904230BD064C074DAD
:1007F00006E0E06840F0010394E8070098471034F1
:10080000AC42F6D3FFF7C4FC805B0008A05B000895
:10081000202A04DB203A00FA02F1002070479140C0
:10082000C2F1200320FA03F3194390407047202AB5
:1008300006DBCB17203A41FA02F043EAE07306E008
:1008400041FA02F3D040C2F1200291400843194618
:1008500070470000FFE7FEE780B588B046F2004031
:10086000C4F200004CF2810102F0FEFA00B3FFE78F
:1008700046F20040C4F200000290002103AA02F0F8
:1008800049FB0399049A059B0698DDF81CE0EC46A9
:10089000CCF804E0CCF8000040F2E470C2F20000B2
:1008A00000F03AF802984CF2810102F0CFFAFFE72B
:1008B00008B080BD80B502F0A7F902F05DF880BDF8
:1008C0007047000080B582B040F6024003F00CF99A
:1008D00041F20E1003F008F940F60000C4F20200E5
:1008E0000090002201920123114602F067FD00985A
:1008F000019A0223114602F061FD0098019A042337
:10090000114602F05BFD0098019A0823114602F09F
:1009100055FD02B080BD0000B0B588B0DDF834E010
:10092000DDF830C0CDF818E0CDF814C00493039280
:1009300002910190019800F01DFE18B1FFE7002020
:10094000079020E001994868CC6800EB800504EB33
:100950008501DDF818C0DDF808E00398049A059BCE
:1009600044F825E0C1F810C0CB608A604860019966
:1009700048688A68431CB3FBF2F000FB1230486001
:1009800001200790FFE7079808B0B0BD80B582B09E
:1009900000208DF8070040F60000C4F2020000902D
:1009A000012102F0F5FC024600989DF80710114362
:1009B0008DF80710022102F0EBFC024600989DF82A
:1009C000071041EA42018DF80710042102F0E0FC13
:1009D000024600989DF8071041EA82018DF8071041
:1009E000082102F0D5FC01469DF8070040EAC1004D
:1009F0008DF807009DF8070002B080BDFFE7FEE715
:100A000083B002900191009202990020086002993F
:100A1000486000980299886001980299C86003B004
:100A200070470000FFE7FEE780B590B040F6014058
:100A300003F05AF840F6024003F056F84FF44060D5
:100A400003F052F841F20E1003F04EF80020C4F209
:100A50000200089000220E9240230193114602F0FA
:100A6000FBFC08980E9A80230293114602F0F4FCD6
:100A70000E9A40F60000C4F202000C90102303937B
:100A8000114602F0E9FC0C980E9A202304931146BB
:100A900002F0E2FC0E9A40F20040C4F2020007901D
:100AA0004FF480530F93114602F0D6FC07980E9A2C
:100AB0004FF400530593114602F0CEFC07980E9AAE
:100AC0004FF480430693114602F0C6FC07980E9A35
:100AD0004FF400430993114602F0BEFC0898099BAD
:100AE0000E9A114602F0B8FC0C980E9A4FF48063EF
:100AF0000A93114602F0B0FC0C980E9A4FF4006372
:100B00000B93114602F0A8FC0C980E9A0F9B11460D
:100B100002F0A2FC019B08980E9A01210D9102F0AF
:100B20004DFC029B08980D990E9A02F047FC039B1E
:100B30000C980D990E9A02F041FC049B0C980D99AB
:100B40000E9A02F03BFC07980D990E9A0F9B02F04B
:100B500035FC059B07980D990E9A02F02FFC069B19
:100B600007980D990E9A02F029FC0798099B0D9998
:100B70000E9A02F023FC0898099B0D990E9A02F038
:100B80001DFC0A9B0C980D990E9A02F017FC0B9B0A
:100B90000C980D990E9A02F011FC0C980D990E9A72
:100BA0000F9B02F00BFC10B080BD000080B58AB036
:100BB0008DF826008DF82510ADF822200020ADF824
:100BC0002000E320ADF81E0045F69823C0F6000390
:100BD000186859689A68DB68069305920491039037
:100BE00045F6A821C0F60001086849680291019005
:100BF0009DF82600A0B1FFE79DF8250080B1FFE732
:100C00009DF826000C280BDCFFE79DF825000C283A
:100C100006DCFFE7BDF82200B0F5FA6F04DDFFE760
:100C2000FF208DF8270031E0BDF82200BDF81E102E
:100C3000084400F6B830ADF820009DF826008DF885
:100C40000300FFE79DF803009DF82510884219DC9A
:100C5000FFE79DF80300411E01EB917020F00302B5
:100C600003A8104440688A1A01A931F81210BDF88F
:100C7000202003F0C1FCFFE79DF8030001308DF850
:100C80000300DFE700208DF82700FFE79DF927002C
:100C90000AB080BD10B59EB08DF876008DF8751045
:100CA00045F6F800C0F600000190016842688368CC
:100CB000D0F80CC0D0F810E044691594CDF850E09D
:100CC000CDF84CC01293119210918169C269036AE8
:100CD000D0F824C0D0F828E0C46A1B94CDF868E0AE
:100CE000CDF864C0189317921691006B1C9045F6CE
:100CF000C400C0F600000290016842688368D0F822
:100D00000CC0D0F810E044690894CDF81CE0CDF890
:100D100018C00593049203918169C269036AD0F8EF
:100D200024C0D0F828E0C46A0E94CDF834E0CDF8A1
:100D300030C00B930A920991006B0F909DF87600DA
:100D40000C280DDCFFE79DF8760048B1FFE79DF821
:100D50007500012808D0FFE79DF8750020B1FFE776
:100D6000FF208DF877001FE09DF8750060B1FFE768
:100D70009DF8762010A850F8220003A951F82210FF
:100D8000002202F0E1FA0BE09DF8762010A850F85E
:100D9000220003A951F82210012202F0D5FAFFE740
:100DA00001208DF87700FFE79DF977001EB010BD98
:100DB00080B584B08DF80F008DF80E109DF80F00EF
:100DC00001460291032840D80299DFE801F022028F
:100DD0000D189DF80E2041F20000C4F202004FF4FD
:100DE000806102F0B1FA31E09DF80E2041F200007E
:100DF000C4F202004FF4805102F0A6FA26E09DF8FA
:100E00000E2040F60040C4F20200012102F09CFADC
:100E10001CE09DF80E2041F20000C4F20200019097
:100E20004FF4806102F090FA01989DF80E204FF483
:100E3000805102F089FA9DF80E2040F60040C4F27D
:100E40000200012102F080FA00E0FFE7012004B077
:100E500080BD000080B582B040F6044002F044FE40
:100E600040F6014002F040FE4FF4406002F03CFECC
:100E700041F20E1002F038FE41F20000C4F202000E
:100E8000002201924FF40043114602F097FA019AB2
:100E900040F20040C4F202004FF48063114602F0B9
:100EA0008DFA019A0020C4F202004FF480731146BB
:100EB00002F084FA02B080BD80B588B040F60440EC
:100EC00002F012FE41F20E1002F00EFE41F200009E
:100ED000C4F20200049000220692202300931146DF
:100EE00002F0BAFA0498069A40230193114602F0E0
:100EF000B3FA0498069A08230293114602F0ACFA5A
:100F00000498069A10230393114602F0A5FA049858
:100F1000069A01230593114602F09EFA0498069A58
:100F200002230793114602F097FA009B0498059953
:100F3000069A02F043FA019B04980599069A02F07A
:100F40003DFA029B04980599069A02F037FA039B32
:100F500004980599069A02F031FA0498059B069ABE
:100F6000194602F02BFA04980599069A079B02F09D
:100F700025FA08B080BD000080B588B08DF81E004D
:100F80008DF81D109DF81D00042804DBFFE7FF20ED
:100F90008DF81F0077E09DF81D0000F001008DF82E
:100FA0001C009DF81D00C0F340008DF81B009DF84B
:100FB0001E0001460591032860D80599DFE801F07D
:100FC000350213249DF81C2041F20000C4F20200F7
:100FD0000490202102F0B8F904989DF81B204021CC
:100FE00002F0B2F94BE09DF81C2041F20000C4F27F
:100FF00002000390082102F0A7F903989DF81B2036
:10100000102102F0A1F93AE09DF81C2041F2000005
:10101000C4F202000290012102F096F902989DF8B4
:101020001B20022102F090F929E09DF81C2041F2DA
:101030000000C4F202000190202102F085F901981D
:101040009DF81B20402102F07FF901989DF81C209B
:10105000082102F079F901989DF81B20102102F077
:1010600073F901989DF81C20012102F06DF9019897
:101070009DF81B20022102F067F900E0FFE7012044
:101080008DF81F00FFE79DF91F0008B080BD00002C
:1010900080B586B040F6044002F026FD40F60340DD
:1010A00002F022FD41F20E1002F01EFD41F200009E
:1010B000C4F202000290002200924FF48063019378
:1010C000114602F0C9F9009A02984FF48053039335
:1010D000114602F0C1F9009A40F60040C4F2020045
:1010E000049001230593114602F0B6F9019B029882
:1010F000059A114602F062F90298039B059A11467F
:1011000002F05CF90498059B19461A4602F056F95C
:1011100001990298059A02F017F902980399059A25
:1011200002F012F90498059A114602F00DF906B082
:1011300080BD000010B5AEB08DF8B6008DF8B510CA
:1011400045F66010C0F600000290016842688368AE
:10115000D0F80CC0D0F810E044692594CDF890E0A8
:10116000CDF88CC02293219220918169C269036AD3
:10117000D0F824C0D0F828E0C46A2B94CDF8A8E0B9
:10118000CDF8A4C0289327922691006B2C9045F6A9
:101190009410C0F600000390016842688368D0F89C
:1011A0000CC0D0F810E044691894CDF85CE0CDF89C
:1011B00058C01593149213918169C269036AD0F8DB
:1011C00024C0D0F828E0C46A1E94CDF874E0CDF8AD
:1011D00070C01B931A921991006B1F9045F62C104A
:1011E000C0F600000490016842688368D0F80CC023
:1011F000D0F810E044690B94CDF828E0CDF824C075
:101200000893079206918169C269036AD0F824C0E5
:10121000D0F828E0C46A1194CDF840E0CDF83CC085
:101220000E930D920C91006B12909DF8B60070B168
:10123000FFE79DF8B50050B1FFE79DF8B6000C2818
:1012400005DCFFE79DF8B5000D2804DBFFE7FF2074
:101250008DF8B7006FE09DF8B6008DF81700FFE736
:101260009DF817009DF8B510884260DCFFE79DF8F7
:10127000172020A8019050F8220013A951F822103D
:1012800003F0C0FB01989DF8171050F8210003F0FF
:101290001BFB9DF8171006A850F82110012048707C
:1012A0009DF817000B2816D1FFE740F60000C4F2A6
:1012B0000200002102224FF4807302F0CDF89DF865
:1012C000172020A850F8220013A931F8221001227B
:1012D00003F092F924E09DF817000C2816D1FFE7DF
:1012E00040F60000C4F20200002102224FF4007315
:1012F00002F0B2F89DF8172020A850F8220013A998
:1013000031F82210012203F077F908E09DF8171058
:1013100020A850F82100012102F0BCFFFFE7FFE701
:10132000FFE79DF8170001308DF8170098E70020BF
:101330008DF8B700FFE79DF9B7002EB010BD000093
:1013400010B5AEB08DF8B6008DF8B51045F6FC10AE
:10135000C0F600000290016842688368D0F80CC0B3
:10136000D0F810E044692594CDF890E0CDF88CC019
:101370002293219220918169C269036AD0F824C026
:10138000D0F828E0C46A2B94CDF8A8E0CDF8A4C02A
:10139000289327922691006B2C9045F63020C0F6BA
:1013A00000000390016842688368D0F80CC0D0F850
:1013B00010E044691894CDF85CE0CDF858C015935E
:1013C000149213918169C269036AD0F824C0D0F8DD
:1013D00028E0C46A1E94CDF874E0CDF870C01B9369
:1013E0001A921991006B1F9045F6C810C0F60000C4
:1013F0000490016842688368D0F80CC0D0F810E00F
:1014000044690B94CDF828E0CDF824C008930792E6
:1014100006918169C269036AD0F824C0D0F828E037
:10142000C46A1194CDF840E0CDF83CC00E930D9203
:101430000C91006B12909DF8B60070B1FFE79DF81B
:10144000B50050B1FFE79DF8B6000C2805DCFFE7BA
:101450009DF8B5000D2804DBFFE7FF208DF8B700ED
:101460005DE09DF8B6008DF81700FFE79DF81700C6
:101470009DF8B51088424EDCFFE79DF8172020A8A4
:10148000009050F8220013A9019151F8221003F0A6
:10149000AFFA009801999DF8172050F8220051F8F2
:1014A000221003F0B9FA9DF8171006A850F8211081
:1014B000002048709DF817000B280BD1FFE740F67D
:1014C0000000C4F20200012102224FF4807301F0F7
:1014D000C3FF19E09DF817000C280BD1FFE740F679
:1014E0000000C4F20200012102224FF4007301F057
:1014F000B3FF08E09DF8171020A850F82100002144
:1015000002F0C8FEFFE7FFE7FFE79DF81700013094
:101510008DF81700AAE700208DF8B700FFE79DF9C6
:10152000B7002EB010BD00007047000082B08DF8EB
:10153000070000919DF90700B0F1FF3F0CDCFFE7C9
:10154000009800019DF8071001F00F014EF61452AB
:10155000CEF20002885409E0009800019DF90710BE
:101560004EF20042CEF200028854FFE702B070470C
:101570007047000081B00090009A1168506892682E
:10158000431CB3FBF2F000FB1230401AB0FA80F0BB
:10159000400901B0704700007047000080B588B076
:1015A00040F6014002F0A0FA40F6034002F09CFA37
:1015B00041F20E1002F098FA40F20040C4F202002C
:1015C00000900022079280230193114601F0F6FE5D
:1015D0000098079A40230293114601F0EFFE00980D
:1015E000079A20230393114601F0E8FE0098079A1A
:1015F00010230493114601F0E1FE0098079A082396
:101600000593114601F0DAFE019B079A40F600406F
:10161000C4F202000690114601F0D0FE029B06982B
:10162000079A114601F0CAFE039B0698079A1146D5
:1016300001F0C4FE049B0698079A114601F0BEFE15
:10164000059B0698079A114601F0B8FE0698079A7E
:101650000423114601F0B2FE0698079A02231146B0
:1016600001F0ACFE08B080BD80B582B0009000985B
:101670000138B0F1807F03D3FFE70120019019E02A
:10168000009801384EF21401CEF2000108604FF0CC
:10169000FF300F21FFF74AFF4EF21801CEF2000192
:1016A000002008604EF21002CEF200020721116005
:1016B0000190FFE7019802B080BD000080B540F2C4
:1016C000F471C2F2000108680130086040F2E07174
:1016D000C2F2000108880130088001F099FD80BD48
:1016E00080B582B04EF68851CEF200010A6843F60A
:1016F000080042F47002C4F202000A6050F8081CAC
:1017000041F0010140F8081C50F8081C8907FBD57E
:10171000016841F08001016000210191019A4F2A86
:1017200006D800BF019A01320192019A502AF9D3DA
:10173000026842F090020260019101994F2905D898
:1017400001990131019101995029F9D301684FF6AE
:10175000FF7221F00301016050F8081CCFF6F66219
:10176000114040F8081C50F8081C21F4802140F872
:10177000081C00210160026843F21002C2F200421C
:1017800040F8042C416002F05DFD02B080BD000015
:1017900080B582B0ADF8060040F2F470C2F20000ED
:1017A0000068BDF8061088420ED3FFE741F2000042
:1017B000C4F20200042101F0BFFD40F2F471C2F254
:1017C000000100200860FFE702B080BD80B582B054
:1017D00040F66011C2F200010191072002F0DCF92D
:1017E0000198818844F60000C4F2010002F052FD25
:1017F00040F60040C4F202004FF4806101F09CFD0D
:10180000002002B080BD000080B582B040F6881193
:10181000C2F200010191082002F0BEF9019881880E
:1018200041F60000C4F2000002F034FD40F6004032
:10183000C4F202004FF4006101F07EFD002002B00E
:1018400080BD000080B582B040F6B011C2F2000148
:101850000191092002F0A0F90198818841F6004029
:10186000C4F2000002F016FD40F60000C4F20200CF
:10187000402101F061FD002002B080BD80B582B042
:1018800040F62001C2F2000101910A2002F084F921
:101890000198818842F20000C4F2000002F0FAFCD4
:1018A00040F60000C4F20200802101F045FD002056
:1018B00002B080BD80B582B040F6E801C2F20001FE
:1018C0000191042002F068F9019881884FF080406E
:1018D00002F0E0FC41F20000C4F202004FF480711B
:1018E00001F02AFD002002B080BD000080B582B06A
:1018F00040F2F871C2F2000100910120019002F063
:101900004BF90098818840F20040C4F2000002F0D8
:10191000C1FC019940F20040C4F2020001F00CFD4C
:10192000002002B080BD000080B582B040F6980172
:10193000C2F2000100910220019002F02DF90098FE
:10194000818841F20000C4F2000002F0A3FC01997A
:1019500040F20040C4F2020001F0EEFC002002B0B0
:1019600080BD000080B582B040F6C001C2F2000127
:101970000191032002F010F90198818841F20040A2
:10198000C4F2000002F086FC41F20000C4F2020042
:10199000802101F0D1FC002002B080BD80B586B06E
:1019A00040F20040C4F20100082103F03FF808B300
:1019B000FFE740F20040C4F201000390082103F069
:1019C0002BF8039802F082FE01460398ADF816103A
:1019D00040F64801C2F2000104914968BDF81620A2
:1019E00011448AB2022102F007FE04990B2002F092
:1019F000D3F8FFE740F20040C4F20100102103F0E9
:101A000015F808B3FFE740F20040C4F2010001906E
:101A1000102103F001F8019802F058FE01460198E8
:101A2000ADF8141040F67001C2F20001029149684D
:101A3000BDF8142011448AB2032102F0DDFD0299A1
:101A40000C2002F0A9F8FFE7002006B080BD0000DE
:101A500080B582B040F61011C2F20001019105205C
:101A600002F09AF80198818844F20000C4F2010063
:101A700002F010FC40F60040C4F202004FF4807106
:101A800001F05AFC002002B080BD000080B582B099
:101A900040F63811C2F200010191062002F07CF8F4
:101AA0000198818844F20040C4F2010002F0F2FB88
:101AB00040F60040C4F202004FF4007101F03CFC1B
:101AC000002002B080BD000080B544F20000C4F2E6
:101AD0000100012102F0A0FFFFF7BAFF80BD000066
:101AE00080B544F60000C4F20100012102F094FF29
:101AF000FFF76CFE80BD000080B544F20040C4F2E8
:101B00000100012102F088FFFFF7C0FF80BD000047
:101B100080B54FF08040012102F07EFFFFF7CAFE42
:101B200080BD000080B540F20040C4F200000121F9
:101B300002F072FFFFF7DAFE80BD000080B541F2CF
:101B40000000C4F20000012102F066FFFFF7ECFE86
:101B500080BD000080B541F20040C4F200000121C8
:101B600002F05AFFFFF7FEFE80BD000080B541F68F
:101B70000000C4F20000012102F04EFFFFF744FE16
:101B800080BD000080B540F20040C4F20100082191
:101B900002F04CFF18B1FFE7FFF700FFFFE740F24C
:101BA0000040C4F20100102102F040FF18B1FFE72D
:101BB000FFF7F4FEFFE780BD80B542F20000C4F2FB
:101BC0000000012102F028FFFFF758FE80BD000051
:101BD00080B541F60040C4F20000012102F01CFF74
:101BE000FFF730FE80BD000080B584B00120039077
:101BF00000210091FFF7DCF8009902200190FFF727
:101C0000D7F8009903200290FFF7D2F801990398C2
:101C1000FFF7B2F901990846FFF7AEF9019902986A
:101C2000FFF7AAF903980C2140F25232FEF7BEFFEB
:101C300004B080BD80B584B040F6034001F054FF8D
:101C400040F60040C4F202000190012100220292FD
:101C50004FF48063039301F0B1FB01980299039B59
:101C6000022201F0F9FB04B080BD000080B584B011
:101C700040F6034001F038FF40F60040C4F2020095
:101C800001900121002202924FF40063039301F0BE
:101C900095FB01980299039B022201F0DDFB04B041
:101CA00080BD000080B584B040F6024001F01CFF0A
:101CB00040F60000C4F202000190012100220292CD
:101CC0004023039301F07AFB01980299039B0222BF
:101CD00001F0C2FB04B080BD80B584B040F6024084
:101CE00001F002FF40F60000C4F202000190012161
:101CF000002202928023039301F060FB0198029975
:101D0000039B022201F0A8FB04B080BD80B584B023
:101D100040F6044001F0E8FE41F20000C4F2020087
:101D200001900121002202924FF48073039301F08D
:101D300045FB01980299039B022201F08DFB04B040
:101D400080BD000080B584B040F6014001F0CCFEBB
:101D500040F20040C4F202000190002202920123EE
:101D60000393194601F02AFB01980299039B022272
:101D700001F072FB04B080BD80B584B040F6014034
:101D800001F0B2FE40F20040C4F2020001900121D5
:101D9000002202920223039301F010FB01980299A2
:101DA000039B1A4601F058FB04B080BD80B584B097
:101DB00040F6044001F098FE41F20000C4F2020037
:101DC00001900121002202928023039301F0F6FA90
:101DD00001980299039B022201F03EFB04B080BDF2
:101DE00080B588B040F6024001F07EFE40F600006B
:101DF000C4F20200059002210391002201924FF4E7
:101E00008073049301F0DAFA019A039905984FF46C
:101E10000073079301F0D2FA039A049B05980121FD
:101E2000029101F019FB0299039A0598079B01F0B2
:101E300013FB049A05980321069101F013FA059803
:101E40000699079A01F00EFA08B080BD80B584B0FB
:101E500040F6034001F048FE40F60040C4F20200A4
:101E600001900121002202924FF48073039301F04C
:101E7000A5FA01980299039B022201F0EDFA04B041
:101E800080BD000080B584B040F6034001F02CFE18
:101E900040F60040C4F202000190012100220292AB
:101EA0004FF40073039301F089FA01980299039BA0
:101EB000022201F0D1FA04B080BD000080B58EB0DE
:101EC0004FF4885001F010FE4FF0807001F048FE92
:101ED0000020C4F20100069002F002FC00F086F837
:101EE000069801210591ADF81C1000210491ADF870
:101EF0001E10ADF8201041F287320992ADF8221081
:101F00008DF8281007A902F0E9FC0499059A0698B3
:101F1000ADF82C20ADF82E1002220192ADF8302041
:101F20000822ADF832204FF48072ADF834204FF41F
:101F30000072ADF836200BAA009202F0B3F9009AB5
:101F40000599069802F0AEF9009A0199069802F0F8
:101F5000A9F9009A06980321039102F0A3F9049AC3
:101F60000698114602F048FB0499069860220292F6
:101F700002F0FCFA049A0698114602F061FB049AFA
:101F80000599069802F038FB029A0599069802F026
:101F9000EDFA049A0599069802F052FB0199049A09
:101FA000069802F029FB0199029A069802F0DEFADF
:101FB0000199049A069802F043FB0399049A069843
:101FC00002F01AFB029A0399069802F0CFFA0399DD
:101FD000049A069802F034FB0599069802F044FD35
:101FE000069802F071FC0EB080BD000080B588B08C
:101FF00040F6044001F078FD41F20000C4F2020016
:10200000059002210191002200924FF40073029387
:1020100001F0D4F9009A019905984FF400630393F5
:1020200001F0CCF9009A019905984FF400530493FC
:1020300001F0C4F9009A019905984FF48043079381
:1020400001F0BCF90099019A029B059801F004FA8D
:102050000099019A039B059801F0FEF90099019AF5
:10206000049B059801F0F8F90099019A0598079BDF
:1020700001F0F2F9029A05980121069101F0F2F8B7
:10208000039A0598069901F0EDF8049A05980699C7
:1020900001F0E8F805980699079A01F0E3F808B00E
:1020A00080BD000080B586B041F2121001F01CFD29
:1020B0004FF0807001F054FD44F60000C4F20100BE
:1020C000009002F08BFC009802F00AFBFFF7B2FDD3
:1020D0000098C721ADF8081000210191ADF80A1051
:1020E000ADF80C100491ADF80E108DF8141002A983
:1020F00002F0F4FB009802F0C3F80098012102F00E
:102100008BFC019A1A20114601F098FB06B080BDA5
:1021100080B586B041F2060001F0E6FC4FF0807019
:1021200001F01EFD41F60000C4F20000009002F034
:1021300055FC009802F0D4FAFFF798FD0098C721EB
:10214000ADF8081000210191ADF80A10ADF80C109F
:102150000491ADF80E108DF8141002A902F0BEFB28
:10216000009802F08DF80098012102F055FC019AC8
:102170002B20114601F062FB06B080BD80B586B011
:1021800041F2070001F0B0FC4FF0807001F0E8FC74
:1021900041F60040C4F20000009002F01FFC0098DD
:1021A00002F09EFAFFF77EFD0098C721ADF80810F7
:1021B00000210191ADF80A10ADF80C100491ADF8B2
:1021C0000E108DF8141002A902F088FB009802F09E
:1021D00057F80098012102F01FFC019A2C201146AB
:1021E00001F02CFB06B080BD80B586B041F208003E
:1021F00001F07AFC4FF0807001F0B2FC42F2000076
:10220000C4F20000009002F0E9FB009802F068FAC6
:10221000FFF762FD0098C721ADF808100021019179
:10222000ADF80A10ADF80C100491ADF80E108DF851
:10223000141002A902F052FB009802F021F8009855
:10224000012102F0E9FB019A2D20114601F0F6FA76
:1022500006B080BD80B586B04FF4805001F044FCDC
:102260004FF0807001F07CFC4FF08040009002F055
:10227000B5FB009802F034FAFFF748FD0098C7213B
:10228000ADF8081000210191ADF80A10ADF80C105E
:102290000491ADF80E108DF8141002A902F01EFB87
:1022A000009801F0EDFF0098012102F0B5FB019AC2
:1022B0001C20114601F0C2FA06B080BD80B586B080
:1022C00041F2010001F010FC4FF0807001F048FC79
:1022D00040F20040C4F20000009002F07FFB009842
:1022E00002F0FEF9FFF72EFD0098C721ADF80810A7
:1022F00000210191ADF80A10ADF80C100491ADF871
:102300000E108DF8141002A902F0E8FA009801F0FE
:10231000B7FF0098012102F07FFB019A1D201146B2
:1023200001F08CFA06B080BD80B58EB041F202009B
:1023300001F0DAFB4FF0807001F012FC40F6000073
:10234000C4F20000069002F0CBF900F081F8069884
:1023500001210191ADF81C1000210591ADF81E106E
:10236000ADF8201041F287320992ADF822108DF8B5
:10237000281007A902F0B2FA019A05990698ADF85B
:102380002C20ADF82E1002220292ADF83020082247
:10239000ADF832204FF48072ADF834204FF4007263
:1023A000ADF836200BAA009201F07CFF009A01994B
:1023B000069801F077FF009A0299069801F072FFE3
:1023C000009A06980321049101F06CFF059A069883
:1023D000114602F011F9059906986022039202F065
:1023E000C5F8059A0698114602F02AF90199059A4E
:1023F000069802F001F90199039A069802F0B6F8DE
:102400000199059A069802F01BF90299059A069817
:1024100002F0F2F80299039A069802F0A7F80299DE
:10242000059A069802F00CF90499059A069802F0AC
:10243000E3F8039A0499069802F098F80499059A2B
:10244000069802F0FDF8069802F03EFA0EB080BD44
:1024500080B588B040F6044001F046FB40F60040ED
:10246000C4F20200059002210691002201924FF46D
:102470008053029300F0A2FF019A059806994FF449
:102480000053039300F09AFF019A059806994FF4C0
:102490008043049300F092FF019A059806994FF447
:1024A0000043079300F08AFF0199029B0598069A62
:1024B00000F0D2FF0199039B0598069A00F0CCFF2B
:1024C0000199049B0598069A00F0C6FF01990598AA
:1024D000069A079B00F0C0FF029A0598069900F043
:1024E000C1FE039A0598069900F0BCFE049A05986F
:1024F000069900F0B7FE05980699079A00F0B2FE1B
:1025000008B080BD80B58EB041F2030001F0ECFA56
:102510004FF0807001F024FB40F60040C4F2000050
:10252000069002F0DDF800F081F806980121019193
:10253000ADF81C1000210591ADF81E10ADF820106B
:1025400041F287320992ADF822108DF8281007A9C0
:1025500002F0C4F9019A05990698ADF82C20ADF85F
:102560002E1002220292ADF830200822ADF832205F
:102570004FF48072ADF834204FF40072ADF836207D
:102580000BAA009201F08EFE009A0199069801F0C4
:1025900089FE009A0299069801F084FE009A069836
:1025A0000321049101F07EFE059A0698114602F07F
:1025B00023F8059906986022039201F0D7FF059A47
:1025C0000698114602F03CF80199059A069802F027
:1025D00013F80199039A069801F0C8FF0199059A2A
:1025E000069802F02DF80299059A069802F004F870
:1025F0000299039A069801F0B9FF0299059A069884
:1026000002F01EF80499059A069801F0F5FF039A66
:102610000499069801F0AAFF0499059A069802F019
:102620000FF8069802F050F90EB080BD80B586B064
:102630004FF4406001F058FA0020C4F20200039009
:1026400002210491002200920123019300F0B6FEC2
:10265000009A0398049B194600F0B0FE009A039874
:1026600004990423029300F0A9FE009A03980499A8
:102670000823059300F0A2FE0099019B0398049A99
:1026800000F0EAFE00990398049B1A4600F0E4FE6D
:102690000099029B0398049A00F0DEFE00990398CB
:1026A000049A059B00F0D8FE019A0398049900F063
:1026B000D9FD0398049A114600F0D4FD029A0398BC
:1026C000049900F0CFFD03980499059A00F0CAFD23
:1026D00006B080BD80B586B041F2040001F004FA76
:1026E0004FF0807001F03CFA41F20000C4F20000AB
:1026F000009002F073F9009801F0F2FFFFF73CFB45
:102700000098C721ADF8081000210191ADF80A101A
:10271000ADF80C100491ADF80E108DF8141002A94C
:1027200002F0DCF8009801F0ABFD0098012102F006
:1027300073F9019A3620114601F080F806B080BD89
:1027400080B586B041F2050001F0CEF94FF08070FF
:1027500001F006FA41F20040C4F20000009002F0DD
:102760003DF9009801F0BCFFFFF720FB0098C7215E
:10277000ADF8081000210191ADF80A10ADF80C1069
:102780000491ADF80E108DF8141002A902F0A6F80D
:10279000009801F075FD0098012102F03DF9019AC1
:1027A0003720114601F04AF806B080BD80B58EB0E2
:1027B00041F2011001F098F94FF0807001F0D0F96A
:1027C00040F20040C4F20100059001F089FFFFF7DC
:1027D00007FB0598C721ADF81C1000210691ADF844
:1027E0001E10ADF820104FF6FF720992ADF82210BE
:1027F0008DF8281007A902F071F805980699ADF830
:10280000301001220492ADF82C20ADF83210ADF852
:102810002E10ADF83410ADF83610022101910BAA3C
:10282000009201F03FFD009A05980321039101F009
:1028300039FD01990598069A01F0DEFE0199059887
:102840003022029201F092FE01990598069A01F059
:10285000F7FE03990598069A01F0CEFE029A0399B5
:10286000059801F083FE03990598069A01F0E8FEA9
:10287000059801F005FD0499059802F0F5F8059812
:10288000082102F0C9F80598102102F0C5F8069A4F
:102890002E20114600F0D2FF0EB080BD80B586B06C
:1028A00041F2101001F020F94FF0807001F058F95A
:1028B00044F20000C4F20100009002F08FF800988A
:1028C00001F00EFFFFF7C2FA0098C721ADF808101B
:1028D00000210191ADF80A10ADF80C100491ADF88B
:1028E0000E108DF8141002A901F0F8FF009801F005
:1028F000C7FC0098012102F08FF8019A18201146B8
:1029000000F09CFF06B080BD80B586B041F211108A
:1029100001F0EAF84FF0807001F022F944F2004033
:10292000C4F20100009002F059F8009801F0D8FEBE
:10293000FFF7A8FA0098C721ADF80810002101910F
:10294000ADF80A10ADF80C100491ADF80E108DF82A
:10295000141002A901F0C2FF009801F091FC009848
:10296000012102F059F8019A1920114600F066FF82
:1029700006B080BDFFE7FEE780B58EB00020049072
:102980000BA9019100F094FB0120029006A903918C
:1029900000F08EFB46F20040C4F20000059000F00B
:1029A0005BF80199029A049B05988DF830308DF8F8
:1029B00031208DF832308DF833208DF834308DF899
:1029C00035308DF82C308DF82D3006238DF82E30D3
:1029D0008DF82F200522ADF8362000F04DF904992E
:1029E0000298ADF82210ADF82410ADF82600FDF7DE
:1029F000CDFF01460498490101F50051ADF81810CA
:102A0000ADF81A00FDF7C2FF0299049A0346039835
:102A10005B0103F50053ADF81C30ADF81E20ADF896
:102A200020208DF8281000F047F8049A1420114651
:102A300000F004FF0598022100F0FEF940F2E47076
:102A4000C2F2000040F21001C2F200016422FDF760
:102A5000D7FF0EB080BD000080B584B0039003980E
:102A600046F20041C4F20001884209D1FFE740F676
:102A70001900029001F060F8029801F049F808E0AE
:102A800040F61A00019001F057F8019801F040F863
:102A9000FFE704B080BD000082B0019000208DF8F7
:102AA000030001988069C0F302108DF803009DF8BF
:102AB000030002B07047000082B001900020009037
:102AC0000198418901208840009046F20061C4F2DB
:102AD0000001086840F001000860009A46F21C619D
:102AE000C4F200010868904308600198C08908BBDF
:102AF000FFE7009A46F20C61C4F2000108689043B7
:102B000008600199CA88488840EA02404A8946F22A
:102B10004061C4F2000141F8320001998A880888B6
:102B200040EA02404A8946F24461C4F2000141F899
:102B30003200FFE70198C089012821D1FFE7009A00
:102B400046F20C61C4F20001086810430860019964
:102B50000A88488840EA02404A8946F24061C4F245
:102B6000000141F8320001998A88C88840EA024091
:102B70004A8946F24461C4F2000141F83200FFE79D
:102B80000198808948B9FFE7009A46F20461C4F2CF
:102B9000000108689043086008E0009A46F204616A
:102BA000C4F20001086810430860FFE7019800893B
:102BB00048B9FFE7009A46F21461C4F200010868C0
:102BC0009043086008E0009A46F21461C4F20001E4
:102BD000086810430860FFE70198007C012809D1CC
:102BE000FFE7009A46F21C61C4F200010868104336
:102BF0000860FFE746F20061C4F20001086820F0B7
:102C00000100086002B0704780B586B041F219003B
:102C100000F06AFF4FF4406000F066FF0020C4F24D
:102C20000200039000210291022201924FF40063FE
:102C3000009300F011FC009B0199029A039800F0A8
:102C4000BDFB009A03980921049100F00BFB019A47
:102C5000029903984FF48053059300F0FDFB01990E
:102C6000029A0398059B00F0A9FB03980499059A22
:102C700000F0F8FA06B080BD80B586B005900491EA
:102C80004FF6FF70039000208DF80B00059908683F
:102C900020F0020008600599086840F00100086013
:102CA000FFE7059841680020C907019031B9FFE7A7
:102CB0000398002818BF01200190FFE70198C00782
:102CC00020B1FFE7039801380390EAE705984068D0
:102CD000C00720B9FFE700208DF80B00A7E004999A
:102CE00091F800C091F801E08B78CA784FF04070FD
:102CF00000EA0E6040EA8C7003F00F0340EA0340E4
:102D000002F0070240EA0250498901396FF39F211E
:102D100008440599C86104980079012806D1FFE7A5
:102D20000599086840F08000086005E0059908688A
:102D300020F080000860FFE704984079012806D160
:102D4000FFE70599086840F04000086005E0059934
:102D5000086820F040000860FFE7049880790128A7
:102D600006D1FFE70599086840F02000086005E0FB
:102D70000599086820F020000860FFE70498C079F2
:102D8000012806D1FFE70599086820F010000860C7
:102D900005E00599086840F010000860FFE7049816
:102DA000007A012806D1FFE70599086820F008009D
:102DB000086005E00599086840F008000860FFE732
:102DC0000498407A012806D1FFE70599086840F089
:102DD0000400086005E00599086820F00400086018
:102DE000FFE70599086820F0010008604FF6FF70C2
:102DF0000390FFE7059841680020C907009031B1B2
:102E0000FFE70398002818BF01200090FFE7009813
:102E1000C00720B1FFE7039801380390EAE7039861
:102E200020B1FFE701208DF80B00FFE7FFE79DF8D9
:102E30000B0006B080BD000082B001900091009AA6
:102E4000019948691043486102B0704782B001900F
:102E50000091009AC2F38411012088400199120B5D
:102E6000885002B07047000080B586B0049003918E
:102E700000200290019003984CF28101884206D113
:102E8000FFE70498002100F0EFF8029027E0039894
:102E90008421C0F20101884206D1FFE70498012194
:102EA00000F0E2F8029019E0039848F2CB01C0F27A
:102EB0000101884205D1FFE70498FFF7EDFD02907C
:102EC0000BE004980399090B40580399C1F384124D
:102ED0000121914008400290FFE7FFE7FFE70498D7
:102EE0004069039901F01F020121914008400190BF
:102EF000029838B1FFE7019820B1FFE701208DF873
:102F0000170003E000208DF81700FFE79DF8170079
:102F100006B080BD83B002908DF807100092029831
:102F20009DF8071000EB0110D0F8B00100F004008C
:102F3000009908720098007A58B9FFE702989DF846
:102F4000071000EB0110D0F8B001400D00990860A7
:102F50000AE002989DF8071000EB0110D0F8B001CC
:102F6000C00800994860FFE702989DF8071000EB41
:102F70000110D0F8B00100F00200009948720298E8
:102F80009DF8071000EB0110D0F8B401000A009979
:102F9000C87402989DF8071000EB0110D0F8B40136
:102FA00000F00F000099887202989DF8071000EB5E
:102FB0000110D0F8B8010099C87202989DF8071066
:102FC00000EB0110D0F8B801000A009908730298CC
:102FD0009DF8071000EB0110D0F8B801000C009923
:102FE000487302989DF8071000EB0110D0F8B80163
:102FF000000E0099887302989DF8071000EB0110ED
:10300000D0F8BC010099C87302989DF8071000EB36
:103010000110D0F8BC01000A0099087402989DF8CC
:10302000071000EB0110D0F8BC01000C00994874A7
:1030300002989DF8071000EB0110D0F8BC01000EBB
:10304000009988749DF8070030B9FFE70299C868B5
:1030500040F02000C86005E00299086940F02000B7
:103060000861FFE703B0704782B001908DF803104C
:1030700000208DF802009DF8030038B9FFE70198A1
:10308000C06800F003008DF802000DE09DF8030019
:10309000012807D1FFE70198006900F003008DF8CF
:1030A000020000E0FFE7FFE79DF8020002B0704772
:1030B00086B08DF817000491049838B9FFE7FFE750
:1030C000FFE701200028FBD1FFE7FFE79DF817008D
:1030D00001460291032800F27D800299DFE801F0A9
:1030E000021E345604990020019048710499C87159
:1030F00004998871049A40F2FF3151810499087251
:1031000004994870049A022191700499C870049936
:103110000871049948720499087062E004990120CA
:10312000C8810499002000900874049908810499CA
:10313000088004994880049988800499C88004997B
:103140008881049948814CE000208DF80F00FFE74A
:103150009DF80F0007280DD8FFE704989DF80F1081
:1031600001440020C872FFE79DF80F0001308DF880
:103170000F00EDE7049900208872049948600499D3
:10318000087204994872049908602AE000208DF8BA
:103190000F00FFE79DF80F0007280DD8FFE7049800
:1031A0009DF80F1001440020C872FFE79DF80F0042
:1031B00001308DF80F00EDE7049900208872049922
:1031C0004860049908720499C87404994872049973
:1031D000086006E0FFE7FFE701200028FBD1FFE7DA
:1031E000FFE706B07047000081B00090009840F6FD
:1031F000D811C2F200010860FFE740F6D810C2F211
:103200000000006808B1FFE7F7E701B07047000071
:1032100040F6D810C2F20000006840B1FFE740F667
:10322000D811C2F20001086801380860FFE7704752
:1032300080B582B0019000919DF8041041F2000029
:10324000C4F2010001F052FDFFE741F20000C4F2B8
:103250000100072101F0F0FD08B9FFE7F5E701984B
:1032600002B080BD86B00590049103920598006A73
:1032700001900598406A00900020ADF80A00FFE731
:10328000BDF80A00072821D8FFE7BDF80A10039807
:10329000C840C00798B1FFE7BDF80A0081000F20C1
:1032A00000FA01F10198884301900498BDF80A10D2
:1032B000890000FA01F1019808430190FFE7FFE758
:1032C000BDF80A000130ADF80A00D9E70820ADF8D2
:1032D0000A00FFE7BDF80A000F2825D8FFE7BDF870
:1032E0000A100398C840C007B8B1FFE7BDF80A004C
:1032F0006FF01F0101EB80020F2000FA02F200982C
:10330000904300900498BDF80A2001EB820100FA76
:1033100001F1009808430090FFE7FFE7BDF80A00BD
:103320000130ADF80A00D5E70198059908620098C8
:103330000599486206B0704782B0019000910098EC
:103340000199C86202B0704783B0029001918DF874
:1033500003209DF8030020B1FFE7019802998861DE
:1033600003E0019802998862FFE703B0704700000C
:1033700080B500F0BBF8FDF7A5FAFEF70FF9FDF7F1
:1033800053FBFDF785FEFDF765FDFDF795FD80BD5F
:1033900083B001900091019800690099084204D01F
:1033A000FFE701208DF80B0003E000208DF80B00F3
:1033B000FFE79DF80B0003B07047000087B0069050
:1033C0000591049203930698006801900698C068DE
:1033D00000900020ADF80A00FFE7BDF80A000F28B2
:1033E00032D8FFE7BDF80A100398C840C00720B3E1
:1033F000FFE7BDF80A004100032000FA01F201993D
:10340000914301910599BDF80A20520001FA02F298
:10341000019911430191BDF80A10490000FA01F128
:103420000098884300900498BDF80A10490000FAFB
:1034300001F1009808430090FFE7FFE7BDF80A009C
:103440000130ADF80A00C8E70198069908600098B5
:103450000699C86007B0704786B005908DF81310C4
:10346000039202939DF81300012806D1FFE7029A08
:10347000059948681043486005E0029A0599486834
:1034800090434860FFE70598806800900020ADF801
:103490000600FFE7BDF806000F2821D8FFE7BDF8BA
:1034A00006100298C840C00798B1FFE7BDF80600B3
:1034B0004100032000FA01F100988843009003982E
:1034C000BDF80610490000FA01F100980843009089
:1034D000FFE7FFE7BDF806000130ADF80600D9E7C9
:1034E00000980599886006B07047000080B584B0E8
:1034F00040F6044000F0F8FA41F20000C4F2020085
:10350000019001210022029204230393FFF756FF4A
:1035100001980299039B0222FFF79EFF04B080BD31
:1035200080B5A2B00020219000F090FEFFF720FFB0
:103530004FF4E13001F0B0FAFDF7BCF9FEF7BEFE42
:10354000FFF7C8F8FFF7FCF8FEF784FEFFF7A6F9CF
:10355000FFF7DAF9FEF7A6FDFEF7DAFDFEF70EFE3D
:10356000FEF742FEFFF722F9FEF7CCFFFEF7A6FCBE
:10357000FEF7DAFEFEF738FB4FF4FA70FFF734FE81
:10358000FFE74FF4C870FEF703F940F20D00C2F2F6
:1035900000000390007840F20C01C2F20001049197
:1035A00009786B4642F2107206929A6042F2283C09
:1035B000CDF814C0C3F804C01A6001224AF24023B7
:1035C000CFF6FF7300F0D8FB40F6B8300790FFF756
:1035D0000BFE40F2F870C2F200000890416A45F616
:1035E000D420C0F60000099001F0B0FC32202090F9
:1035F000FFF7FAFD40F69800C2F200000A90416A17
:1036000045F6F720C0F600000B9001F09FFC2098D3
:10361000FFF7EAFD40F6C000C2F200000C90416ADC
:1036200045F60830C0F600000D9001F08FFC2098A0
:10363000FFF7DAFD40F6E800C2F200000E90416AA2
:1036400045F61930C0F600000F9001F07FFC20987D
:10365000FFF7CAFD40F61010C2F200001090416A58
:1036600045F62A30C0F60000119001F06FFC20985A
:10367000FFF7BAFD40F63810C2F200001290416A1E
:1036800045F63B30C0F60000139001F05FFC209837
:10369000FFF7AAFD40F66010C2F200001490416AE4
:1036A00045F64C30C0F60000159001F04FFC209814
:1036B000FFF79AFD40F68810C2F200001690416AAA
:1036C00045F65D30C0F60000179001F03FFC2098F1
:1036D000FFF78AFD40F6B010C2F200001890416A70
:1036E00045F66E30C0F60000199001F02FFC2098CE
:1036F000FFF77AFD40F62000C2F200001A90416AFE
:1037000045F6B020C0F600001B9001F01FFC209889
:10371000FFF76AFD40F64800C2F200001C90416AC3
:1037200045F6C220C0F600001D9001F00FFC209865
:10373000FFF75AFD40F67000C2F200001E90416A89
:1037400045F6E520C0F600001F9001F0FFFB209831
:10375000FFF74AFD03980499DDF814C0069A007833
:1037600009786B469A60C3F804C01A6000231A46B1
:1037700000F002FB0798FFF737FD08990998496A9E
:1037800001F0E4FB2098FFF72FFD0A990B98496A96
:1037900001F0DCFB2098FFF727FD0C990D98496A92
:1037A00001F0D4FB2098FFF71FFD0E990F98496A8E
:1037B00001F0CCFB2098FFF717FD10991198496A8A
:1037C00001F0C4FB2098FFF70FFD12991398496A86
:1037D00001F0BCFB2098FFF707FD14991598496A82
:1037E00001F0B4FB2098FFF7FFFC16991798496A7F
:1037F00001F0ACFB2098FFF7F7FC18991998496A7B
:1038000001F0A4FB2098FFF7EFFC1A991B98496A76
:1038100001F09CFB2098FFF7E7FC1C991D98496A72
:1038200001F094FB2098FFF7DFFC1E991F98496A6E
:1038300001F08CFB2098FFF7D7FCA2E680B584B09E
:103840008DF80F008DF80E108DF80D2000200290DD
:10385000019000904EF60C50CEF20000006800F48B
:10386000E060B0F5E06F05D1FFE700200190042093
:1038700000904AE04EF60C50CEF20000006800F4D2
:10388000E060B0F5C06F05D1FFE701200190032093
:10389000009039E04EF60C50CEF20000006800F4C3
:1038A000E060B0F5A06F04D1FFE702200190009026
:1038B00029E04EF60C50CEF20000006800F4E06003
:1038C000B0F5806F05D1FFE7032001900120009043
:1038D00018E04EF60C50CEF20000006800F4E060F4
:1038E000B0F5407F05D1FFE7042001900020009053
:1038F00007E04FF4A06000F037F80220019000903C
:10390000FFE7FFE7FFE7FFE7FFE79DF80E000199FC
:10391000C1F10401884002909DF80D000099C1F1A9
:1039200004020F21D14001400298084302900298FE
:103930000001029002989DF80F104EF20042CEF264
:10394000000288549DF80F2002F01F0101208840DA
:103950004EF20011CEF2000141EAD20121F0030142
:10396000086004B080BD000081B000900098002184
:10397000C0F2FA5108434EF60C51CEF20001086035
:1039800001B0704798B08DF85F000020159040F2AC
:103990000671C0F60811099140F20121C0F20341FD
:1039A000089107900690059104900391029043F6C8
:1039B0000800C4F202000068C0F381001690169857
:1039C000019040B1FFE7019801280AD0FFE7019874
:1039D00002280CD03EE042F20040C0F2F400149005
:1039E0003EE041F20020C0F27A00149038E043F645
:1039F0000400C4F20200016801F03F011091016867
:103A0000C1F388110F91016801F44032022101EBEA
:103A1000D2310D91006800F480000E900E98B0F540
:103A2000800F06D1FFE741F20020C0F27A000C902F
:103A300005E042F20040C0F2F4000C90FFE70C9861
:103A40001099B0FBF1F00F9948430D99B0FBF1F0DC
:103A5000149005E042F20040C0F2F4001490FFE739
:103A600043F60800C4F202000168C9B209090B91CB
:103A70000B9A06A9895C0A9114990A9AD14013916C
:103A80000168C1F382210B910B9A04A9895C0A9108
:103A900013990A9AD1401291006880B2400B0B90A2
:103AA0000B9902A8405C0A9013980A99C84011909B
:103AB0009DF85F0001460091032810D80099DFE8C7
:103AC00001F00205080B1498159009E01398159061
:103AD00006E01298159003E01198159000E0FFE7BA
:103AE000159818B07047000081B0ADF80200BDF81D
:103AF000020000F01F02012101FA02F3810943F6DE
:103B00000002C4F2020288581843885001B070477E
:103B100081B0ADF80200BDF8020000F01F020121E3
:103B200001FA02F3810943F60002C4F20202885846
:103B30009843885001B0704781B0ADF80200BDF8DD
:103B4000020000F01F02012101FA02F3810943F68D
:103B50000002C4F2020288581843885001B070472E
:103B600081B0009000986FF08071884209D1FFE722
:103B7000009A43F68C01C4F2020108681040086004
:103B800008E0009A43F68C01C4F202010868104371
:103B90000860FFE701B0704780B584B08DF80F0072
:103BA0000291029908780130087002980078022882
:103BB00040F0DD80FFE702990020087002988078CD
:103BC00001460191032800F2CE800199DFE801F05F
:103BD000020D845E02990020C861029908629DF876
:103BE0000F100846FDF7ACFBBDE00298C07828B185
:103BF000FFE70299486A0130486204E00299486A86
:103C000001384862FFE70299C8690130C86102992A
:103C1000486901304861029948684B690A6A02EBB9
:103C200040029B00013392FBF3F2801A0883029951
:103C30004B6848690A6A02EB43038000421C93FB0D
:103C4000F2F000FB1230086202988168C069884275
:103C500007D3FFE70299C86848610299022088707B
:103C600013E00299088B096988420DDCFFE702998D
:103C7000088B48830299086908830299002008622A
:103C8000029903208870FFE7FFE76CE00298C07894
:103C900028B1FFE70299486A0130486204E00299BE
:103CA000486A01384862FFE70299C8690130C86173
:103CB00002990869088302988168C06988420AD31A
:103CC000FFE70299C86848610299488B0883029906
:103CD00002208870FFE746E00298C07828B1FFE72D
:103CE0000299486A0130486204E00299486A013842
:103CF0004862FFE70299C8690130C86102994869C2
:103D000001304861029948684B690A6A02EB400237
:103D10009B00013392FBF3F2801A088302994B68EF
:103D200048690A6A02EB43038000421C93FBF2F0ED
:103D300000FB1230086202984069002812D4FFE7A5
:103D40000298C07828B1FFE70299486A01304862BA
:103D500004E00299486A01384862FFE702990020AE
:103D60008870FFE7FFE70299088B4860FFE704B01F
:103D700080BD00000000000010B598B0DDF870C0F4
:103D8000DDF86CC0DDF868C08DF85E008DF85D1060
:103D90008DF85C20169345F66420C0F60000039071
:103DA000016842688368D0F80CC0D0F810E044691C
:103DB0000E94CDF834E0CDF830C00B930A920991FF
:103DC0008169C269036AD0F824C0D0F828E0C46AC7
:103DD0001494CDF84CE0CDF848C0119310920F9197
:103DE000006B15900020089007909DF85E0070B160
:103DF000FFE79DF85D0050B1FFE79DF85E000C28DD
:103E000005DCFFE79DF85D000D2804DBFFE7FF20E0
:103E10008DF85F00A2E11C9842F21171884204D330
:103E2000FFE7FF208DF85F0098E11C98092803D870
:103E3000FFE70F201C90FFE71698B0F1FF3F04DC6E
:103E4000FFE716984042029002E016980290FFE7C2
:103E5000029808900898013808901C98FCF791FA8D
:103E600041EC100B9FEDC01B53EC112B51EC100BD0
:103E7000FCF7A6F941EC100B51EC100BFCF7ADFA76
:103E80001C909DF85E008DF81300FFE79DF813006D
:103E90009DF85D10884200F35D81FFE79DF85C00AE
:103EA00088B1FFE71698C043C00F9DF8132009A9F9
:103EB00051F82210C8709DF813001699C943C90F14
:103EC000FCF7E8FE33E016989DF8132009A951F895
:103ED0002210496A401A07900798B0F1FF3F04DCAE
:103EE000FFE707984042019002E007980190FFE742
:103EF000019808900898013808909DF8130009AAC5
:103F000052F82030586ADDF858C000216045084654
:103F1000D8BF0120D8709DF8130052F82020526AB3
:103F2000169B9A42D8BF0121FCF7B4FEFFE7089820
:103F3000A0BBFFE79DF8131009A850F821204FF00F
:103F4000FF3151619DF8131050F82120022191702A
:103F50009DF8131050F821204FF47A7151609DF8AC
:103F6000131050F82100C07848B1FFE79DF81310F6
:103F700009A850F82110486A0138486208E09DF805
:103F8000131009A850F82110486A01304862FFE771
:103F90009DF813100846FDF7CDF8D4E008980028E6
:103FA00000F0D080FFE79DED1C0AB8EE401A9FEDAF
:103FB000740A80EE010A9DF8131009A8009050F8C9
:103FC0002100BDEEC00A80ED040A9DED1A0AB8EE8C
:103FD000401A9FED6C0A80EE010A10EE100AFCF701
:103FE00015FA41EC100B00F0C1FF51EC100B9FEDE6
:103FF000600B53EC102BFCF7E3F841EC100B51EC89
:10400000100B9FED5D0B53EC102BFCF74BF941ECC3
:10401000100B51EC100BFCF7C1F900999DF813201F
:1040200051F8221048601C98404300EE100AB8EE88
:10403000400A9DED1A1AB8EE411A9FED532A21EE5F
:10404000021AB2EE042A81EE021A80EE010ABCEED8
:10405000C00A8DED060A069818B9FFE70120069000
:10406000FFE708981B9A50431A991144B0FBF1F0EE
:104070000590059818B9FFE701200590FFE705981E
:10408000069988420AD8FFE705980899401A9DF8D2
:10409000132009A951F82210C8600DE006981A995A
:1040A00048431B99B0FBF1F040429DF8132009A949
:1040B00051F82210C860FFE79DF8131009A850F8C6
:1040C0002100C06848B9FFE79DF8131009A850F80F
:1040D00021104FF0FF30C860FFE708999DF81320CA
:1040E00009A850F82220D368194491609DF8131054
:1040F00050F821104868096988420EDCFFE79DF8F6
:10410000131009A850F82120116951609DF813106F
:1041100050F821100320887007E09DF8131009A8BB
:1041200050F8211001208870FFE79DF8131009A8AE
:1041300050F82110002048619DF813100846FCF744
:10414000F9FFFFE7FFE7FFE79DF8130001308DF867
:1041500013009BE600208DF85F00FFE79DF95F00EC
:1041600018B010BD00BF00BF7B14AE47E17AC43F5A
:10417000000000000081F04000000000000024402A
:10418000DF6599477059C444CF0FC93F43F6080013
:10419000C4F2020050F8081C41F4803140F8081CB9
:1041A0004FF6FE7150F8083C4A1E8A4204D213F4BE
:1041B00000311146F6D000BF50F8081C8903FBD52A
:1041C000826B47F2000142F08052C4F20001826328
:1041D0000A6842F440420A6002680260026842F4DF
:1041E00000420260026842F4A052026046F20842B5
:1041F000C0F6401240F8042C50F8082C42F08072AF
:1042000040F8082C50F8082C9201FBD50A6842F4BB
:1042100080320A604A68D203FCD50A6842F4003250
:104220000A6000BF4A689203FCD5016821F00301CF
:104230000160016841F00201016000BF01680907E7
:10424000FCD5704780B5FFF7A1FF80BD80B540F277
:104250000800C2F20000006844F6D351C1F26201C6
:10426000A0FB01108009FDF7FFF910B1FFE7FFE7A0
:10427000FEE74FF0FF301121FDF758F980BD000037
:1042800081B000900099086840F08000086001B09B
:104290007047000082B00190009100980199C862B7
:1042A00002B0704784B00390ADF80A100192BDF8D7
:1042B0000A0001460091032800F255810099DFE8C9
:1042C00011F004005C00BA0018010399086A20F09C
:1042D000010008620399886920F003008861019851
:1042E00002880399086A104308620399086A20F05B
:1042F00002000862019882880399086A10430862E4
:1043000003980021C4F20101884208D0FFE7039816
:1043100040F20041C4F2010188422DD1FFE7039928
:10432000086A20F004000862019842880399086A2C
:10433000104308620399086A20F008000862019897
:10434000C2880399086A104308620399486820F4F8
:10435000807048600198028903994868104348605A
:104360000399486820F400704860019842890399D5
:10437000486810434860FFE7F6E00399086A20F0B8
:10438000100008620399886920F4407088610198E0
:1043900002880399086A40EA021008620399086AD1
:1043A00020F020000862019882880399086A40EA98
:1043B0000210086203980021C4F20101884208D06B
:1043C000FFE7039840F20041C4F20101884231D175
:1043D000FFE70399086A20F04000086201984288CC
:1043E0000399086A40EA021008620399086A20F0FB
:1043F000800008620198C2880399086A40EA0210A6
:1044000008620399486820F4806048600198028936
:104410000399486840EA820048600399486820F49C
:1044200000604860019842890399486840EA820028
:104430004860FFE798E00399086A20F480700862FA
:104440000399C86920F00300C861019802880399A4
:10445000086A40EA022008620399086A20F40070A2
:104460000862019882880399086A40EA022008627B
:1044700003980021C4F20101884208D0FFE70398A5
:1044800040F20041C4F20101884231D1FFE70399B3
:10449000086A20F480600862019842880399086ADB
:1044A00040EA022008620399086A20F4006008626A
:1044B0000198C2880399086A40EA022008620399B9
:1044C000486820F480504860019802890399486840
:1044D00040EA021048600399486820F400504860A0
:1044E000019842890399486840EA02104860FFE752
:1044F0003AE00399086A20F4805008620399C86979
:1045000020F44070C861019802880399086A40EA63
:10451000023008620399086A20F40050086201988A
:1045200082880399086A40EA0230086203980021F1
:10453000C4F20101884208D0FFE7039840F200412D
:10454000C4F2010188420DD1FFE70399486820F4C5
:1045500080404860019802890399486840EA8210C7
:104560004860FFE700E0FFE704B0704783B00290C7
:10457000ADF80610ADF80420BDF806000146009124
:10458000032836D80099DFE801F0020E1B270299B4
:10459000886920F070008861BDF80420029988695C
:1045A0001043886126E00299886920F4E040886120
:1045B000BDF804200299886940EA0220886119E068
:1045C0000299C86920F07000C861BDF80420029902
:1045D000C8691043C8610DE00299C86920F4E04041
:1045E000C861BDF804200299C86940EA0220C86188
:1045F00000E0FFE703B0704784B00390ADF80A1005
:104600000192BDF80A0001460091032814D80099D0
:10461000DFE801F002060A0E0198039948630CE0F6
:1046200001980399886308E001980399C86304E03E
:1046300001980399086400E0FFE704B070470000A8
:1046400083B00290ADF80610ADF80420BDF8060066
:1046500001460091032836D80099DFE801F0020EE8
:104660001B270299886920F008008861BDF80420A2
:10467000029988691043886126E00299886920F4CC
:1046800000608861BDF804200299886940EA022030
:10469000886119E00299C86920F00800C861BDF876
:1046A00004200299C8691043C8610DE00299C869E5
:1046B00020F40060C861BDF804200299C86940EA8E
:1046C0000220C86100E0FFE703B0704782B00190AC
:1046D000002000900198406A0090009802B0704756
:1046E00080B590B00F900F980E90B0F1804F73D0BE
:1046F000FFE70E9840F20041C4F20001884274D0F6
:10470000FFE70E9840F60001C4F20001884275D020
:10471000FFE70E9840F60041C4F20001884276D0CF
:10472000FFE70E9841F20001C4F20001884277D001
:10473000FFE70E9841F20041C4F20001884278D0B0
:10474000FFE70E9841F60001C4F20001884200F034
:104750009D80FFE70E9841F60041C4F200018842B7
:1047600000F09D80FFE70E9842F20001C4F20001C4
:10477000884200F09D80FFE70E980021C4F20101FD
:10478000884220D0FFE70E9840F20041C4F20101B8
:10479000884257D0FFE70E9844F20001C4F20101AD
:1047A000884258D0FFE70E9844F20041C4F201015C
:1047B000884259D0FFE70E9844F60001C4F2010187
:1047C00088425AD07DE04FF410600D90FFF7B4F9A5
:1047D0000D98FFF79DF975E04FF400600C90FFF71E
:1047E000ABF90C98FFF794F96CE040F601000B90E0
:1047F000FFF7A2F90B98FFF78BF963E040F6020090
:104800000A90FFF799F90A98FFF782F95AE040F603
:1048100003000990FFF790F90998FFF779F951E043
:1048200040F604000890FFF787F90898FFF770F941
:1048300048E040F605000790FFF77EF90798FFF77C
:1048400067F93FE040F601100690FFF775F906980A
:10485000FFF75EF936E04FF411600590FFF76CF951
:104860000598FFF755F92DE040F611100490FFF779
:1048700063F90498FFF74CF924E040F61210039016
:10488000FFF75AF90398FFF743F91BE040F60600DB
:104890000290FFF751F90298FFF73AF912E040F65B
:1048A00007000190FFF748F90198FFF731F909E097
:1048B00040F608000090FFF73FF90098FFF728F94D
:1048C00000E0FFE710B080BD81B00090009908685B
:1048D00040F00100086001B07047000082B0019014
:1048E0000091009800880199886201980021C4F223
:1048F0000101884225D0FFE70198B0F1804F20D018
:10490000FFE7019840F20041C4F20001884218D04C
:10491000FFE7019840F60001C4F20001884210D080
:10492000FFE7019840F60041C4F20001884208D038
:10493000FFE7019840F20041C4F20101884212D120
:10494000FFE70199086820F070000860009842882D
:1049500001990868104308600098828801990868E6
:1049600010430860FFE7009880680199C8620198C9
:1049700041F20001C4F20001884214D0FFE701981F
:1049800041F20041C4F2000188420CD0FFE70199D6
:10499000086820F4407008600098C288019908688F
:1049A00010430860FFE701980021C4F2010188422A
:1049B00008D0FFE7019840F20041C4F201018842AB
:1049C00005D1FFE70098007B01990863FFE7019993
:1049D000486940F00100486102B0704781B0009022
:1049E0000099886820F00700886001B070470000D7
:1049F00082B001900091009A0199C8689043C86004
:104A000002B0704782B001900091009A0199C86885
:104A10001043C86002B0704782B0019000910098C6
:104A2000C0430199086102B07047000084B0029051
:104A300001910298C06801990840009002980069AD
:104A40000199084207D0FFE7009820B1FFE7012055
:104A50008DF80F0003E000208DF80F00FFE79DF8B0
:104A60000F0004B07047000082B001908DF8031071
:104A70009DF80300012806D1FFE70199486C40F436
:104A80000040486405E00199486C20F40040486407
:104A9000FFE702B07047000080B58AB009904FF47C
:104AA0004060FFF721F841F20410FFF71DF80020E5
:104AB000C4F202000290072100914FF400720192AB
:104AC000FEF7D0FB009902984FF480620492FEF743
:104AD000C9FB019B02980221039101220592FEF776
:104AE0006DFC019B0298039A00210691FEF7B4FC2D
:104AF00002980399049B059AFEF760FC0298039ABA
:104B0000049B0699FEF7A8FC41F20000C4F20100E4
:104B1000089000F0F7F80898099900F023F8089831
:104B20000821079100F002FA0599089800F0D8F9D9
:104B30000699089800F0AEF90699089800F0BEF8BA
:104B40000699089800F096F90898042100F0B2F947
:104B50000799089800F0D4F9089800F063F90AB0B2
:104B600080BD000080B588B00790069100200590B8
:104B70000490039002900798019044F20041C4F21F
:104B80000001884242D0FFE7019844F60001C4F2D8
:104B9000000188423FD0FFE7019844F60041C4F28B
:104BA000000188423CD0FFE7019845F20001C4F2C1
:104BB0000001884239D0FFE7019847F60001C4F2AE
:104BC0000001884236D0FFE7019847F60041C4F261
:104BD0000001884233D0FFE7019841F20001C4F29E
:104BE0000101884208D0FFE7019841F20041C4F278
:104BF0000101884205D027E00320FEF7C3FE05909F
:104C000023E00320FEF7BEFE05901EE00220FEF723
:104C1000B9FE059019E00220FEF7B4FE059014E0FD
:104C20000220FEF7AFFE05900FE00220FEF7AAFE7D
:104C300005900AE00220FEF7A5FE059005E002209F
:104C4000FEF7A0FE059000E0FFE70798C0680004AB
:104C5000002819D5FFE705984000069900EB5100A0
:104C6000B0FBF1F0029002984FF6F071084004900A
:104C70000298C0F342000390BDF81000BDF80C107C
:104C800008430799886017E00598069900EB5100E2
:104C9000B0FBF1F0029002984FF6F07108400490DA
:104CA000029800F00F000390BDF81000BDF80C1042
:104CB000084307998860FFE708B080BD83B0029081
:104CC0000191002000900298D0F880000090009898
:104CD00020F400600090019900980843009000982B
:104CE0000299C1F8800003B07047000082B00190C3
:104CF000ADF80210BDF802006FF35F200199486023
:104D000002B0704780B58AB009900998089044F2C3
:104D10000041C4F20001884241D0FFE7089844F600
:104D20000001C4F20001884242D0FFE7089844F62F
:104D30000041C4F2000188424CD0FFE7089845F2D8
:104D40000001C4F2000188424DD0FFE7089847F601
:104D50000001C4F2000188424ED0FFE7089847F6F0
:104D60000041C4F2000188424FD0FFE7089841F2A9
:104D70000001C4F20101884208D0FFE7089841F21F
:104D80000041C4F2010188421BD047E040F6041004
:104D90000790FEF7D1FE0798FEF7BAFE3FE040F617
:104DA00011000690FEF7C8FE0698FEF7B1FE36E049
:104DB00040F612000590FEF7BFFE0598FEF7A8FE2C
:104DC0002DE040F605100490FEF7B6FE0498FEF7BD
:104DD0009FFE24E040F613000390FEF7ADFE03981B
:104DE000FEF796FE1BE040F614000290FEF7A4FECC
:104DF0000298FEF78DFE12E040F61E000190FEF7CD
:104E00009BFE0198FEF784FE09E040F61F0000902B
:104E1000FEF792FE0098FEF77BFE00E0FFE70AB087
:104E200080BD000081B000900099C86840F4005037
:104E3000C86001B07047000083B00190ADF8021067
:104E40000198BDF8021089094058BDF8021001F020
:104E50001F01C840C00720B1FFE701208DF80B00FB
:104E600003E000208DF80B00FFE79DF80B0003B076
:104E70007047000082B0019000910199C86820F449
:104E80000040C860009A0199C8681043C86002B029
:104E90007047000082B0019000910199C86820F429
:104EA000C060C860009A0199C8681043C86002B029
:104EB0007047000083B0029001910020009002989A
:104EC000C0680090009820F00400009001990098BC
:104ED0000843009000980299C86003B07047000032
:104EE00082B0019000910199086920F44050086156
:104EF000009A019908691043086102B070470000E8
:104F000083B002900191002000900298C068009048
:104F1000009820F008000090019900980843009044
:104F200000980299C86003B07047000082B00190F9
:104F300000910199C86820F48050C860009A0199D6
:104F4000C8681043C86002B0704700000FB4054B3A
:104F500010B503A9044A029800F01CF910BC5DF8D2
:104F600014FB0000313200080000002000B52DEDD8
:104F7000048BB0EE409AF0EE609A83B051EC190BBE
:104F8000FBF7B2FB41EC180B18EE100A18EE901A62
:104F90008DED008B002818BF0120084320F0004051
:104FA000C0F17F6000F1E040C00F14D019EE101A7C
:104FB00019EE900A8DED009B002918BF01210843CE
:104FC00020F00040C0F17F6000F1E040C00F04BF5E
:104FD000012000F017F8B0EE480A03B0F0EE680ABE
:104FE000BDEC048B00BD02E008C8121F08C1002AF6
:104FF000FAD170477047002001E001C1121F002A5A
:10500000FBD1704701490860704700000400002090
:105010002DE9FF5F82B00021DDE90430020DDDF8EB
:1050200040B0034318D044F61050A2F2FF3242437E
:105030001514119801281FD0A5EB0B00401C5FEA46
:10504000000A4FF000064E4FDFF83891B046504648
:1050500015D5CAF1000413E0119801244AA30128D0
:1050600001D16FEA0B010298119AC0E90031C0E941
:10507000024206B0BDE8F09FCBF10000DFE7044636
:105080000021404A491842EB0450CDE9001012E0DB
:10509000E00707D032463B4640464946FBF790F8CA
:1050A0008046894632463B4610461946FBF788F84B
:1050B00006460F466410002CEAD1DDE90401DDE963
:1050C0000023BAF1000F06DAFBF77AF842464B46A6
:1050D000FBF776F805E0FBF7E5F842464B46FBF7B1
:1050E000E1F804460E460022284BFBF767FB03D885
:1050F0004FF0FF30014607E00022254B20463146A5
:10510000FBF74BFAFBF741FB102409E0002C0ADB0C
:105110000A220023FBF7A3F9039B30321A55641EC1
:1051200050EA0102F2D1641C039AC4F11103144441
:10513000119A012A03D0012208430DD10AE0084345
:1051400004D000204FF0110B119072E7A3EB0B0578
:105150006D1E0DE05B4504DD4FF0000205F1010519
:1051600004E003DA4FF00002A5F10105002AECD0BB
:1051700002981199C0E90231C0E9004579E70000C1
:10518000000014400000F03F300000000000F04339
:105190000000E03F2DE9FF4F95B09B46894606464B
:1051A00000250FE2252877D100242746F84A01215F
:1051B000059400E0044316F8013F203B01FA03F098
:1051C0001042F7D130782A2811D06FF02F033078B1
:1051D000A0F13002092A16D8059A44F0020402EB25
:1051E000820203EB42021044761C0590EFE759F867
:1051F000042B0592002A03DA504244F4005405902F
:1052000044F00204761C30782E2816D116F8010FCF
:1052100044F004042A280DD06FF02F023078A0F15A
:105220003003092B09D807EB870302EB4303C718A8
:10523000761CF3E759F8047B761C30786C280FD085
:1052400006DC4C2817D068280DD06A2814D104E059
:10525000742810D07A280FD10DE044F400140AE02D
:1052600044F4801401E044F440147278824202D184
:1052700004F58014761C761C307866280BD013DC7D
:10528000582877D009DC002875D04528F6D0462864
:10529000F4D047281AD19DE118E0632835D064285E
:1052A00079D0652812D195E1702873D008DC672881
:1052B000F1D069286FD06E280DD06F2806D1B5E0E7
:1052C00073282CD0752875D0782874D05A46179931
:1052D00090476D1C75E1C4F30250022809D00328E1
:1052E0000DD0D9F8001004280DD00D6009F1040983
:1052F00067E1D9F80010EA17C1E90052F6E7D9F8DA
:1053000000100D80F2E70D70F0E719F8041B8DF81E
:10531000001000208DF80100EA46012003E059F852
:1053200004AB4FF0FF3061074FF0000102D40DE0F5
:1053300008F101018846B9420FDA8045F8DB1AF816
:1053400008100029F4D108E008F1010188468142E3
:10535000FADB1AF808100029F6D105985B46A0EB95
:10536000080721463846179A00F094FA284400EBC3
:10537000080507E04DE029E10DE01AF8010B5A4657
:1053800017999047B8F10108F7D25B462146384695
:10539000179A13E142E00A220092C4F302524FF03E
:1053A000000A022A08D059F804CB032A4FEAEC710C
:1053B0000AD00DE029E02AE009F1070121F00702F7
:1053C000F2E802C1914609E00FFA8CFC4FEAEC7159
:1053D000042A03D14FFA8CFC4FEAEC71002907DA5A
:1053E0000A460021DCF1000C61EB02012D2202E0F3
:1053F000220504D52B228DF80420012203E0E207C8
:1054000001D02022F7E7904659E00A2102E010225D
:105410000DE010214FF0000A00910BE010224FF038
:10542000000A44F004040827009203E008224FF029
:10543000000A0092C4F30252022A05D059F804CBA4
:105440000021032A08D009E009F1070121F0070231
:10545000F2E802C1914605E01FFA8CFC042A01D152
:105460000CF0FF0C4FF00008220728D5702806D05A
:10547000009B83F0100353EA0A0305D00EE040229C
:105480008DF80420012208E05CEA010206D03022F7
:105490008DF804208DF8050002229046009B83F0D1
:1054A000080353EA0A030AD15CEA010201D1620748
:1054B00005D530228DF804204FF001087F1E5828B2
:1054C00004D034A003900EA802900DE036A0F9E7B6
:1054D00053466046009AFAF7C2FF84460398825CFE
:1054E0000298401E029002705CEA0100F0D102981E
:1054F00006A9081A00F1200A600702D524F48034B6
:1055000000E00127574502DDA7EB0A0000E000207C
:1055100000EB0A01009005984144401A0590E00311
:1055200006D45B462146179A059800F0B3F9054466
:10553000002706E001A85A46C05D179990476D1CE8
:105540007F1C4745F6DBE0030CD55B462146179AE6
:10555000059800F09FF9054404E030205A46179959
:1055600090476D1C0099481E00900029F5DC08E06A
:10557000029802995A460078491C0291179990475F
:105580006D1CBAF10001AAF1010AF1DC65E100002D
:105590000928010030313233343536373839616209
:1055A00063646566000000003031323334353637CD
:1055B00038394142434445460000000000F058F9A4
:1055C0000544761C307800287FF4ECAD19B02846ED
:1055D000BDE8F08F620700D4062709F1070222F028
:1055E000070CFCE80223E14603F000485FEA080CE0
:1055F00002D00FF2702C0DE05FEA045C02D50FF2CE
:10560000682C07E05FEAC47C02D00FF2602C01E056
:10561000AFF2700C4FF0FF3823F00043CDF850C0CC
:1056200065280CD006DC452809D046281DD047281F
:105630003DD13DE0662818D067287ED138E00021B2
:10564000112F01DB112000E0781CCDE9000106A933
:105650000EA8FFF7DDFCDDE90F010E9A0391002192
:10566000009207F1010A04914DE04FF000400097CD
:10567000CDE9011006A90EA8FFF7CAFCDDE90F026B
:1056800003920E9B11990022DDF80CA00093049266
:1056900011B9791C00EB010AB7EB0A0004D4C0F180
:1056A000FF3007F1010A0490AAEB0700019044E0E3
:1056B000012F00DA01270021112F01DD112000E068
:1056C0003846CDE9000106A90EA8FFF7A1FCDDE9E7
:1056D0000F010E9A0391002104910092BA4621070E
:1056E0000CD40399514500DA8A46BAF1010F05DD61
:1056F000009AAAF10101515C302908D0B84202DABF
:1057000010F1040F06DA0121CDE9011015E0AAF12C
:105710000101E9E7002805DC049901440491AAEBA2
:10572000000102E0411C514500DD8A460499401AFF
:10573000401C01904FF000400290200704D40198D3
:10574000504501DBCDF8048000208DF84F00029811
:105750000DF14F07B0F1004F25D02B200E9002988D
:105760004FF0020800280CDA404202902D200E90E3
:1057700007E00A210298FAF75CFE3031029007F840
:10578000011DB8F10001A8F10108F2DC029800281F
:10579000EFD1791E0E980870307800F0200040F0AC
:1057A000450007F8020D12A8C01B00F10708149865
:1057B000007800B1012000EB0A01019801EBE071D3
:1057C00005984144401A401E0590E00306D45B460C
:1057D0002146179A059800F05DF805441498007862
:1057E00018B15A46179990476D1CE00324D55B46C3
:1057F0002146179A059800F04DF805441CE00498DE
:10580000002807DBDDE90301884203DD0098405CE6
:10581000179901E0179930205A469047049805F1EE
:105820000105401C04900198401E019004D12E20D7
:105830005A46179990476D1CBAF10001AAF1010A66
:10584000DDDC05E017F8010B5A46179990476D1CEF
:10585000B8F10001A8F10108F4DC5B462146179A73
:105860000598ABE62D0000002B0000002000000092
:105870002DE9F041044600251E461746880404D44D
:1058800005E039462020B0476D1C641EF9D5284636
:10589000BDE8F0812DE9F041044600251E46904602
:1058A000C80301D5302700E02027880404D505E08F
:1058B00041463846B0476D1C641EF9D52846BDE800
:1058C000F0810000000000004000000080000000A7
:1058D0001000000020000000001000000020000068
:1058E0000040000000800000008000000004000074
:1058F000000800000010000000000000000002404E
:10590000000002400008024000080240000402407B
:105910000004024000040240000402400000024073
:105920000008024000080240000802400000000099
:10593000F807002098080020C0080020E808002090
:105940001009002038090020600900208809002083
:10595000B00900202008002048080020700800201E
:10596000000000000004004000100040001400404F
:105970000000004000400140004401400048014058
:1059800000180040001C00400020004000040140BE
:1059900000040140000000000100000001000000C0
:1059A00001000000010000000100000001000000F3
:1059B00001000000010000000100000001000000E3
:1059C000080000001000000000000000F8070020A0
:1059D00098080020C0080020E808002010090020D6
:1059E000380900206009002088090020B009002043
:1059F0002008002048080020700800200000000057
:105A0000000400400010004000140040000000406E
:105A1000004001400044014000480140001800409F
:105A2000001C004000200040000401400004014030
:105A30000000000001000000010000000100000063
:105A40000100000001000000010000000100000052
:105A5000010000000100000001000000080000003B
:105A60001000000000000000F80700209808002047
:105A7000C0080020E8080020100900203809002094
:105A80006009002088090020B009002020080020BB
:105A9000480800207008002000000000000C0040B2
:105AA0000000014000080040000001000200030067
:105AB0004D6F74456E636F646572313020202564CC
:105AC0000A004D6F74456E636F646572313120203A
:105AD00025640A004D6F74456E636F6465723120F2
