:020000040800F2
:10000000E00D00209D01000845140008FD090008CE
:10001000250A0008550800085926000800000000BD
:10002000000000000000000000000000B5140008FF
:10003000C1080008000000008D140008D915000850
:10004000B7010008B7010008B7010008B7010008B0
:10005000B7010008B7010008B7010008B7010008A0
:10006000B7010008B7010008B7010008B701000890
:10007000B7010008B7010008B7010008B701000880
:10008000B7010008B7010008B7010008B701000870
:1000900059080008B7010008B7010008B7010008B7
:1000A0002D1700087517000851170008B701000840
:1000B00099170008AD170008B7010008B70100083C
:1000C000B7010008B7010008B7010008B701000830
:1000D000B7010008B7010008B7010008B701000820
:1000E000B7010008B7010008B701000801180008AF
:1000F000D1180008B118000825180008B701000839
:10010000B7010008B7010008B7010008B7010008EF
:10011000B7010008B7010008C1170008E11700087F
:10012000B7010008B7010008B7010008B7010008CF
:10013000B7010008B7010008B7010008B7010008BF
:10014000B7010008B7010008B7010008B7010008AF
:10015000B7010008B7010008B7010008B70100089F
:10016000B7010008B7010008B7010008B70100088F
:10017000B7010008B7010008B7010008000000003F
:10018000B7010008B7010008DFF80CD000F02EFB23
:100190000048004705320008E00D0020064880476F
:1001A00006480047FEE7FEE7FEE7FEE7FEE7FEE75C
:1001B000FEE7FEE7FEE7FEE7FD15000889010008FF
:1001C0002DE9FE4F81EA030404F0004421F00041D0
:1001D00000944FF0000B23F0004350EA01045ED07E
:1001E00052EA03045BD0C3F30A54C1F30A552C440A
:1001F000A4F2F3340194A0FB0254C1F3130141F4BF
:100200008011C3F3130343F4801301FB024400FB8A
:10021000034E840A970A44EA815447EA8357A4FBB1
:10022000076802958D0A05FB07854FEA932C04FBAE
:100230000C542705029D4FEA065847EA1637B5EBDE
:1002400008056EEB070C870E920E47EA811742EA0B
:100250008312A7FB0201B6EB0B0164EB00042B0D2C
:1002600043EA0C335E1844EB1C50DA465146E7FB78
:100270000201C5F313044FEA0B3343EA14534FEA68
:100280000432019C43EA0603A4F10C040294009C8E
:10029000CDE900B400F033F903B0BDE8F08F0020E1
:1002A0000146F9E72DE9F04D81EA030404F0004B23
:1002B00021F0004514464FF0000A23F0004150EAB7
:1002C000050220D054EA01021DD0C5F30A570246A8
:1002D000C5F31303C1F31300C1F30A5640F48015AC
:1002E00043F48013A7EB0608101BD64608F2FD382E
:1002F00073EB050002D308F1010801E092185B419D
:10030000B8F1000F03DA00200146BDE8F08D0020AF
:100310004FF48011064684460EE0171B73EB050769
:1003200005D3121B63EB050306434CEA010C490895
:100330004FEA300092185B4150EA0107EDD152EAD2
:10034000030012D082EA040083EA0501084305D0C5
:10035000101BAB4106D20122002306E000224FF021
:10036000004302E06FF0010253101AEB06004CEB61
:10037000085110EB0A0041EB0B01BDE8F04D00F015
:10038000AFB80EB540F2334102910021CDE9001122
:100390000A460B4600F0B3F803B000BD70B5C1F3D8
:1003A0000A5201F000450024C1F3130140F2FF336B
:1003B00041F480119A4201DA002070BD40F23343CB
:1003C0009A42A2F2334203DC524200F079F800E094
:1003D00090402C43F1D0404270BDC1F30A5210B599
:1003E000C1F3130140F2FF3341F480119A4201DA64
:1003F000002010BD40F233439A42A2F2334203DCA4
:10040000524200F05DF810BD904010BD00F0004277
:1004100030F000400AD0C10D01F56071C0F3160044
:1004200042EA0151C20840071143704700200146CB
:10043000704730B50B46014600202022012409E018
:1004400021FA02F59D4205D303FA02F5491B04FA8D
:1004500002F52844151EA2F10102F1DC30BD2DE9A0
:10046000F05F0546002092469B4688460646814638
:1004700040241BE0284641464746224600F020F82B
:1004800053465A46C01A914110D311461846224687
:1004900000F0BEF92D1A67EB01084F4622460120F5
:1004A000002100F0B5F917EB00094E41201EA4F120
:1004B0000104DFDC484631462A464346BDE8F09F4A
:1004C000202A04DB203A21FA02F00021704721FAA9
:1004D00002F3D040C2F12002914008431946704710
:1004E00010B5141E73F1000408DA401C41F100013C
:1004F00092185B411A4301D120F0010010BD2DE993
:10050000F04D92469B4611B1B1FA81F202E0B0FA89
:1005100080F22032904600F07BF904460F4640EA14
:100520000A0041EA0B0153465A46084313D01146CC
:1005300053EA010019D0C8F140025046FFF7C0FF4E
:1005400005460E4650465946424600F061F90843BA
:1005500005D0012004E020463946BDE8F08D00209A
:10056000054346EAE0762C4337430A986305E40ADC
:10057000A0EB08000022FD0A44EA47540A3002D5E5
:1005800000200146E9E7010510196941DDE9084548
:1005900000196941BDE8F04DA2E72DE9FE4F804604
:1005A00081EA0300C00F0C46009021F0004123F0C7
:1005B0000045B8EB0200A94105D2404621469046CD
:1005C0001C460B46024623F00040104347D0270D3F
:1005D000C7F30A00C3F30A510290401A0190402861
:1005E0006BDAC3F3130040F4801B0098924620B1ED
:1005F0000023D2EB030A63EB0B0B01985946C0F1C1
:100600004002504600F004F906460D465046594651
:10061000019A00F00CF910EB08006141002487EA10
:10062000115284EAE7731A4340D0009A62B3019AE8
:10063000012A4FEA075215DC001B61EB02014FF063
:10064000004202EA0752CDE90042001C41F5801148
:1006500032462B46FFF753FF03B0BDE8F08F40460C
:100660002146F9E7001B61EB0201001C41F58013F4
:1006700000185B412018A2F5001747EB030140EA80
:10068000D570B6196D4111E06D084FEA360645EA9E
:10069000C0754FEA0752001B61EB0201001C41F5D7
:1006A000801149084FEA30000019514132462B466B
:1006B00003B0BDE8F04FFFF713BF009801224000E0
:1006C0000023D0EB020263EBE073009821464FEA6F
:1006D000E074B8EB000061EB0401E9E783F000434C
:1006E0005BE781F0004158E72DE9F04D00231A4601
:1006F0001B1A8A4103DB00200146BDE8F08DC1F3DF
:100700000A52C1F3130141F480154FF0000BD107D9
:1007100002D100186D41521E0027044640F2FF111D
:10072000384601EB620A3E468046024600204FF4FE
:100730008011FFF7C5FEC2197141BB1846EB0100DD
:10074000B4EB030C75EB000C04D3E41A65EB000565
:1007500017460E46241908F101006D4180463428E1
:10076000E3DDF91946EB0600091BA84103D24FF05F
:10077000FF32134601E0002213461BEB070046EB55
:100780000A51BDE8F04DFFF7ABBEC1F30A52C1F309
:10079000130140F2FF3341F480119A4202DA002043
:1007A0000146704740F233439A42A2F2334202DCE0
:1007B0005242FFF785BE00F02BB8000030B5041E92
:1007C00071F1000404DB4FF00044404264EB01018E
:1007D000141E73F1000405DB1C464FF00043524227
:1007E00063EB0403994208BF904230BD064C074DAD
:1007F00006E0E06840F0010394E8070098471034F1
:10080000AC42F6D3FFF7C4FC8C540008AC5400088B
:10081000202A04DB203A00FA02F1002070479140C0
:10082000C2F1200320FA03F3194390407047202AB5
:1008300006DBCB17203A41FA02F043EAE07306E008
:1008400041FA02F3D040C2F1200291400843194618
:1008500070470000FFE7FEE780B588B046F2004031
:10086000C4F200004CF2810102F070F900B3FFE71E
:1008700046F20040C4F200000290002103AA02F0F8
:10088000BBF90399049A059B0698DDF81CE0EC4639
:10089000CCF804E0CCF8000040F2E470C2F20000B2
:1008A00000F03AF802984CF2810102F041F9FFE7BA
:1008B00008B080BD80B502F019F801F0CFFE80BD10
:1008C0007047000080B582B040F6024002F042FE60
:1008D00041F20E1002F03EFE40F60000C4F20200AB
:1008E0000090002201920123114602F0D9FB0098EA
:1008F000019A0223114602F0D3FB0098019A0423C7
:10090000114602F0CDFB0098019A0823114602F02F
:10091000C7FB02B080BD0000B0B588B0DDF834E0A0
:10092000DDF830C0CDF818E0CDF814C00493039280
:1009300002910190019800F0ABFD18B1FFE7002093
:10094000079020E001994868CC6800EB800504EB33
:100950008501DDF818C0DDF808E00398049A059BCE
:1009600044F825E0C1F810C0CB608A604860019966
:1009700048688A68431CB3FBF2F000FB1230486001
:1009800001200790FFE7079808B0B0BD80B582B09E
:1009900000208DF8070040F60000C4F2020000902D
:1009A000012102F067FB024600989DF807101143F1
:1009B0008DF80710022102F05DFB024600989DF8B9
:1009C000071041EA42018DF80710042102F052FBA2
:1009D000024600989DF8071041EA82018DF8071041
:1009E000082102F047FB01469DF8070040EAC100DC
:1009F0008DF807009DF8070002B080BDFFE7FEE715
:100A000083B002900191009202990020086002993F
:100A1000486000980299886001980299C86003B004
:100A200070470000FFE7FEE780B590B040F6014058
:100A300002F090FD40F6024002F08CFD4FF4406061
:100A400002F088FD41F20E1002F084FD0020C4F295
:100A50000200089000220E9240230193114602F0FA
:100A60006DFB08980E9A80230293114602F066FBF4
:100A70000E9A40F60000C4F202000C90102303937B
:100A8000114602F05BFB0C980E9A2023049311464A
:100A900002F054FB0E9A40F20040C4F202000790AC
:100AA0004FF480530F93114602F048FB07980E9ABB
:100AB0004FF400530593114602F040FB07980E9A3D
:100AC0004FF480430693114602F038FB07980E9AC4
:100AD0004FF400430993114602F030FB0898099B3C
:100AE0000E9A114602F02AFB0C980E9A4FF480637E
:100AF0000A93114602F022FB0C980E9A4FF4006301
:100B00000B93114602F01AFB0C980E9A0F9B11469C
:100B100002F014FB019B08980E9A01210D9102F03E
:100B2000BFFA029B08980D990E9A02F0B9FA039B3E
:100B30000C980D990E9A02F0B3FA049B0C980D993B
:100B40000E9A02F0ADFA07980D990E9A0F9B02F0DB
:100B5000A7FA059B07980D990E9A02F0A1FA069B39
:100B600007980D990E9A02F09BFA0798099B0D9928
:100B70000E9A02F095FA0898099B0D990E9A02F0C8
:100B80008FFA0A9B0C980D990E9A02F089FA0B9B2A
:100B90000C980D990E9A02F083FA0C980D990E9A02
:100BA0000F9B02F07DFA10B080BD000080B58AB0C6
:100BB0008DF826008DF82510ADF822200020ADF824
:100BC0002000E320ADF81E0045F26043C0F60003AC
:100BD000186859689A68DB68069305920491039037
:100BE00045F27041C0F60001086849680291019021
:100BF0009DF82600A0B1FFE79DF8250080B1FFE732
:100C00009DF826000C280BDCFFE79DF825000C283A
:100C100006DCFFE7BDF82200B0F5FA6F04DDFFE760
:100C2000FF208DF8270031E0BDF82200BDF81E102E
:100C3000084400F6B830ADF820009DF826008DF885
:100C40000300FFE79DF803009DF82510884219DC9A
:100C5000FFE79DF80300411E01EB917020F00302B5
:100C600003A8104440688A1A01A931F81210BDF88F
:100C7000202003F0D9F9FFE79DF8030001308DF83B
:100C80000300DFE700208DF82700FFE79DF927002C
:100C90000AB080BD10B59EB08DF876008DF8751045
:100CA00045F22830C0F60000019001684268836870
:100CB000D0F80CC0D0F810E044691594CDF850E09D
:100CC000CDF84CC01293119210918169C269036AE8
:100CD000D0F824C0D0F828E0C46A1B94CDF868E0AE
:100CE000CDF864C0189317921691006B1C9045F2D2
:100CF000F420C0F600000290016842688368D0F8D2
:100D00000CC0D0F810E044690894CDF81CE0CDF890
:100D100018C00593049203918169C269036AD0F8EF
:100D200024C0D0F828E0C46A0E94CDF834E0CDF8A1
:100D300030C00B930A920991006B0F909DF87600DA
:100D40000C280DDCFFE79DF8760048B1FFE79DF821
:100D50007500012808D0FFE79DF8750020B1FFE776
:100D6000FF208DF877001FE09DF8750060B1FFE768
:100D70009DF8762010A850F8220003A951F82210FF
:100D8000002202F053F90BE09DF8762010A850F8ED
:100D9000220003A951F82210012202F047F9FFE7CF
:100DA00001208DF87700FFE79DF977001EB010BD98
:100DB00080B584B08DF80F008DF80E109DF80F00EF
:100DC00001460291032840D80299DFE801F022028F
:100DD0000D189DF80E2041F20000C4F202004FF4FD
:100DE000806102F023F931E09DF80E2041F200000D
:100DF000C4F202004FF4805102F018F926E09DF889
:100E00000E2040F60040C4F20200012102F00EF96B
:100E10001CE09DF80E2041F20000C4F20200019097
:100E20004FF4806102F002F901989DF80E204FF412
:100E3000805102F0FBF89DF80E2040F60040C4F20D
:100E40000200012102F0F2F800E0FFE7012004B007
:100E500080BD000080B582B040F6044002F07AFB0D
:100E600040F6014002F076FB4FF4406002F072FB66
:100E700041F20E1002F06EFB41F20000C4F20200DB
:100E8000002201924FF40043114602F009F9019A41
:100E900040F20040C4F202004FF48063114602F0B9
:100EA000FFF8019A0020C4F202004FF4807311464B
:100EB00002F0F6F802B080BD80B588B040F604407C
:100EC00002F048FB41F20E1002F044FB41F2000038
:100ED000C4F20200049000220692202300931146DF
:100EE00002F02CF90498069A40230193114602F06F
:100EF00025F90498069A08230293114602F01EF978
:100F00000498069A10230393114602F017F90498E7
:100F1000069A01230593114602F010F90498069AE7
:100F200002230793114602F009F9009B04980599E2
:100F3000069A02F0B5F8019B04980599069A02F00A
:100F4000AFF8029B04980599069A02F0A9F8039B52
:100F500004980599069A02F0A3F80498059B069A4E
:100F6000194602F09DF804980599069A079B02F02D
:100F700097F808B080BD000080B588B08DF81E00DD
:100F80008DF81D109DF81D00042804DBFFE7FF20ED
:100F90008DF81F0077E09DF81D0000F001008DF82E
:100FA0001C009DF81D00C0F340008DF81B009DF84B
:100FB0001E0001460591032860D80599DFE801F07D
:100FC000350213249DF81C2041F20000C4F20200F7
:100FD0000490202102F02AF804989DF81B2040215B
:100FE00002F024F84BE09DF81C2041F20000C4F20E
:100FF00002000390082102F019F803989DF81B20C5
:10100000102102F013F83AE09DF81C2041F2000094
:10101000C4F202000290012102F008F802989DF843
:101020001B20022102F002F829E09DF81C2041F269
:101030000000C4F202000190202101F0F7FF0198A6
:101040009DF81B20402101F0F1FF01989DF81C2024
:10105000082101F0EBFF01989DF81B20102101F001
:10106000E5FF01989DF81C20012101F0DFFF0198A8
:101070009DF81B20022101F0D9FF00E0FFE70120CD
:101080008DF81F00FFE79DF91F0008B080BD00002C
:1010900080B586B040F6044002F05CFA40F60340AA
:1010A00002F058FA41F20E1002F054FA41F2000038
:1010B000C4F202000290002200924FF48063019378
:1010C000114602F03BF8009A02984FF480530393C4
:1010D000114602F033F8009A40F60040C4F20200D4
:1010E000049001230593114602F028F8019B029811
:1010F000059A114601F0D4FF0298039B059A114608
:1011000001F0CEFF0498059B19461A4601F0C8FF6E
:1011100001990298059A01F089FF02980399059AAE
:1011200001F084FF0498059A114601F07FFF06B094
:1011300080BD000010B5A0B08DF87E008DF87D1048
:1011400045F25C30C0F60000029001684268836896
:10115000D0F80CC0D0F810E044691794CDF858E0EE
:10116000CDF854C01493139212918169C269036A35
:10117000D0F824C0D0F828E0C46A1D94CDF870E0FF
:10118000CDF86CC01A9319921891006B1E9045F21D
:101190009030C0F600000390016842688368D0F880
:1011A0000CC0D0F810E044690A94CDF824E0CDF8E2
:1011B00020C00793069205918169C269036AD0F83D
:1011C00024C0D0F828E0C46A1094CDF83CE0CDF8F3
:1011D00038C00D930C920B91006B11909DF87E001E
:1011E00070B1FFE79DF87D0050B1FFE79DF87E00EC
:1011F0000C2805DCFFE79DF87D000D2804DBFFE7E8
:10120000FF208DF87F0052E09DF87E008DF81300DE
:10121000FFE79DF813009DF87D10884243DCFFE74F
:101220009DF8132012A8019050F8220005A951F84A
:10123000221003F0FFF801989DF8131050F82100D8
:1012400003F05AF89DF813000B280BD1FFE740F686
:101250000000C4F20200002102224FF4807301F06A
:101260006DFF19E09DF813000C280BD1FFE740F645
:101270000000C4F20200002102224FF4007301F0CA
:101280005DFF08E09DF8131012A850F8210001211D
:1012900002F018FDFFE7FFE7FFE79DF813000130BC
:1012A0008DF81300B5E700208DF87F00FFE79DF96A
:1012B0007F0020B010BD000010B5A0B08DF87E00FA
:1012C0008DF87D1045F2C430C0F600000290016830
:1012D00042688368D0F80CC0D0F810E044691794D5
:1012E000CDF858E0CDF854C014931392129181694F
:1012F000C269036AD0F824C0D0F828E0C46A1D94FB
:10130000CDF870E0CDF86CC01A9319921891006B6B
:101310001E9045F2F830C0F6000003900168426864
:101320008368D0F80CC0D0F810E044690A94CDF876
:1013300024E0CDF820C00793069205918169C26927
:10134000036AD0F824C0D0F828E0C46A1094CDF81D
:101350003CE0CDF838C00D930C920B91006B1190CE
:101360009DF87E0070B1FFE79DF87D0050B1FFE76A
:101370009DF87E000C2805DCFFE79DF87D000D2818
:1013800004DBFFE7FF208DF87F0056E09DF87E002C
:101390008DF81300FFE79DF813009DF87D1088423B
:1013A00047DCFFE79DF8132012A8009050F82200B8
:1013B00005A9019151F8221003F032F80098019923
:1013C0009DF8132050F8220051F8221003F03CF849
:1013D0009DF813000B280BD1FFE740F60000C4F284
:1013E0000200012102224FF4807301F0A7FE19E0F0
:1013F0009DF813000C280BD1FFE740F60000C4F263
:101400000200012102224FF4007301F097FE08E070
:101410009DF8131012A850F82100002102F052FC90
:10142000FFE7FFE7FFE79DF8130001308DF8130099
:10143000B1E700208DF87F00FFE79DF97F0020B025
:1014400010BD00007047000082B08DF807000091C9
:101450009DF90700B0F1FF3F0CDCFFE700980001A9
:101460009DF8071001F00F014EF61452CEF2000263
:10147000885409E0009800019DF907104EF20042DF
:10148000CEF200028854FFE702B0704770470000B8
:1014900081B00090009A116850689268431CB3FBB9
:1014A000F2F000FB1230401AB0FA80F0400901B0AF
:1014B000704700007047000080B588B040F60140DA
:1014C00002F048F840F6034002F044F841F20E10F2
:1014D00002F040F840F20040C4F202000090002206
:1014E000079280230193114601F0DAFD0098079AD4
:1014F00040230293114601F0D3FD0098079A202360
:101500000393114601F0CCFD0098079A1023049331
:10151000114601F0C5FD0098079A0823059311466E
:1015200001F0BEFD019B079A40F60040C4F20200A4
:101530000690114601F0B4FD029B0698079A1146E9
:1015400001F0AEFD039B0698079A114601F0A8FD35
:10155000049B0698079A114601F0A2FD059B069888
:10156000079A114601F09CFD0698079A042311463C
:1015700001F096FD0698079A0223114601F090FDAE
:1015800008B080BD80B582B0009000980138B0F1FD
:10159000807F03D3FFE70120019019E00098013814
:1015A0004EF21401CEF2000108604FF0FF300F211F
:1015B000FFF74AFF4EF21801CEF20001002008604A
:1015C0004EF21002CEF20002072111600190FFE7F7
:1015D000019802B080BD000080B540F2F471C2F203
:1015E000000108680130086040F2E071C2F20001B9
:1015F00008880130088001F07DFC80BD80B582B094
:101600004EF68851CEF200010A6843F6080042F413
:101610007002C4F202000A6050F8081C41F0010197
:1016200040F8081C50F8081C8907FBD5016841F0F8
:101630008001016000210191019A4F2A06D800BF64
:10164000019A01320192019A502AF9D3026842F0BC
:1016500090020260019101994F2905D80199013149
:10166000019101995029F9D301684FF6FF7221F0D9
:101670000301016050F8081CCFF6F662114040F8F3
:10168000081C50F8081C21F4802140F8081C002197
:101690000160026843F21002C2F2004240F8042CDA
:1016A000416002F0E7FA02B080BD000080B582B070
:1016B000ADF8060040F2F470C2F200000068BDF818
:1016C000061088420ED3FFE741F20000C4F2020088
:1016D000042101F0A3FC40F2F471C2F200010020E9
:1016E0000860FFE702B080BD80B582B040F6D81137
:1016F000C2F2000108780130087040F6E801C2F239
:1017000000010191042001F07DFF019881884FF0D4
:10171000804002F0D7FA41F20000C4F202004FF418
:10172000807101F07BFC002002B080BD80B540F6E6
:101730000040C4F202004FF4807101F06FFC44F2EB
:101740000000C4F20100012102F07EFE80BD000015
:1017500080B540F60040C4F202004FF4806101F011
:101760005DFC44F60000C4F20100012102F06CFEB1
:1017700080BD000080B540F60040C4F202004FF486
:10178000007101F04BFC44F20040C4F20100012161
:1017900002F05AFE80BD000080B54FF0804001216C
:1017A00002F052FEFFF7A0FF80BD000080B540F2BE
:1017B0000040C4F20000012102F046FE80BD00009E
:1017C00080B540F20040C4F20200022101F026FC84
:1017D00041F20000C4F20000012102F035FE80BD9C
:1017E00080B541F20000C4F20200802101F016FC35
:1017F00041F20040C4F20000012102F025FE80BD4C
:1018000080B540F60040C4F202004FF4006101F0E0
:1018100005FC41F60000C4F20000012102F014FEB4
:1018200080BD000080B584B040F20040C4F20100E9
:10183000082102F013FEC0B1FFE740F20040C4F2FD
:101840000100029002F05AFC01460298ADF80E1019
:10185000BDF80E1001F5FA718AB2022102F0E4FB24
:101860000298082102F0F0FDFFE740F20040C4F2C8
:101870000100102102F0F2FDC0B1FFE740F200408C
:10188000C4F20100019002F039FC01460198ADF864
:101890000C10BDF80C1001F5FA718AB2032102F0A8
:1018A000C3FB0198102102F0CFFDFFE704B080BD1B
:1018B00080B540F60000C4F20200802101F0AEFBCA
:1018C00042F20000C4F20000012102F0BDFD80BD23
:1018D00080B540F60000C4F20200402101F09EFBFA
:1018E00041F60040C4F20000012102F0ADFD80BDD0
:1018F00080B582B0012001900021FFF759FA0198CC
:101900000221FFF739FB01980C214FF47A72FFF79F
:101910004DF902B080BD000080B584B040F60340B0
:1019200001F018FE40F60040C4F2020001900121CF
:10193000002202924FF48063039301F0B1FB0198FF
:101940000299039B022201F0F9FB04B080BD000064
:1019500080B584B040F6034001F0FCFD40F6004045
:10196000C4F2020001900121002202924FF40063B0
:10197000039301F095FB01980299039B022201F069
:10198000DDFB04B080BD000080B584B040F60240AD
:1019900001F0E0FD40F60000C4F2020001900121D8
:1019A000002202924023039301F07AFB01980299EE
:1019B000039B022201F0C2FB04B080BD80B584B05D
:1019C00040F6024001F0C6FD40F60000C4F20200FD
:1019D00001900121002202928023039301F060FB19
:1019E00001980299039B022201F0A8FB04B080BD7C
:1019F00080B584B040F6044001F0ACFD41F2000037
:101A0000C4F2020001900121002202924FF480737F
:101A1000039301F045FB01980299039B022201F018
:101A20008DFB04B080BD000080B584B040F601405D
:101A300001F090FD40F20040C4F20200019000224B
:101A4000029201230393194601F02AFB019802999F
:101A5000039B022201F072FB04B080BD80B584B00C
:101A600040F6014001F076FD40F20040C4F2020071
:101A700001900121002202920223039301F010FB46
:101A800001980299039B1A4601F058FB04B080BDEF
:101A900080B584B040F6044001F05CFD41F20000E6
:101AA000C4F20200019001210022029280230393DC
:101AB00001F0F6FA01980299039B022201F03EFB25
:101AC00004B080BD80B586B040F6024001F042FD12
:101AD00040F60000C4F202000390022101910022AE
:101AE00000924FF48073029301F0DAFA009A0199A0
:101AF00003984FF40073059301F0D2FA0099019A0C
:101B0000029B039801F01AFB0099019A0398059B28
:101B100001F014FB029A03980321049101F014FAD6
:101B200003980499059A01F00FFA06B080BD0000F1
:101B300080B584B040F6034001F00CFD40F6004053
:101B4000C4F2020001900121002202924FF480733E
:101B5000039301F0A5FA01980299039B022201F078
:101B6000EDFA04B080BD000080B584B040F60340BB
:101B700001F0F0FC40F60040C4F2020001900121A7
:101B8000002202924FF40073039301F089FA019846
:101B90000299039B022201F0D1FA04B080BD00003B
:101BA00080B58EB04FF4885001F0D4FC4FF08070B7
:101BB00001F00CFD0020C4F20100069002F0A8FA2A
:101BC00000F086F8069801210591ADF81C1000215F
:101BD0000491ADF81E10ADF8201041F28732099241
:101BE000ADF822108DF8281007A902F08FFB049998
:101BF000059A0698ADF82C20ADF82E10022201921D
:101C0000ADF830200822ADF832204FF48072ADF8E4
:101C100034204FF40072ADF836200BAA009202F087
:101C200059F8009A0599069802F054F8009A01991B
:101C3000069802F04FF8009A06980321039102F0EB
:101C400049F8049A0698114602F0EEF904990698AC
:101C50006022029202F0A2F9049A0698114602F05C
:101C600007FA049A0599069802F0DEF9029A059996
:101C7000069802F093F9049A0599069802F0F8F98B
:101C80000199049A069802F0CFF90199029A0698F0
:101C900002F084F90199049A069802F0E9F903998F
:101CA000049A069802F0C0F9029A0399069802F085
:101CB00075F90399049A069802F0DAF905990698DD
:101CC00002F0EAFB069802F017FB0EB080BD0000A0
:101CD00080B588B040F6044001F03CFC41F20000C1
:101CE000C4F20200059002210191002200924FF4FB
:101CF0000073029301F0D4F9009A019905984FF40A
:101D00000063039301F0CCF9009A019905984FF410
:101D10000053049301F0C4F9009A019905984FF417
:101D20008043079301F0BCF90099019A029B059842
:101D300001F004FA0099019A039B059801F0FEF95D
:101D40000099019A049B059801F0F8F90099019A0D
:101D50000598079B01F0F2F9029A05980121069176
:101D600001F0F2F8039A0598069901F0EDF8049A4B
:101D70000598069901F0E8F805980699079A01F088
:101D8000E3F808B080BD000080B586B041F21210C3
:101D900001F0E0FB4FF0807001F018FC44F6000009
:101DA000C4F20100009002F031FB009802F0B0F99B
:101DB000FFF7B2FD0098C721ADF80810002101918E
:101DC000ADF80A10ADF80C100491ADF80E108DF8B6
:101DD000141002A902F09AFA009801F069FF009825
:101DE000012102F031FB019A1A20114601F05CFA40
:101DF00006B080BD80B586B041F2060001F0AAFBB6
:101E00004FF0807001F0E2FB41F60000C4F20000E8
:101E1000009002F0FBFA009802F07AF9FFF798FDC3
:101E20000098C721ADF8081000210191ADF80A1003
:101E3000ADF80C100491ADF80E108DF8141002A935
:101E400002F064FA009801F033FF0098012102F0DB
:101E5000FBFA019A2B20114601F026FA06B080BD4C
:101E600080B586B041F2070001F074FB4FF080703E
:101E700001F0ACFB41F60040C4F20000009002F01B
:101E8000C5FA009802F044F9FFF77EFD0098C721DB
:101E9000ADF8081000210191ADF80A10ADF80C1052
:101EA0000491ADF80E108DF8141002A902F02EFA6C
:101EB000009801F0FDFE0098012102F0C5FA019A98
:101EC0002C20114601F0F0F906B080BD80B586B037
:101ED00041F2080001F03EFB4FF0807001F076FB0C
:101EE00042F20000C4F20000009002F08FFA009865
:101EF00002F00EF9FFF762FD0098C721ADF8081057
:101F000000210191ADF80A10ADF80C100491ADF864
:101F10000E108DF8141002A902F0F8F9009801F0E3
:101F2000C7FE0098012102F08FFA019A2D20114678
:101F300001F0BAF906B080BD80B586B04FF480508C
:101F400001F008FB4FF0807001F040FB4FF0804043
:101F5000009002F05BFA009802F0DAF8FFF748FD13
:101F60000098C721ADF8081000210191ADF80A10C2
:101F7000ADF80C100491ADF80E108DF8141002A9F4
:101F800002F0C4F9009801F093FE0098012102F0DC
:101F90005BFA019A1C20114601F086F906B080BD5B
:101FA00080B586B041F2010001F0D4FA4FF08070A4
:101FB00001F00CFB40F20040C4F20000009002F07F
:101FC00025FA009802F0A4F8FFF72EFD0098C7212B
:101FD000ADF8081000210191ADF80A10ADF80C1011
:101FE0000491ADF80E108DF8141002A902F08EF9CC
:101FF000009801F05DFE0098012102F025FA019A97
:102000001D20114601F050F906B080BD80B58EB09C
:1020100041F2020001F09EFA4FF0807001F0D6FA12
:1020200040F60000C4F20000069002F071F800F0E3
:1020300081F8069801210191ADF81C10002105914D
:10204000ADF81E10ADF8201041F287320992ADF8BC
:1020500022108DF8281007A902F058F9019A059965
:102060000698ADF82C20ADF82E1002220292ADF8A1
:1020700030200822ADF832204FF48072ADF83420C1
:102080004FF40072ADF836200BAA009201F022FE48
:10209000009A0199069801F01DFE009A029906988F
:1020A00001F018FE009A06980321049101F012FE37
:1020B000059A0698114601F0B7FF05990698602227
:1020C000039201F06BFF059A0698114601F0D0FFCC
:1020D0000199059A069801F0A7FF0199039A0698BD
:1020E00001F05CFF0199059A069801F0C1FF029981
:1020F000059A069801F098FF0299039A069801F054
:102100004DFF0299059A069801F0B2FF0499059ACD
:10211000069801F089FF039A0499069801F03EFFA2
:102120000499059A069801F0A3FF069802F0E4F8D6
:102130000EB080BD80B588B040F6044001F00AFAC8
:1021400040F60040C4F202000590022106910022F0
:1021500001924FF48053029300F0A2FF019A059878
:1021600006994FF40053039300F09AFF019A0598E3
:1021700006994FF48043049300F092FF019A05986A
:1021800006994FF40043079300F08AFF0199029BE0
:102190000598069A00F0D2FF0199039B0598069ACC
:1021A00000F0CCFF0199049B0598069A00F0C6FF49
:1021B00001990598069A079B00F0C0FF029A0598BE
:1021C000069900F0C1FE039A0598069900F0BCFE3E
:1021D000049A0598069900F0B7FE05980699079AA3
:1021E00000F0B2FE08B080BD80B58EB041F20300B1
:1021F00001F0B0F94FF0807001F0E8F940F60040CE
:10220000C4F20000069001F083FF00F081F8069808
:1022100001210191ADF81C1000210591ADF81E10AF
:10222000ADF8201041F287320992ADF822108DF8F6
:10223000281007A902F06AF8019A05990698ADF8E6
:102240002C20ADF82E1002220292ADF83020082288
:10225000ADF832204FF48072ADF834204FF40072A4
:10226000ADF836200BAA009201F034FD009A0199D6
:10227000069801F02FFD009A0299069801F02AFDB8
:10228000009A06980321049101F024FD059A06980E
:10229000114601F0C9FE059906986022039201F0EB
:1022A0007DFE059A0698114601F0E2FE0199059A15
:1022B000069801F0B9FE0199039A069801F06EFEA6
:1022C0000199059A069801F0D3FE0299059A06989D
:1022D00001F0AAFE0299039A069801F05FFE0299A6
:1022E000059A069801F0C4FE0499059A069801F033
:1022F0009BFE039A0499069801F050FE0499059AF2
:10230000069801F0B5FE069801F0F6FF0EB080BD0C
:1023100080B586B04FF4406001F01CF90020C4F293
:1023200002000390022104910022009201230193F4
:1023300000F0B6FE009A0398049B194600F0B0FE28
:10234000009A039804990423029300F0A9FE009ACE
:10235000039804990823059300F0A2FE0099019BBD
:102360000398049A00F0EAFE00990398049B1A4629
:1023700000F0E4FE0099029B0398049A00F0DEFE50
:1023800000990398049A059B00F0D8FE019A0398DF
:10239000049900F0D9FD0398049A114600F0D4FD89
:1023A000029A0398049900F0CFFD03980499059AC6
:1023B00000F0CAFD06B080BD80B586B041F20400D1
:1023C00001F0C8F84FF0807001F000F941F2000010
:1023D000C4F20000009002F019F8009801F098FE95
:1023E000FFF73CFB0098C721ADF8081000210191D0
:1023F000ADF80A10ADF80C100491ADF80E108DF880
:10240000141002A901F082FF009801F051FC00981D
:10241000012102F019F8019A3620114600F044FF1C
:1024200006B080BD80B586B041F2050001F092F89B
:102430004FF0807001F0CAF841F20040C4F2000091
:10244000009001F0E3FF009801F062FEFFF720FB2F
:102450000098C721ADF8081000210191ADF80A10CD
:10246000ADF80C100491ADF80E108DF8141002A9FF
:1024700001F04CFF009801F01BFC0098012101F0D5
:10248000E3FF019A3720114600F00EFF06B080BD31
:1024900080B58EB041F2011001F05CF84FF0807011
:1024A00001F094F840F20040C4F20100059001F000
:1024B0002FFEFFF707FB0598C721ADF81C10002180
:1024C0000691ADF81E10ADF820104FF6FE7209927D
:1024D000ADF822108DF8281007A901F017FF059814
:1024E0000699ADF8301001220492ADF82C20ADF819
:1024F0003210ADF82E10ADF83410ADF836100221C0
:1025000001910BAA009201F0E5FB009A05980321C6
:10251000039101F0DFFB01990598069A01F084FD13
:10252000019905983022029201F038FD0199059831
:10253000069A01F09DFD03990598069A01F074FD35
:10254000029A0399059801F029FD03990598069AC6
:1025500001F08EFD059801F0ABFB0499059801F0A0
:102560009BFF0598082101F06FFF0598102101F0ED
:102570006BFF069A2E20114600F096FE0EB080BD2D
:1025800080B586B041F2101000F0E4FF4FF080708B
:1025900001F01CF844F20000C4F20100009001F0C8
:1025A00035FF009801F0B4FDFFF7C2FA0098C7218B
:1025B000ADF8081000210191ADF80A10ADF80C102B
:1025C0000491ADF80E108DF8141002A901F09EFED2
:1025D000009801F06DFB0098012101F035FF019A90
:1025E0001820114600F060FE06B080BD80B586B0B0
:1025F00041F2111000F0AEFF4FF0807000F0E6FFE6
:1026000044F20040C4F20100009001F0FFFE009887
:1026100001F07EFDFFF7A8FA0098C721ADF8081079
:1026200000210191ADF80A10ADF80C100491ADF83D
:102630000E108DF8141002A901F068FE009801F048
:1026400037FB0098012101F0FFFE019A1920114685
:1026500000F02AFE06B080BDFFE7FEE780B58EB031
:10266000002004900BA9019100F094FB012002903E
:1026700006A9039100F08EFB46F20040C4F2000070
:10268000059000F05BF80199029A049B05988DF87B
:1026900030308DF831208DF832308DF833208DF8C0
:1026A00034308DF835308DF82C308DF82D300623F0
:1026B0008DF82E308DF82F200522ADF8362000F051
:1026C0004DF904990298ADF82210ADF82410ADF838
:1026D0002600FEF75BF901460498490101F5005117
:1026E000ADF81810ADF81A00FEF750F90299049AE7
:1026F000034603985B0103F50053ADF81C30ADF8B9
:102700001E20ADF820208DF8281000F047F8049A1C
:102710001420114600F0C8FD0598022100F0FEF9D2
:1027200040F2E470C2F2000040F21001C2F2000177
:102730006422FEF765F90EB080BD000080B584B05C
:102740000390039846F20041C4F20001884209D187
:10275000FFE740F61900029000F024FF029800F015
:102760000DFF08E040F61A00019000F01BFF0198F1
:1027700000F004FFFFE704B080BD000082B00190CC
:1027800000208DF8030001988069C0F302108DF8D5
:1027900003009DF8030002B07047000082B0019072
:1027A000002000900198418901208840009046F265
:1027B0000061C4F20001086840F001000860009A5E
:1027C00046F21C61C4F20001086890430860019859
:1027D000C08908BBFFE7009A46F20C61C4F2000111
:1027E0000868904308600199CA88488840EA024016
:1027F0004A8946F24061C4F2000141F83200019971
:102800008A88088840EA02404A8946F24461C4F254
:10281000000141F83200FFE70198C089012821D169
:10282000FFE7009A46F20C61C4F200010868104309
:10283000086001990A88488840EA02404A8946F2BD
:102840004061C4F2000141F8320001998A88C888C9
:1028500040EA02404A8946F24461C4F2000141F86C
:102860003200FFE70198808948B9FFE7009A46F2F5
:102870000461C4F2000108689043086008E0009A0F
:1028800046F20461C4F20001086810430860FFE7E3
:102890000198008948B9FFE7009A46F21461C4F232
:1028A000000108689043086008E0009A46F214614D
:1028B000C4F20001086810430860FFE70198007C3B
:1028C000012809D1FFE7009A46F21C61C4F2000119
:1028D000086810430860FFE746F20061C4F2000197
:1028E000086820F00100086002B0704780B586B02B
:1028F00041F2190000F02EFE4FF4406000F02AFE75
:102900000020C4F2020003900021029102220192F1
:102910004FF40063009300F011FC009B0199029AB0
:10292000039800F0BDFB009A03980921049100F080
:102930000BFB019A029903984FF48053059300F022
:10294000FDFB0199029A0398059B00F0A9FB0398EF
:102950000499059A00F0F8FA06B080BD80B586B0FB
:10296000059004914FF6FF70039000208DF80B0046
:102970000599086820F0020008600599086840F091
:1029800001000860FFE7059841680020C907019031
:1029900031B9FFE70398002818BF01200190FFE735
:1029A0000198C00720B1FFE7039801380390EAE7D8
:1029B00005984068C00720B9FFE700208DF80B009C
:1029C000A7E0049991F800C091F801E08B78CA78EB
:1029D0004FF0407000EA0E6040EA8C7003F00F0385
:1029E00040EA034002F0070240EA025049890139F7
:1029F0006FF39F2108440599C86104980079012864
:102A000006D1FFE70599086840F08000086005E0FE
:102A10000599086820F080000860FFE70498407975
:102A2000012806D1FFE70599086840F040000860DA
:102A300005E00599086820F040000860FFE7049869
:102A40008079012806D1FFE70599086840F0200049
:102A5000086005E00599086820F020000860FFE79D
:102A60000498C079012806D1FFE70599086820F08D
:102A70001000086005E00599086840F01000086043
:102A8000FFE70498007A012806D1FFE70599086856
:102A900020F00800086005E00599086840F008008B
:102AA0000860FFE70498407A012806D1FFE70599FE
:102AB000086840F00400086005E00599086820F007
:102AC00004000860FFE70599086820F0010008602D
:102AD0004FF6FF700390FFE7059841680020C90793
:102AE000009031B1FFE70398002818BF0120009043
:102AF000FFE70098C00720B1FFE703980138039073
:102B0000EAE7039820B1FFE701208DF80B00FFE70B
:102B1000FFE79DF80B0006B080BD000082B0019079
:102B20000091009A019948691043486102B07047CA
:102B300082B001900091009AC2F384110120884074
:102B40000199120B885002B07047000080B586B022
:102B50000490039100200290019003984CF28101AF
:102B6000884206D1FFE70498002100F0EFF80290B8
:102B700027E003988421C0F20101884206D1FFE7D3
:102B80000498012100F0E2F8029019E0039848F25D
:102B9000CB01C0F20101884205D1FFE70498FFF79D
:102BA000EDFD02900BE004980399090B405803993E
:102BB000C1F384120121914008400290FFE7FFE732
:102BC000FFE704984069039901F01F020121914039
:102BD00008400190029838B1FFE7019820B1FFE763
:102BE00001208DF8170003E000208DF81700FFE7A3
:102BF0009DF8170006B080BD83B002908DF80710D5
:102C0000009202989DF8071000EB0110D0F8B00177
:102C100000F00400009908720098007A58B9FFE7A4
:102C200002989DF8071000EB0110D0F8B001400D9C
:102C3000009908600AE002989DF8071000EB011067
:102C4000D0F8B001C00800994860FFE702989DF8ED
:102C5000071000EB0110D0F8B00100F0020000995D
:102C6000487202989DF8071000EB0110D0F8B401EB
:102C7000000A0099C87402989DF8071000EB011033
:102C8000D0F8B40100F00F000099887202989DF806
:102C9000071000EB0110D0F8B8010099C872029833
:102CA0009DF8071000EB0110D0F8B801000A009958
:102CB000087302989DF8071000EB0110D0F8B801D6
:102CC000000C0099487302989DF8071000EB011062
:102CD000D0F8B801000E0099887302989DF807108B
:102CE00000EB0110D0F8BC010099C87302989DF860
:102CF000071000EB0110D0F8BC01000A009908741D
:102D000002989DF8071000EB0110D0F8BC01000CF0
:102D10000099487402989DF8071000EB0110D0F854
:102D2000BC01000E009988749DF8070030B9FFE7D8
:102D30000299C86840F02000C86005E0029908695F
:102D400040F020000861FFE703B0704782B00190B7
:102D50008DF8031000208DF802009DF8030038B9AB
:102D6000FFE70198C06800F003008DF802000DE055
:102D70009DF80300012807D1FFE70198006900F0E2
:102D800003008DF8020000E0FFE7FFE79DF8020076
:102D900002B0704786B08DF817000491049838B9D6
:102DA000FFE7FFE7FFE701200028FBD1FFE7FFE790
:102DB0009DF8170001460291032800F27D800299D8
:102DC000DFE801F0021E345604990020019048719A
:102DD0000499C87104998871049A40F2FF315181B5
:102DE0000499087204994870049A02219170049918
:102DF000C87004990871049948720499087062E0D7
:102E000004990120C8810499002000900874049955
:102E1000088104990880049948800499888004995D
:102E2000C88004998881049948814CE000208DF87D
:102E30000F00FFE79DF80F0007280DD8FFE7049863
:102E40009DF80F1001440020C872FFE79DF80F00A5
:102E500001308DF80F00EDE7049900208872049985
:102E600048600499087204994872049908602AE03D
:102E700000208DF80F00FFE79DF80F0007280DD800
:102E8000FFE704989DF80F1001440020C872FFE787
:102E90009DF80F0001308DF80F00EDE70499002038
:102EA000887204994860049908720499C874049956
:102EB00048720499086006E0FFE7FFE70120002858
:102EC000FBD1FFE7FFE706B07047000081B000903C
:102ED000009840F6DC11C2F200010860FFE740F6FE
:102EE000DC10C2F20000006808B1FFE7F7E701B0AC
:102EF0007047000040F6DC10C2F20000006840B1EC
:102F0000FFE740F6DC11C2F20001086801380860F2
:102F1000FFE7704780B582B0019000919DF80410E2
:102F200041F20000C4F2010001F0F8FBFFE741F2BA
:102F30000000C4F20100072101F096FC08B9FFE788
:102F4000F5E7019802B080BD86B005900491039228
:102F50000598006A01900598406A00900020ADF83D
:102F60000A00FFE7BDF80A00072821D8FFE7BDF8EF
:102F70000A100398C840C00798B1FFE7BDF80A00DF
:102F800081000F2000FA01F1019888430190049814
:102F9000BDF80A10890000FA01F101980843019078
:102FA000FFE7FFE7BDF80A000130ADF80A00D9E7F6
:102FB0000820ADF80A00FFE7BDF80A000F2825D861
:102FC000FFE7BDF80A100398C840C007B8B1FFE793
:102FD000BDF80A006FF01F0101EB80020F2000FA1C
:102FE00002F20098904300900498BDF80A2001EB8B
:102FF000820100FA01F1009808430090FFE7FFE723
:10300000BDF80A000130ADF80A00D5E7019805992E
:10301000086200980599486206B0704782B0019036
:10302000009100980199C86202B0704783B0029085
:1030300001918DF803209DF8030020B1FFE701986E
:103040000299886103E0019802998862FFE703B062
:103050007047000080B500F0BBF8FDF733FCFEF7C9
:103060002BFAFDF7E1FCFEF713F8FDF7F3FEFDF791
:1030700023FF80BD83B00190009101980069009901
:10308000084204D0FFE701208DF80B0003E0002088
:103090008DF80B00FFE79DF80B0003B070470000B0
:1030A00087B00690059104920393069800680190FA
:1030B0000698C06800900020ADF80A00FFE7BDF850
:1030C0000A000F2832D8FFE7BDF80A100398C8405D
:1030D000C00720B3FFE7BDF80A004100032000FA53
:1030E00001F20199914301910599BDF80A2052001E
:1030F00001FA02F2019911430191BDF80A10490049
:1031000000FA01F10098884300900498BDF80A1075
:10311000490000FA01F1009808430090FFE7FFE73B
:10312000BDF80A000130ADF80A00C8E70198069919
:10313000086000980699C86007B0704786B005908F
:103140008DF81310039202939DF81300012806D105
:10315000FFE7029A059948681043486005E0029A23
:103160000599486890434860FFE70598806800909B
:103170000020ADF80600FFE7BDF806000F2821D8B3
:10318000FFE7BDF806100298C840C00798B1FFE7F6
:10319000BDF806004100032000FA01F100988843C1
:1031A00000900398BDF80610490000FA01F100985C
:1031B00008430090FFE7FFE7BDF806000130ADF8D7
:1031C0000600D9E700980599886006B070470000AE
:1031D00080B584B040F6044000F0BCF941F2000034
:1031E000C4F2020001900121002202920423039301
:1031F000FFF756FF01980299039B0222FFF79EFFFB
:1032000004B080BD80B584B00020039000F036FD8E
:10321000FFF720FF4FF4E13001F056F9FDF74AFBCC
:10322000FEF7BEFEFFF7C8F8FFF7FCF8FEF784FED6
:10323000FFF7A6F9FFF7DAF9FEF7A6FDFEF7DAFDCC
:10324000FEF70EFEFEF742FEFFF722F9FEF7CCFF77
:10325000FEF7A6FCFEF7DAFEFEF74AFB4FF4FA7023
:10326000FFF734FEFFE74FF4C870FEF71FFA694618
:103270004FF47A734B604FF4FA6008600420012128
:103280004FF4487200F0B0FA4FF4AF60FFF71EFE43
:1032900040F6E800C2F20000416A45F27840C0F60C
:1032A000000001F06BFBDEE780B584B08DF80F0005
:1032B0008DF80E108DF80D200020029001900090E6
:1032C0004EF60C50CEF20000006800F4E060B0F55D
:1032D000E06F05D1FFE700200190042000904AE054
:1032E0004EF60C50CEF20000006800F4E060B0F53D
:1032F000C06F05D1FFE7012001900320009039E065
:103300004EF60C50CEF20000006800F4E060B0F51C
:10331000A06F04D1FFE702200190009029E04EF653
:103320000C50CEF20000006800F4E060B0F5806F51
:1033300005D1FFE7032001900120009018E04EF630
:103340000C50CEF20000006800F4E060B0F5407F61
:1033500005D1FFE7042001900020009007E04FF422
:10336000A06000F037F8022001900090FFE7FFE72F
:10337000FFE7FFE7FFE79DF80E000199C1F10401A7
:10338000884002909DF80D000099C1F104020F21C0
:10339000D140014002980843029002980001029037
:1033A00002989DF80F104EF20042CEF200028854AF
:1033B0009DF80F2002F01F01012088404EF20011FD
:1033C000CEF2000141EAD20121F00301086004B00D
:1033D00080BD000081B0009000980021C0F2FA5139
:1033E00008434EF60C51CEF20001086001B0704760
:1033F00098B08DF85F000020159040F20671C0F67D
:103400000811099140F20121C0F20341089107908F
:103410000690059104900391029043F60800C4F2CF
:1034200002000068C0F3810016901698019040B128
:10343000FFE7019801280AD0FFE7019802280CD085
:103440003EE042F20040C0F2F40014903EE041F24F
:103450000020C0F27A00149038E043F60400C4F271
:103460000200016801F03F0110910168C1F3881169
:103470000F91016801F44032022101EBD2310D912C
:10348000006800F480000E900E98B0F5800F06D111
:10349000FFE741F20020C0F27A000C9005E042F212
:1034A0000040C0F2F4000C90FFE70C981099B0FBBC
:1034B000F1F00F9948430D99B0FBF1F0149005E03D
:1034C00042F20040C0F2F4001490FFE743F6080017
:1034D000C4F202000168C9B209090B910B9A06A94E
:1034E000895C0A9114990A9AD14013910168C1F339
:1034F00082210B910B9A04A9895C0A9113990A9A6B
:10350000D1401291006880B2400B0B900B9902A839
:10351000405C0A9013980A99C84011909DF85F008A
:1035200001460091032810D80099DFE801F0020558
:10353000080B1498159009E01398159006E012985E
:10354000159003E01198159000E0FFE7159818B06A
:103550007047000081B0ADF80200BDF8020000F035
:103560001F02012101FA02F3810943F60002C4F2AD
:10357000020288581843885001B0704781B0ADF8F6
:103580000200BDF8020000F01F02012101FA02F35F
:10359000810943F60002C4F2020288589843885019
:1035A00001B0704781B0ADF80200BDF8020000F034
:1035B0001F02012101FA02F3810943F60002C4F25D
:1035C000020288581843885001B0704781B00090BB
:1035D00000986FF08071884209D1FFE7009A43F6A6
:1035E0008C01C4F2020108681040086008E0009AEB
:1035F00043F68C01C4F20201086810430860FFE73B
:1036000001B0704780B584B08DF80F000291029927
:1036100008780130087002980078022840F0E180B4
:10362000FFE7029900200870029880780146019116
:10363000032800F2D2800199DFE801F002118862CC
:10364000029900200090C861029908629DF80F104D
:103650000846FDF731FE009802994870BDE00298D7
:10366000C07828B1FFE70299486A0130486204E057
:103670000299486A01384862FFE70299C869013037
:10368000C8610299486901304861029948684B69EC
:103690000A6A02EB40029B00013392FBF3F2801AAC
:1036A000088302994B6848690A6A02EB4303800069
:1036B000421C93FBF2F000FB123008620298816812
:1036C000C069884207D3FFE70299C8684861029938
:1036D0000220887013E00299088B096988420DDC8A
:1036E000FFE70299088B48830299086908830299C9
:1036F00000200862029903208870FFE7FFE76CE072
:103700000298C07828B1FFE70299486A0130486200
:1037100004E00299486A01384862FFE70299C869E3
:103720000130C86102990869088302988168C069FC
:1037300088420AD3FFE70299C86848610299488B1A
:103740000883029902208870FFE746E00298C0785B
:1037500028B1FFE70299486A0130486204E0029903
:10376000486A01384862FFE70299C8690130C861B8
:103770000299486901304861029948684B690A6AB0
:1037800002EB40029B00013392FBF3F2801A0883A4
:1037900002994B6848690A6A02EB43038000421CA5
:1037A00093FBF2F000FB1230086202984069002897
:1037B00012D4FFE70298C07828B1FFE70299486A5F
:1037C0000130486204E00299486A01384862FFE724
:1037D000029900208870FFE7FFE70299088B486094
:1037E000FFE704B080BD000010B598B0DDF86CC0F4
:1037F000DDF868C08DF85E008DF85D1016921593A7
:1038000045F22C40C0F600000390016842688368CE
:10381000D0F80CC0D0F810E044690D94CDF830E039
:10382000CDF82CC00A93099208918169C269036A94
:10383000D0F824C0D0F828E0C46A1394CDF848E04A
:10384000CDF844C010930F920E91006B149000209D
:10385000079006909DF85E000C2806DCFFE71B9899
:1038600042F21171884204D3FFE700208DF85F0017
:103870008BE11B98092803D8FFE70F201B90FFE777
:103880001698B0F1FF3F04DCFFE716984042029023
:1038900002E016980290FFE7029807900798013817
:1038A00007901B98FCF76DFD41EC100B9FEDBA1BC8
:1038B00053EC112B51EC100BFCF782FC41EC100B7C
:1038C00051EC100BFCF789FD1B909DF85D0088B151
:1038D000FFE71698C043C00F9DF85E2008A951F875
:1038E0002210C8709DF85E001699C943C90FFDF7F4
:1038F000D1F933E016989DF85E2008A951F82210FE
:10390000496A401A06900698B0F1FF3F04DCFFE7D1
:1039100006984042019002E006980190FFE7019866
:1039200007900798013807909DF85E0008AA52F8A2
:103930002030586ADDF858C0002160450846D8BFDD
:103940000120D8709DF85E0052F82020526A169B24
:103950009A42D8BF0121FDF79DF9FFE70798D8BB30
:10396000FFE79DF85E1008A850F821204FF0FF31C6
:1039700051619DF85E1050F82120022191709DF850
:103980005E1050F821204FF47A7151609DF85E105E
:1039900050F82100C07848B1FFE79DF85E1008A8F4
:1039A00050F82110486A0138486208E09DF85E101E
:1039B00008A850F82110486A01304862FFE79DF8D6
:1039C0005E100846FDF7B6FB9DF85E1008A850F89B
:1039D000211001204870D4E00798002800F0D08022
:1039E000FFE79DED1B0AB8EE401A9FED710A80EECD
:1039F000010A9DF85E1008A8009050F82100BDEE65
:103A0000C00A80ED040A9DED150AB8EE401A9FED3C
:103A1000690A80EE010A10EE100AFCF7F7FC41EC8F
:103A2000100B00F0BBFF51EC100B9FED5D0B53EC46
:103A3000102BFCF7C5FB41EC100B51EC100B9FED6C
:103A40005A0B53EC102BFCF72DFC41EC100B51ECF6
:103A5000100BFCF7A3FC00999DF85E2051F8221092
:103A600048601B98404300EE100AB8EE400A9DEDF6
:103A7000151AB8EE411A9FED502A21EE021AB2EE45
:103A8000042A81EE021A80EE010ABCEEC00A8DED16
:103A9000050A059818B9FFE701200590FFE7079888
:103AA0001A9A504315991144B0FBF1F00490049810
:103AB00018B9FFE701200490FFE7049805998842B0
:103AC0000AD8FFE704980799401A9DF85E2008A9D4
:103AD00051F82210C8600DE00598159948431A99CD
:103AE000B0FBF1F040429DF85E2008A951F8221089
:103AF000C860FFE79DF85E1008A850F82100C06874
:103B000048B9FFE79DF85E1008A850F821104FF063
:103B1000FF30C860FFE707999DF85E2008A850F8BD
:103B20002220D368194491609DF85E1050F821104E
:103B30004868096988420EDCFFE79DF85E1008A816
:103B400050F82120116951609DF85E1050F8211045
:103B50000320887007E09DF85E1008A850F8211037
:103B600001208870FFE79DF85E1008A850F821102A
:103B7000002048619DF85E100846FDF7DBFAFFE77C
:103B8000FFE700208DF85F00FFE79DF95F0018B0A8
:103B900010BD00BF00BF00BF7B14AE47E17AC43F39
:103BA000000000000081F040000000000000244000
:103BB000DF6599477059C444CF0FC93F43F60800E9
:103BC000C4F2020050F8081C41F4803140F8081C8F
:103BD0004FF6FE7150F8083C4A1E8A4204D213F494
:103BE00000311146F6D000BF50F8081C8903FBD500
:103BF000826B47F2000142F08052C4F200018263FE
:103C00000A6842F440420A6002680260026842F4B4
:103C100000420260026842F4A052026046F208428A
:103C2000C0F6401240F8042C50F8082C42F0807284
:103C300040F8082C50F8082C9201FBD50A6842F491
:103C400080320A604A68D203FCD50A6842F4003226
:103C50000A6000BF4A689203FCD5016821F00301A5
:103C60000160016841F00201016000BF01680907BD
:103C7000FCD5704780B5FFF7A1FF80BD80B540F24D
:103C80000800C2F20000006844F6D351C1F262019C
:103C9000A0FB01108009FDF775FC10B1FFE7FFE7FD
:103CA000FEE74FF0FF301121FDF7CEFB80BD000095
:103CB00081B000900099086840F08000086001B071
:103CC0007047000082B00190009100980199C8628D
:103CD00002B0704784B00390ADF80A100192BDF8AD
:103CE0000A0001460091032800F255810099DFE89F
:103CF00011F004005C00BA0018010399086A20F072
:103D0000010008620399886920F003008861019826
:103D100002880399086A104308620399086A20F030
:103D200002000862019882880399086A10430862B9
:103D300003980021C4F20101884208D0FFE70398EC
:103D400040F20041C4F2010188422DD1FFE70399FE
:103D5000086A20F004000862019842880399086A02
:103D6000104308620399086A20F00800086201986D
:103D7000C2880399086A104308620399486820F4CE
:103D80008070486001980289039948681043486030
:103D90000399486820F400704860019842890399AB
:103DA000486810434860FFE7F6E00399086A20F08E
:103DB000100008620399886920F4407088610198B6
:103DC00002880399086A40EA021008620399086AA7
:103DD00020F020000862019882880399086A40EA6E
:103DE0000210086203980021C4F20101884208D041
:103DF000FFE7039840F20041C4F20101884231D14B
:103E0000FFE70399086A20F04000086201984288A1
:103E10000399086A40EA021008620399086A20F0D0
:103E2000800008620198C2880399086A40EA02107B
:103E300008620399486820F480604860019802890C
:103E40000399486840EA820048600399486820F472
:103E500000604860019842890399486840EA8200FE
:103E60004860FFE798E00399086A20F480700862D0
:103E70000399C86920F00300C8610198028803997A
:103E8000086A40EA022008620399086A20F4007078
:103E90000862019882880399086A40EA0220086251
:103EA00003980021C4F20101884208D0FFE703987B
:103EB00040F20041C4F20101884231D1FFE7039989
:103EC000086A20F480600862019842880399086AB1
:103ED00040EA022008620399086A20F40060086240
:103EE0000198C2880399086A40EA0220086203998F
:103EF000486820F480504860019802890399486816
:103F000040EA021048600399486820F40050486075
:103F1000019842890399486840EA02104860FFE727
:103F20003AE00399086A20F4805008620399C8694E
:103F300020F44070C861019802880399086A40EA39
:103F4000023008620399086A20F400500862019860
:103F500082880399086A40EA0230086203980021C7
:103F6000C4F20101884208D0FFE7039840F2004103
:103F7000C4F2010188420DD1FFE70399486820F49B
:103F800080404860019802890399486840EA82109D
:103F90004860FFE700E0FFE704B0704783B002909D
:103FA000ADF80610ADF80420BDF8060001460091FA
:103FB000032836D80099DFE801F0020E1B2702998A
:103FC000886920F070008861BDF804200299886932
:103FD0001043886126E00299886920F4E0408861F6
:103FE000BDF804200299886940EA0220886119E03E
:103FF0000299C86920F07000C861BDF804200299D8
:10400000C8691043C8610DE00299C86920F4E04016
:10401000C861BDF804200299C86940EA0220C8615D
:1040200000E0FFE703B0704784B00390ADF80A10DA
:104030000192BDF80A0001460091032814D80099A6
:10404000DFE801F002060A0E0198039948630CE0CC
:1040500001980399886308E001980399C86304E014
:1040600001980399086400E0FFE704B0704700007E
:1040700083B00290ADF80610ADF80420BDF806003C
:1040800001460091032836D80099DFE801F0020EBE
:104090001B270299886920F008008861BDF8042078
:1040A000029988691043886126E00299886920F4A2
:1040B00000608861BDF804200299886940EA022006
:1040C000886119E00299C86920F00800C861BDF84C
:1040D00004200299C8691043C8610DE00299C869BB
:1040E00020F40060C861BDF804200299C86940EA64
:1040F0000220C86100E0FFE703B0704782B0019082
:10410000002000900198406A0090009802B070472B
:1041100080B590B00F900F980E90B0F1804F73D093
:10412000FFE70E9840F20041C4F20001884274D0CB
:10413000FFE70E9840F60001C4F20001884275D0F6
:10414000FFE70E9840F60041C4F20001884276D0A5
:10415000FFE70E9841F20001C4F20001884277D0D7
:10416000FFE70E9841F20041C4F20001884278D086
:10417000FFE70E9841F60001C4F20001884200F00A
:104180009D80FFE70E9841F60041C4F2000188428D
:1041900000F09D80FFE70E9842F20001C4F200019A
:1041A000884200F09D80FFE70E980021C4F20101D3
:1041B000884220D0FFE70E9840F20041C4F201018E
:1041C000884257D0FFE70E9844F20001C4F2010183
:1041D000884258D0FFE70E9844F20041C4F2010132
:1041E000884259D0FFE70E9844F60001C4F201015D
:1041F00088425AD07DE04FF410600D90FFF7D2F95D
:104200000D98FFF7BBF975E04FF400600C90FFF7D5
:10421000C9F90C98FFF7B2F96CE040F601000B9079
:10422000FFF7C0F90B98FFF7A9F963E040F6020029
:104230000A90FFF7B7F90A98FFF7A0F95AE040F69D
:1042400003000990FFF7AEF90998FFF797F951E0DD
:1042500040F604000890FFF7A5F90898FFF78EF9DB
:1042600048E040F605000790FFF79CF90798FFF734
:1042700085F93FE040F601100690FFF793F90698A4
:10428000FFF77CF936E04FF411600590FFF78AF9EB
:104290000598FFF773F92DE040F611100490FFF731
:1042A00081F90498FFF76AF924E040F612100390B0
:1042B000FFF778F90398FFF761F91BE040F6060075
:1042C0000290FFF76FF90298FFF758F912E040F6F5
:1042D00007000190FFF766F90198FFF74FF909E031
:1042E00040F608000090FFF75DF90098FFF746F9E7
:1042F00000E0FFE710B080BD81B000900099086831
:1043000040F00100086001B07047000082B00190E9
:104310000091009800880199886201980021C4F2F8
:104320000101884225D0FFE70198B0F1804F20D0ED
:10433000FFE7019840F20041C4F20001884218D022
:10434000FFE7019840F60001C4F20001884210D056
:10435000FFE7019840F60041C4F20001884208D00E
:10436000FFE7019840F20041C4F20101884212D1F6
:10437000FFE70199086820F0700008600098428803
:1043800001990868104308600098828801990868BC
:1043900010430860FFE7009880680199C86201989F
:1043A00041F20001C4F20001884214D0FFE70198F5
:1043B00041F20041C4F2000188420CD0FFE70199AC
:1043C000086820F4407008600098C2880199086865
:1043D00010430860FFE701980021C4F20101884200
:1043E00008D0FFE7019840F20041C4F20101884281
:1043F00005D1FFE70098007B01990863FFE7019969
:10440000486940F00100486102B0704781B00090F7
:104410000099886820F00700886001B070470000AC
:1044200082B001900091009A0199C8689043C860D9
:1044300002B0704782B001900091009A0199C8685B
:104440001043C86002B0704782B00190009100989C
:10445000C0430199086102B07047000084B0029027
:1044600001910298C0680199084000900298006983
:104470000199084207D0FFE7009820B1FFE701202B
:104480008DF80F0003E000208DF80F00FFE79DF886
:104490000F0004B07047000082B001908DF8031047
:1044A0009DF80300012806D1FFE70199486C40F40C
:1044B0000040486405E00199486C20F400404864DD
:1044C000FFE702B07047000080B58AB009904FF452
:1044D0004060FFF73FF841F20410FFF73BF800207F
:1044E000C4F202000290072100914FF40072019281
:1044F000FEF72AFD009902984FF480620492FEF7BD
:1045000023FD019B02980221039101220592FEF7EF
:10451000C7FD019B0298039A00210691FEF70EFE4B
:1045200002980399049B059AFEF7BAFD0298039A34
:10453000049B0699FEF702FE41F20000C4F201005E
:10454000089000F0F7F80898099900F023F8089807
:104550000821079100F002FA0599089800F0D8F9AF
:104560000699089800F0AEF90699089800F0BEF890
:104570000699089800F096F90898042100F0B2F91D
:104580000799089800F0D4F9089800F063F90AB088
:1045900080BD000080B588B007900691002005908E
:1045A0000490039002900798019044F20041C4F2F5
:1045B0000001884242D0FFE7019844F60001C4F2AE
:1045C000000188423FD0FFE7019844F60041C4F261
:1045D000000188423CD0FFE7019845F20001C4F297
:1045E0000001884239D0FFE7019847F60001C4F284
:1045F0000001884236D0FFE7019847F60041C4F237
:104600000001884233D0FFE7019841F20001C4F273
:104610000101884208D0FFE7019841F20041C4F24D
:104620000101884205D027E00320FEF7E1FE059056
:1046300023E00320FEF7DCFE05901EE00220FEF7DB
:10464000D7FE059019E00220FEF7D2FE059014E097
:104650000220FEF7CDFE05900FE00220FEF7C8FE17
:1046600005900AE00220FEF7C3FE059005E0022057
:10467000FEF7BEFE059000E0FFE70798C068000463
:10468000002819D5FFE705984000069900EB510076
:10469000B0FBF1F0029002984FF6F07108400490E0
:1046A0000298C0F342000390BDF81000BDF80C1052
:1046B00008430799886017E00598069900EB5100B8
:1046C000B0FBF1F0029002984FF6F07108400490B0
:1046D000029800F00F000390BDF81000BDF80C1018
:1046E000084307998860FFE708B080BD83B0029057
:1046F0000191002000900298D0F88000009000986E
:1047000020F4006000900199009808430090009800
:104710000299C1F8800003B07047000082B0019098
:10472000ADF80210BDF802006FF35F2001994860F8
:1047300002B0704780B58AB009900998089044F299
:104740000041C4F20001884241D0FFE7089844F6D6
:104750000001C4F20001884242D0FFE7089844F605
:104760000041C4F2000188424CD0FFE7089845F2AE
:104770000001C4F2000188424DD0FFE7089847F6D7
:104780000001C4F2000188424ED0FFE7089847F6C6
:104790000041C4F2000188424FD0FFE7089841F27F
:1047A0000001C4F20101884208D0FFE7089841F2F5
:1047B0000041C4F2010188421BD047E040F60410DA
:1047C0000790FEF7EFFE0798FEF7D8FE3FE040F6B1
:1047D00011000690FEF7E6FE0698FEF7CFFE36E0E3
:1047E00040F612000590FEF7DDFE0598FEF7C6FEC6
:1047F0002DE040F605100490FEF7D4FE0498FEF775
:10480000BDFE24E040F613000390FEF7CBFE0398B4
:10481000FEF7B4FE1BE040F614000290FEF7C2FE65
:104820000298FEF7ABFE12E040F61E000190FEF784
:10483000B9FE0198FEF7A2FE09E040F61F000090C5
:10484000FEF7B0FE0098FEF799FE00E0FFE70AB021
:1048500080BD000081B000900099C86840F400500D
:10486000C86001B07047000083B00190ADF802103D
:104870000198BDF8021089094058BDF8021001F0F6
:104880001F01C840C00720B1FFE701208DF80B00D1
:1048900003E000208DF80B00FFE79DF80B0003B04C
:1048A0007047000082B0019000910199C86820F41F
:1048B0000040C860009A0199C8681043C86002B0FF
:1048C0007047000082B0019000910199C86820F4FF
:1048D000C060C860009A0199C8681043C86002B0FF
:1048E0007047000083B00290019100200090029870
:1048F000C0680090009820F0040000900199009892
:104900000843009000980299C86003B07047000007
:1049100082B0019000910199086920F4405008612B
:10492000009A019908691043086102B070470000BD
:1049300083B002900191002000900298C06800901E
:10494000009820F00800009001990098084300901A
:1049500000980299C86003B07047000082B00190CF
:1049600000910199C86820F48050C860009A0199AC
:10497000C8681043C86002B0704700000FB4054B10
:1049800010B503A9044A029800F01CF910BC5DF8A8
:1049900014FB0000152F00080000002000B52DEDCD
:1049A000048BB0EE409AF0EE609A83B051EC190B94
:1049B000FBF79AFE41EC180B18EE100A18EE901A4D
:1049C0008DED008B002818BF0120084320F0004027
:1049D000C0F17F6000F1E040C00F14D019EE101A52
:1049E00019EE900A8DED009B002918BF01210843A4
:1049F00020F00040C0F17F6000F1E040C00F04BF34
:104A0000012000F017F8B0EE480A03B0F0EE680A93
:104A1000BDEC048B00BD02E008C8121F08C1002ACB
:104A2000FAD170477047002001E001C1121F002A2F
:104A3000FBD1704701490860704700000400002066
:104A40002DE9FF5F82B00021DDE90430020DDDF8C1
:104A500040B0034318D044F61050A2F2FF32424354
:104A60001514119801281FD0A5EB0B00401C5FEA1C
:104A7000000A4FF000064E4FDFF83891B04650461E
:104A800015D5CAF1000413E0119801244AA30128A6
:104A900001D16FEA0B010298119AC0E90031C0E917
:104AA000024206B0BDE8F09FCBF10000DFE704460C
:104AB0000021404A491842EB0450CDE9001012E0B1
:104AC000E00707D032463B4640464946FBF778FBB5
:104AD0008046894632463B4610461946FBF770FB36
:104AE00006460F466410002CEAD1DDE90401DDE939
:104AF0000023BAF1000F06DAFBF762FB42464B4691
:104B0000FBF75EFB05E0FBF7CDFB42464B46FBF7B0
:104B1000C9FB04460E460022284BFBF74FFE03D884
:104B20004FF0FF30014607E00022254B204631467A
:104B3000FBF733FDFBF729FE102409E0002C0ADB0C
:104B40000A220023FBF78BFC039B30321A55641EAC
:104B500050EA0102F2D1641C039AC4F11103144417
:104B6000119A012A03D0012208430DD10AE008431B
:104B700004D000204FF0110B119072E7A3EB0B054E
:104B80006D1E0DE05B4504DD4FF0000205F10105EF
:104B900004E003DA4FF00002A5F10105002AECD091
:104BA00002981199C0E90231C0E9004579E7000097
:104BB000000014400000F03F300000000000F0430F
:104BC0000000E03F2DE9FF4F95B09B468946064621
:104BD00000250FE2252877D100242746F84A012135
:104BE000059400E0044316F8013F203B01FA03F06E
:104BF0001042F7D130782A2811D06FF02F03307887
:104C0000A0F13002092A16D8059A44F0020402EBFA
:104C1000820203EB42021044761C0590EFE759F83C
:104C2000042B0592002A03DA504244F40054059004
:104C300044F00204761C30782E2816D116F8010FA5
:104C400044F004042A280DD06FF02F023078A0F130
:104C50003003092B09D807EB870302EB4303C7187E
:104C6000761CF3E759F8047B761C30786C280FD05B
:104C700006DC4C2817D068280DD06A2814D104E02F
:104C8000742810D07A280FD10DE044F400140AE003
:104C900044F4801401E044F440147278824202D15A
:104CA00004F58014761C761C307866280BD013DC53
:104CB000582877D009DC002875D04528F6D046283A
:104CC000F4D047281AD19DE118E0632835D0642834
:104CD00079D0652812D195E1702873D008DC672857
:104CE000F1D069286FD06E280DD06F2806D1B5E0BD
:104CF00073282CD0752875D0782874D05A46179907
:104D000090476D1C75E1C4F30250022809D00328B6
:104D10000DD0D9F8001004280DD00D6009F1040958
:104D200067E1D9F80010EA17C1E90052F6E7D9F8AF
:104D300000100D80F2E70D70F0E719F8041B8DF8F4
:104D4000001000208DF80100EA46012003E059F828
:104D500004AB4FF0FF3061074FF0000102D40DE0CB
:104D600008F101018846B9420FDA8045F8DB1AF8EC
:104D700008100029F4D108E008F1010188468142B9
:104D8000FADB1AF808100029F6D105985B46A0EB6B
:104D9000080721463846179A00F094FA284400EB99
:104DA000080507E04DE029E10DE01AF8010B5A462D
:104DB00017999047B8F10108F7D25B46214638466B
:104DC000179A13E142E00A220092C4F302524FF014
:104DD000000A022A08D059F804CB032A4FEAEC71E2
:104DE0000AD00DE029E02AE009F1070121F00702CD
:104DF000F2E802C1914609E00FFA8CFC4FEAEC712F
:104E0000042A03D14FFA8CFC4FEAEC71002907DA2F
:104E10000A460021DCF1000C61EB02012D2202E0C8
:104E2000220504D52B228DF80420012203E0E2079D
:104E300001D02022F7E7904659E00A2102E0102233
:104E40000DE010214FF0000A00910BE010224FF00E
:104E5000000A44F004040827009203E008224FF0FF
:104E6000000A0092C4F30252022A05D059F804CB7A
:104E70000021032A08D009E009F1070121F0070207
:104E8000F2E802C1914605E01FFA8CFC042A01D128
:104E90000CF0FF0C4FF00008220728D5702806D030
:104EA000009B83F0100353EA0A0305D00EE0402272
:104EB0008DF80420012208E05CEA010206D03022CD
:104EC0008DF804208DF8050002229046009B83F0A7
:104ED000080353EA0A030AD15CEA010201D162071E
:104EE00005D530228DF804204FF001087F1E582888
:104EF00004D034A003900EA802900DE036A0F9E78C
:104F000053466046009AFBF7AAFA84460398825CEF
:104F10000298401E029002705CEA0100F0D10298F3
:104F200006A9081A00F1200A600702D524F480348B
:104F300000E00127574502DDA7EB0A0000E0002052
:104F400000EB0A01009005984144401A0590E003E7
:104F500006D45B462146179A059800F0B3F905443C
:104F6000002706E001A85A46C05D179990476D1CBE
:104F70007F1C4745F6DBE0030CD55B462146179ABC
:104F8000059800F09FF9054404E030205A4617992F
:104F900090476D1C0099481E00900029F5DC08E040
:104FA000029802995A460078491C02911799904735
:104FB0006D1CBAF10001AAF1010AF1DC65E1000003
:104FC00009280100303132333435363738396162DF
:104FD00063646566000000003031323334353637A3
:104FE00038394142434445460000000000F058F97A
:104FF0000544761C307800287FF4ECAD19B02846C3
:10500000BDE8F08F620700D4062709F1070222F0FD
:10501000070CFCE80223E14603F000485FEA080CB5
:1050200002D00FF2702C0DE05FEA045C02D50FF2A3
:10503000682C07E05FEAC47C02D00FF2602C01E02C
:10504000AFF2700C4FF0FF3823F00043CDF850C0A2
:1050500065280CD006DC452809D046281DD04728F5
:105060003DD13DE0662818D067287ED138E0002188
:10507000112F01DB112000E0781CCDE9000106A909
:105080000EA8FFF7DDFCDDE90F010E9A0391002168
:10509000009207F1010A04914DE04FF000400097A3
:1050A000CDE9011006A90EA8FFF7CAFCDDE90F0241
:1050B00003920E9B11990022DDF80CA0009304923C
:1050C00011B9791C00EB010AB7EB0A0004D4C0F156
:1050D000FF3007F1010A0490AAEB0700019044E0B9
:1050E000012F00DA01270021112F01DD112000E03E
:1050F0003846CDE9000106A90EA8FFF7A1FCDDE9BD
:105100000F010E9A0391002104910092BA462107E3
:105110000CD40399514500DA8A46BAF1010F05DD36
:10512000009AAAF10101515C302908D0B84202DA94
:1051300010F1040F06DA0121CDE9011015E0AAF102
:105140000101E9E7002805DC049901440491AAEB78
:10515000000102E0411C514500DD8A460499401AD5
:10516000401C01904FF000400290200704D40198A9
:10517000504501DBCDF8048000208DF84F000298E7
:105180000DF14F07B0F1004F25D02B200E90029863
:105190004FF0020800280CDA404202902D200E90B9
:1051A00007E00A210298FBF744F93031029007F832
:1051B000011DB8F10001A8F10108F2DC02980028F5
:1051C000EFD1791E0E980870307800F0200040F082
:1051D000450007F8020D12A8C01B00F1070814983B
:1051E000007800B1012000EB0A01019801EBE071A9
:1051F00005984144401A401E0590E00306D45B46E2
:105200002146179A059800F05DF805441498007837
:1052100018B15A46179990476D1CE00324D55B4698
:105220002146179A059800F04DF805441CE00498B3
:10523000002807DBDDE90301884203DD0098405CBC
:10524000179901E0179930205A469047049805F1C4
:105250000105401C04900198401E019004D12E20AD
:105260005A46179990476D1CBAF10001AAF1010A3C
:10527000DDDC05E017F8010B5A46179990476D1CC5
:10528000B8F10001A8F10108F4DC5B462146179A49
:105290000598ABE62D0000002B0000002000000068
:1052A0002DE9F041044600251E461746880404D423
:1052B00005E039462020B0476D1C641EF9D528460C
:1052C000BDE8F0812DE9F041044600251E469046D8
:1052D000C80301D5302700E02027880404D505E065
:1052E00041463846B0476D1C641EF9D52846BDE8D6
:1052F000F08100000000000040000000800000007D
:10530000100000002000000000100000002000003D
:105310000040000000800000008000000004000049
:105320000008000000100000000000000000024023
:105330000000024000080240000802400004024051
:105340000004024000040240000402400000024049
:10535000000802400008024000080240000000006F
:105360000004004000100040001400400000004015
:105370000040014000440140004801400018004046
:10538000001C0040002000400004014000040140D7
:10539000000000000100000001000000010000000A
:1053A00001000000010000000100000001000000F9
:1053B00001000000010000000100000008000000E2
:1053C0001000000000000000000400400010004039
:1053D0000014004000000040004001400044014033
:1053E0000048014000180040001C00400020004020
:1053F0000004014000040140000000000100000022
:105400000100000001000000010000000100000098
:105410000100000001000000010000000100000088
:105420000100000008000000100000000000000063
:10543000F807002098080020C0080020E808002095
:105440001009002038090020600900208809002088
:10545000B009002020080020480800207008002023
:1054600000000000000C0040000001400008004067
:1054700000000100020003004D6F74456E636F640D
:10548000657234202025640A00000000B054000832
:105490000000002010000000164A0008C054000858
:1054A00010000020D00D0000264A00080000000077
:1054B000000000000000000000C2EB0B0000000034
:040000050800018965
:00000001FF
