:020000040800F2
:10000000C80F00209D0100085D1800089D0700082A
:10001000C5070008F5050008292D000800000000AC
:10002000000000000000000000000000CD180008E3
:100030006106000800000000A5180008911A0008D9
:10004000B7010008B7010008B7010008B7010008B0
:10005000B7010008B7010008B7010008B7010008A0
:10006000B7010008B7010008B7010008B701000890
:10007000B7010008B7010008B7010008B701000880
:10008000B7010008B7010008B7010008B701000870
:10009000F9050008B7010008B7010008B70100081A
:1000A000A11E0008D11E0008B91E0008B7010008F3
:1000B000E91E0008FD1E0008B7010008B70100088E
:1000C000B7010008B7010008B7010008B701000830
:1000D000B7010008B7010008B7010008B701000820
:1000E000B7010008B7010008B7010008451F000864
:1000F000A91F0008911F00085D1F0008B701000834
:10010000B7010008B7010008B7010008B7010008EF
:10011000B7010008B7010008151F00082D1F0008CF
:10012000B7010008B7010008B7010008B7010008CF
:10013000B7010008B7010008B7010008B7010008BF
:10014000B7010008B7010008B7010008B7010008AF
:10015000B7010008B7010008B7010008B70100089F
:10016000B7010008B7010008B7010008B70100088F
:10017000B7010008B7010008B7010008000000003F
:10018000B7010008B7010008DFF80CD000F010FA42
:1001900000480047A1380008C80F002006488047E3
:1001A00006480047FEE7FEE7FEE7FEE7FEE7FEE75C
:1001B000FEE7FEE7FEE7FEE7B91A0008890100083E
:1001C0002DE9FE4F81EA030404F0004421F00041D0
:1001D00000944FF0000B23F0004350EA01045ED07E
:1001E00052EA03045BD0C3F30A54C1F30A552C440A
:1001F000A4F2F3340194A0FB0254C1F3130141F4BF
:100200008011C3F3130343F4801301FB024400FB8A
:10021000034E840A970A44EA815447EA8357A4FBB1
:10022000076802958D0A05FB07854FEA932C04FBAE
:100230000C542705029D4FEA065847EA1637B5EBDE
:1002400008056EEB070C870E920E47EA811742EA0B
:100250008312A7FB0201B6EB0B0164EB00042B0D2C
:1002600043EA0C335E1844EB1C50DA465146E7FB78
:100270000201C5F313044FEA0B3343EA14534FEA68
:100280000432019C43EA0603A4F10C040294009C8E
:10029000CDE900B400F0ECF803B0BDE8F08F002029
:1002A0000146F9E72DE9F04D81EA030404F0004B23
:1002B00021F0004514464FF0000A23F0004150EAB7
:1002C000050220D054EA01021DD0C5F30A570246A8
:1002D000C5F31303C1F31300C1F30A5640F48015AC
:1002E00043F48013A7EB0608101BD64608F2FD382E
:1002F00073EB050002D308F1010801E092185B419D
:10030000B8F1000F03DA00200146BDE8F08D0020AF
:100310004FF48011064684460EE0171B73EB050769
:1003200005D3121B63EB050306434CEA010C490895
:100330004FEA300092185B4150EA0107EDD152EAD2
:10034000030012D082EA040083EA0501084305D0C5
:10035000101BAB4106D20122002306E000224FF021
:10036000004302E06FF0010253101AEB06004CEB61
:10037000085110EB0A0041EB0B01BDE8F04D00F015
:1003800068B80EB540F2334102910021CDE9001169
:100390000A460B4600F06CF803B000BD70B5C1F31F
:1003A0000A5201F000450024C1F3130140F2FF336B
:1003B00041F480119A4201DA002070BD40F23343CB
:1003C0009A42A2F2334203DC524200F032F800E0DB
:1003D00090402C43F1D0404270BDC1F30A5210B599
:1003E000C1F3130140F2FF3341F480119A4201DA64
:1003F000002010BD40F233439A42A2F2334203DCA4
:10040000524200F016F810BD904010BD00F00042BE
:1004100030F000400AD0C10D01F56071C0F3160044
:1004200042EA0151C20840071143704700200146CB
:100430007047202A04DB203A21FA02F0002170479D
:1004400021FA02F3D040C2F120029140084319463C
:10045000704710B5141E73F1000408DA401C41F116
:10046000000192185B411A4301D120F0010010BD38
:100470002DE9F04D92469B4611B1B1FA81F202E0AE
:10048000B0FA80F22032904600F0A4F804460F46FD
:1004900040EA0A0041EA0B0153465A46084313D08A
:1004A000114653EA010019D0C8F140025046FFF747
:1004B000C0FF05460E4650465946424600F08AF8AF
:1004C000084305D0012004E020463946BDE8F08D00
:1004D0000020054346EAE0762C4337430A9863053B
:1004E000E40AA0EB08000022FD0A44EA47540A305F
:1004F00002D500200146E9E7010510196941DDE94F
:10050000084500196941BDE8F04DA2E72DE9F04D1D
:1005100000231A461B1A8A4103DB00200146BDE86E
:10052000F08DC1F30A52C1F3130141F480154FF06D
:10053000000BD10702D100186D41521E002704465E
:1005400040F2FF11384601EB620A3E468046024601
:1005500000204FF48011FFF76CFFC2197141BB18E6
:1005600046EB0100B4EB030C75EB000C04D3E41A6A
:1005700065EB000517460E46241908F101006D4190
:1005800080463428E3DDF91946EB0600091BA84133
:1005900003D24FF0FF32134601E0002213461BEB5B
:1005A000070046EB0A51BDE8F04DFFF752BF0000CF
:1005B000064C074D06E0E06840F0010394E80700B0
:1005C00098471034AC42F6D3FFF7E2FD2C540008F4
:1005D0004C540008202A04DB203A00FA02F10020E3
:1005E00070479140C2F1200320FA03F31943904071
:1005F00070470000FFE7FEE780B588B046F2004094
:10060000C4F200004CF2810102F008FE00B3FFE7E3
:1006100046F20040C4F200000290002103AA02F05A
:1006200053FE0399049A059B0698DDF81CE0EC46FE
:10063000CCF804E0CCF8000040F2EC70C2F200000C
:1006400000F03AF802984CF2810102F0D9FDFFE780
:1006500008B080BD80B502F0B1FC02F067FB80BD40
:100660007047000080B582B040F6024003F0AAFA5D
:1006700041F20E1003F0A6FA40F60000C4F20200A8
:100680000090002201920123114603F057F80098D0
:10069000019A0223114603F051F80098019A0423AD
:1006A000114603F04BF80098019A0823114603F015
:1006B00045F802B080BD0000B0B588B0DDF834E088
:1006C000DDF830C0CDF818E0CDF814C004930392E3
:1006D00002910190019801F0E7F818B1FFE70020BE
:1006E000079020E001994868CC6800EB800504EB96
:1006F0008501DDF818C0DDF808E00398049A059B31
:1007000044F825E0C1F810C0CB608A6048600199C8
:1007100048688A68431CB3FBF2F000FB1230486063
:1007200001200790FFE7079808B0B0BD80B582B000
:1007300000208DF8070040F60000C4F2020000908F
:10074000012102F0E5FF024600989DF807101143D1
:100750008DF80710022102F0DBFF024600989DF899
:10076000071041EA42018DF80710042102F0D0FF82
:10077000024600989DF8071041EA82018DF80710A3
:10078000082102F0C5FF01469DF8070040EAC100BC
:100790008DF807009DF8070002B080BDFFE7FEE777
:1007A00083B00290019100920299002008600299A2
:1007B000486000980299886001980299C86003B067
:1007C00070470000FFE7FEE780B590B040F60140BB
:1007D00003F0F8F940F6024003F0F4F94FF44060FA
:1007E00003F0F0F941F20E1003F0ECF90020C4F22E
:1007F0000200089000220E9240230193114602F05D
:10080000EBFF08980E9A80230293114602F0E4FF52
:100810000E9A40F60000C4F202000C9010230393DD
:10082000114602F0D9FF0C980E9A2023049311462A
:1008300002F0D2FF0E9A40F20040C4F2020007908C
:100840004FF480530F93114602F0C6FF07980E9A9B
:100850004FF400530593114602F0BEFF07980E9A1D
:100860004FF480430693114602F0B6FF07980E9AA4
:100870004FF400430993114602F0AEFF0898099B1C
:100880000E9A114602F0A8FF0C980E9A4FF480635E
:100890000A93114602F0A0FF0C980E9A4FF40063E1
:1008A0000B93114602F098FF0C980E9A0F9B11467D
:1008B00002F092FF019B08980E9A01210D9102F01F
:1008C0003DFF029B08980D990E9A02F037FF039B9B
:1008D0000C980D990E9A02F031FF049B0C980D991B
:1008E0000E9A02F02BFF07980D990E9A0F9B02F0BB
:1008F00025FF059B07980D990E9A02F01FFF069B96
:1009000007980D990E9A02F019FF0798099B0D9907
:100910000E9A02F013FF0898099B0D990E9A02F0A7
:100920000DFF0A9B0C980D990E9A02F007FF0B9B86
:100930000C980D990E9A02F001FF0C980D990E9AE1
:100940000F9B02F0FBFE10B080BD000010B590B010
:1009500045F2D400C0F60000019001684268836847
:10096000D0F80CC0D0F810E044690894CDF81CE031
:10097000CDF818C00593049203918169C269036A96
:10098000D0F824C0D0F828E0C46A0E94CDF834E042
:10099000CDF830C00B930A920991006B0F900120A3
:1009A0000290FFE702980C2848DCFFE740F21400B1
:1009B000C2F200000068029A03A9009151F82220B7
:1009C000906040F20C00C2F200000068029A51F8F8
:1009D0002220D06040F21000C2F200000088029A8B
:1009E00051F82220908040F20400C2F20000B0F9D9
:1009F0000000029A51F822205061029851F82020FC
:100A00004FF4C8601061029851F8202042F2107033
:100A10009061029851F8202042F22830D06102986B
:100A200051F820204FF4FA601062029A51F8221017
:100A30004862FFE7029801300290B3E710B010BDA2
:100A400010B59EB045F20810C0F600000190016894
:100A500042688368D0F80CC0D0F810E0446916945E
:100A6000CDF854E0CDF850C01393129211918169E2
:100A7000C269036AD0F824C0D0F828E0C46A1C9484
:100A8000CDF86CE0CDF868C0199318921791006BFF
:100A90001D9045F23C10C0F60000029001684268CB
:100AA0008368D0F80CC0D0F810E044690994CDF800
:100AB00020E0CDF81CC00693059204918169C269BB
:100AC000036AD0F824C0D0F828E0C46A0F94CDF8A7
:100AD00038E0CDF834C00C930B920A91006B109063
:100AE00001200390FFE703980C2819DCFFE7039926
:100AF00011A850F82100407868B9FFE7039804A9CD
:100B000051F820108A88C82101EB5202C1B2084670
:100B100000F008F8FFE7FFE7039801300390E2E7F1
:100B20001EB010BD80B58AB08DF826008DF8251056
:100B3000ADF822200020ADF82000E320ADF81E0023
:100B400045F21443C0F60003186859689A68DB68D8
:100B5000069305920491039045F22441C0F60001EA
:100B600008684968029101909DF82600A0B1FFE74E
:100B70009DF8250080B1FFE79DF826000C280BDCCE
:100B8000FFE79DF825000C2806DCFFE7BDF82200F2
:100B9000B0F5FA6F04DDFFE7FF208DF8270031E0A4
:100BA000BDF82200BDF81E10084400F6B830ADF8BC
:100BB00020009DF826008DF80300FFE79DF8030054
:100BC0009DF82510884219DCFFE79DF80300411EBF
:100BD00001EB917020F0030203A8104440688A1AC8
:100BE00001A931F81210BDF8202003F0A1FDFFE7A4
:100BF0009DF8030001308DF80300DFE700208DF839
:100C00002700FFE79DF927000AB080BD10B59EB010
:100C10008DF876008DF8751045F2A410C0F600002E
:100C20000190016842688368D0F80CC0D0F810E0E9
:100C300044691594CDF850E0CDF84CC01293119250
:100C400010918169C269036AD0F824C0D0F828E005
:100C5000C46A1B94CDF868E0CDF864C0189317926D
:100C60001691006B1C9045F27010C0F600000290C7
:100C7000016842688368D0F80CC0D0F810E044697D
:100C80000894CDF81CE0CDF818C0059304920391A8
:100C90008169C269036AD0F824C0D0F828E0C46A28
:100CA0000E94CDF834E0CDF830C00B930A92099140
:100CB000006B0F909DF876000C280DDCFFE79DF887
:100CC000760048B1FFE79DF87500012808D0FFE7DE
:100CD0009DF8750020B1FFE7FF208DF877001FE039
:100CE0009DF8750060B1FFE79DF8762010A850F8D8
:100CF000220003A951F82210002202F0E5FC0BE0CB
:100D00009DF8762010A850F8220003A951F822106F
:100D1000012202F0D9FCFFE701208DF87700FFE700
:100D20009DF977001EB010BD80B584B08DF80F001E
:100D30008DF80E109DF80F0001460291032840D84F
:100D40000299DFE801F022020D189DF80E2041F211
:100D50000000C4F202004FF4806102F0B5FC31E003
:100D60009DF80E2041F20000C4F202004FF48051C1
:100D700002F0AAFC26E09DF80E2040F60040C4F2E6
:100D80000200012102F0A0FC1CE09DF80E2041F2BF
:100D90000000C4F2020001904FF4806102F094FC64
:100DA00001989DF80E204FF4805102F08DFC9DF8C3
:100DB0000E2040F60040C4F20200012102F084FC43
:100DC00000E0FFE7012004B080BD000080B582B0E4
:100DD00040F6044002F0F6FE40F6014002F0F2FE5A
:100DE0004FF4406002F0EEFE41F20E1002F0EAFE17
:100DF00041F20000C4F20200002201924FF40043CD
:100E0000114602F09BFC019A40F20040C4F202003D
:100E10004FF48063114602F091FC019A0020C4F265
:100E200002004FF48073114602F088FC02B080BDCE
:100E300010B5B0B000208DF8B30040F20040C4F20D
:100E4000020006908021079102F062FC014606989C
:100E50008DF8B4104021089102F05AFC0146069822
:100E60008DF8B5102021099102F052FC0146069838
:100E70008DF8B61010210A9102F04AFC014606983E
:100E80008DF8B71008210B9102F042FC07998DF8FC
:100E9000B80040F60040C4F202000C9002F038FCAA
:100EA000089902460C988DF8B92002F031FC099996
:100EB00002460C988DF8BA2002F02AFC0A990246E4
:100EC0000C988DF8BB2002F023FC0B9902460C987D
:100ED0008DF8BC2002F01CFC01460C988DF8BD106A
:100EE000042102F015FC01460C988DF8BE10022179
:100EF00002F00EFC8DF8BF0045F2D810C0F60000DD
:100F00000D90016842688368D0F80CC0D0F810E0FA
:100F100044692494CDF88CE0CDF888C021932092C8
:100F20001F918169C269036AD0F824C0D0F828E013
:100F3000C46A2A94CDF8A4E0CDF8A0C027932692E5
:100F40002591006B2B9045F20C20C0F600000E900E
:100F5000016842688368D0F80CC0D0F810E044699A
:100F60001794CDF858E0CDF854C014931392129111
:100F70008169C269036AD0F824C0D0F828E0C46A45
:100F80001D94CDF870E0CDF86CC01A9319921891A9
:100F9000006B1E904FF4FA60119032208DF84300E0
:100FA00001200F90FFE70F980C2800F3BC80FFE7AB
:100FB0000F991FA850F82100007801281CD1FFE7E5
:100FC0000F990DF1B300405CB0B9FFE79DF83C10FC
:100FD000084600F045FB0F991FA850F8211000208B
:100FE00008700F9A12A951F8221048629DF83C002F
:100FF000012100F0D3FC91E00F991FA850F82100C7
:101000000078022839D1FFE70F990DF1B300405C59
:1010100098BBFFE79DF83C10084600F021FB0F99B4
:1010200012A850F82110002048620F981FAA0592BC
:1010300052F820104B690F9952F821108969DDF898
:101040003CC052F82CC0DCF81CC0DDF83CE052F883
:101050002E20D2F80CE06A46C2F808E0C2F804C0BC
:101060001160C1B20122084602F0F2FE05980F9904
:1010700050F82110032008704FE00F991FA850F876
:1010800021000078032813D1FFE70F9912A850F828
:101090002100407860B9FFE70F991FA850F8211090
:1010A000002008709DF83C00012100F077FC33E03F
:1010B0000F991FA850F82100007801282BD1FFE7D5
:1010C0000F990DF1B300405C28B3FFE70F991FA8FB
:1010D00050F8210040889DF8431064225143884213
:1010E00019DDFFE70F991FA8039050F82110002089
:1010F000049048809DF83C10084600F0B1FA03992E
:1011000004980F9A51F8221008709DF83C000421B1
:1011100000F044FCFFE7FFE7FFE7FFE7FFE70F987A
:1011200001300F903FE730B010BD000040F6E011F5
:10113000C2F2000148880130488040F68021C2F2A6
:10114000000148880130488040F6A821C2F2000121
:1011500048880130488040F6D021C2F2000148881A
:101160000130488040F6F821C2F200014888013081
:10117000488040F62031C2F20001488801304880A2
:1011800040F64831C2F2000148880130488040F6FC
:101190007031C2F2000148880130488040F6983131
:1011A000C2F2000148880130488040F60821C2F2AE
:1011B000000148880130488040F63021C2F2000129
:1011C00048880130488040F65821C2F20001488822
:1011D000013048807047000080B588B040F6044078
:1011E00002F0F0FC41F20E1002F0ECFC41F20000C3
:1011F000C4F20200049000220692202300931146BC
:1012000002F0EAFA0498069A40230193114602F08C
:10121000E3FA0498069A08230293114602F0DCFAD6
:101220000498069A10230393114602F0D5FA049805
:10123000069A01230593114602F0CEFA0498069A05
:1012400002230793114602F0C7FA009B0498059900
:10125000069A02F073FA019B04980599069A02F027
:101260006DFA029B04980599069A02F067FA039BAF
:1012700004980599069A02F061FA0498059B069A6B
:10128000194602F05BFA04980599069A079B02F04A
:1012900055FA08B080BD000080B588B08DF81E00FA
:1012A0008DF81D109DF81D00042804DBFFE7FF20CA
:1012B0008DF81F0077E09DF81D0000F001008DF80B
:1012C0001C009DF81D00C0F340008DF81B009DF828
:1012D0001E0001460591032860D80599DFE801F05A
:1012E000350213249DF81C2041F20000C4F20200D4
:1012F0000490202102F0E8F904989DF81B20402179
:1013000002F0E2F94BE09DF81C2041F20000C4F22B
:1013100002000390082102F0D7F903989DF81B20E2
:10132000102102F0D1F93AE09DF81C2041F20000B2
:10133000C4F202000290012102F0C6F902989DF861
:101340001B20022102F0C0F929E09DF81C2041F287
:101350000000C4F202000190202102F0B5F90198CA
:101360009DF81B20402102F0AFF901989DF81C2048
:10137000082102F0A9F901989DF81B20102102F024
:10138000A3F901989DF81C20012102F09DF9019814
:101390009DF81B20022102F097F900E0FFE70120F1
:1013A0008DF81F00FFE79DF91F0008B080BD000009
:1013B00080B586B040F6044002F004FC40F60340DD
:1013C00002F000FC41F20E1002F0FCFB41F20000C2
:1013D000C4F202000290002200924FF48063019355
:1013E000114602F0F9F9009A02984FF480530393E2
:1013F000114602F0F1F9009A40F60040C4F20200F2
:10140000049001230593114602F0E6F9019B02982E
:10141000059A114602F092F90298039B059A11462B
:1014200002F08CF90498059B19461A4602F086F9D9
:1014300001990298059A02F047F902980399059AD2
:1014400002F042F90498059A114602F03DF906B0FF
:1014500080BD000010B5AEB08DF8B6008DF8B510A7
:1014600045F27420C0F6000002900168426883686B
:10147000D0F80CC0D0F810E044692594CDF890E085
:10148000CDF88CC02293219220918169C269036AB0
:10149000D0F824C0D0F828E0C46A2B94CDF8A8E096
:1014A000CDF8A4C0289327922691006B2C9045F28A
:1014B000A820C0F600000390016842688368D0F855
:1014C0000CC0D0F810E044691894CDF85CE0CDF879
:1014D00058C01593149213918169C269036AD0F8B8
:1014E00024C0D0F828E0C46A1E94CDF874E0CDF88A
:1014F00070C01B931A921991006B1F9045F2402007
:10150000C0F600000490016842688368D0F80CC0FF
:10151000D0F810E044690B94CDF828E0CDF824C051
:101520000893079206918169C269036AD0F824C0C2
:10153000D0F828E0C46A1194CDF840E0CDF83CC062
:101540000E930D920C91006B12909DF8B60070B145
:10155000FFE79DF8B50050B1FFE79DF8B6000C28F5
:1015600005DCFFE79DF8B5000D2804DBFFE7FF2051
:101570008DF8B7006FE09DF8B6008DF81700FFE713
:101580009DF817009DF8B510884260DCFFE79DF8D4
:10159000172020A8019050F8220013A951F822101A
:1015A00003F0CCFA01989DF8171050F8210003F0D1
:1015B00027FA9DF8171006A850F82110012048704E
:1015C0009DF817000B2816D1FFE740F60000C4F283
:1015D0000200002102224FF4807302F0FDF89DF812
:1015E000172020A850F8220013A931F82210012258
:1015F00003F09EF824E09DF817000C2816D1FFE7B1
:1016000040F60000C4F20200002102224FF40073F1
:1016100002F0E2F89DF8172020A850F8220013A944
:1016200031F82210012203F083F808E09DF817102A
:1016300020A850F82100012102F0C8FEFFE7FFE7D3
:10164000FFE79DF8170001308DF8170098E700209C
:101650008DF8B700FFE79DF9B7002EB010BD000070
:1016600010B5AEB08DF8B6008DF8B51045F210305B
:10167000C0F600000290016842688368D0F80CC090
:10168000D0F810E044692594CDF890E0CDF88CC0F6
:101690002293219220918169C269036AD0F824C003
:1016A000D0F828E0C46A2B94CDF8A8E0CDF8A4C007
:1016B000289327922691006B2C9045F24430C0F677
:1016C00000000390016842688368D0F80CC0D0F82D
:1016D00010E044691894CDF85CE0CDF858C015933B
:1016E000149213918169C269036AD0F824C0D0F8BA
:1016F00028E0C46A1E94CDF874E0CDF870C01B9346
:101700001A921991006B1F9045F2DC20C0F6000080
:101710000490016842688368D0F80CC0D0F810E0EB
:1017200044690B94CDF828E0CDF824C008930792C3
:1017300006918169C269036AD0F824C0D0F828E014
:10174000C46A1194CDF840E0CDF83CC00E930D92E0
:101750000C91006B12909DF8B60070B1FFE79DF8F8
:10176000B50050B1FFE79DF8B6000C2805DCFFE797
:101770009DF8B5000D2804DBFFE7FF208DF8B700CA
:1017800067E09DF8B6008DF81700FFE79DF8170099
:101790009DF8B510884258DCFFE79DF8172020A877
:1017A000009050F8220013A9019151F8221003F083
:1017B000BBF9009801999DF8172050F8220051F8C4
:1017C000221003F0C5F99DF8170006A951F8202052
:1017D000002050709DF8172051F8222010629DF8CB
:1017E000172051F82210C8619DF817000B280BD163
:1017F000FFE740F60000C4F20200012102224FF48C
:10180000807301F0E9FF19E09DF817000C280BD157
:10181000FFE740F60000C4F20200012102224FF46B
:10182000007301F0D9FF08E09DF8171020A850F8C8
:101830002100002102F0CAFDFFE7FFE7FFE79DF866
:10184000170001308DF81700A0E700208DF8B700D1
:10185000FFE79DF9B7002EB010BD000070470000F3
:1018600082B08DF8070000919DF90700B0F1FF3FAD
:101870000CDCFFE7009800019DF8071001F00F0154
:101880004EF61452CEF20002885409E0009800018E
:101890009DF907104EF20042CEF200028854FFE795
:1018A00002B070477047000081B00090009A116844
:1018B00050689268431CB3FBF2F000FB1230401AF0
:1018C000B0FA80F0400901B0704700007047000096
:1018D00080B588B040F6014002F074F940F603404C
:1018E00002F070F941F20E1002F06CF940F2004083
:1018F000C4F2020000900022079280230193114657
:1019000001F01CFF0098079A40230293114601F052
:1019100015FF0098079A20230393114601F00EFF4C
:101920000098079A10230493114601F007FF0098CE
:10193000079A08230593114601F000FF019B079ABF
:1019400040F60040C4F202000690114601F0F6FE97
:10195000029B0698079A114601F0F0FE039B069839
:10196000079A114601F0EAFE049B0698079A114671
:1019700001F0E4FE059B0698079A114601F0DEFE91
:101980000698079A0423114601F0D8FE0698079A94
:101990000223114601F0D2FE08B080BD10B590B010
:1019A0008DF83F008DF83E1045F27830C0F600000B
:1019B0000090016842688368D0F80CC0D0F810E04D
:1019C00044690794CDF818E0CDF814C0049303924D
:1019D00002918169C269036AD0F824C0D0F828E076
:1019E000C46A0D94CDF830E0CDF82CC00A9309926A
:1019F0000891006B0E909DF83F0048B1FFE79DF8FD
:101A00003E009DF83F2002A951F82210487013E0D3
:101A100001200190FFE701980C280CDCFFE79DF8FE
:101A20003E00019A02A951F822104870FFE7019880
:101A300001300190EFE7FFE710B010BD80B582B034
:101A4000009000980138B0F1807F03D3FFE70120B8
:101A5000019019E0009801384EF21401CEF2000115
:101A600008604FF0FF300F21FFF7FAFE4EF2180129
:101A7000CEF20001002008604EF21002CEF2000209
:101A8000072111600190FFE7019802B080BD0000BE
:101A900080B540F2FC71C2F20001086801300860B4
:101AA00040F2E871C2F20001088801300880FFF7B7
:101AB0003DFB01F087FD80BD80B582B04EF68851B8
:101AC000CEF200010A6843F6080042F47002C4F244
:101AD00002000A6050F8081C41F0010140F8081C9F
:101AE00050F8081C8907FBD5016841F080010160AE
:101AF00000210191019A4F2A06D800BF019A0132B4
:101B00000192019A502AF9D3026842F090020260D1
:101B1000019101994F2905D801990131019101994C
:101B20005029F9D301684FF6FF7221F003010160DB
:101B300050F8081CCFF6F662114040F8081C50F827
:101B4000081C21F4802140F8081C00210160026873
:101B500043F21002C2F2004240F8042C416002F04D
:101B60000DFC02B080BD000080B582B0ADF806006B
:101B700040F2FC70C2F200000068BDF80610884216
:101B80000ED3FFE741F20000C4F20200042101F08D
:101B900093FD40F2FC71C2F2000100200860FFE7F3
:101BA00002B080BD80B582B040F66811C2F200017B
:101BB0000191072002F05EF80198818844F6000048
:101BC000C4F2010002F002FC40F60040C4F2020040
:101BD0004FF4806101F070FD002002B080BD000074
:101BE00080B582B040F69011C2F200010191082048
:101BF00002F040F80198818841F60000C4F200002C
:101C000002F0E4FB40F60040C4F202004FF4006131
:101C100001F052FD002002B080BD000080B582B00E
:101C200040F6B811C2F200010191092002F022F839
:101C30000198818841F60040C4F2000002F0C6FB22
:101C400040F60000C4F20200402101F035FD002002
:101C500002B080BD80B582B040F62801C2F200011A
:101C600001910A2002F006F80198818842F20000F2
:101C7000C4F2000002F0AAFB40F60000C4F2020029
:101C8000802101F019FD002002B080BD80B582B036
:101C900040F6F001C2F200010191042001F0EAFFD8
:101CA000019881884FF0804002F090FB41F20000E3
:101CB000C4F202004FF4807101F0FEFC002002B07B
:101CC00080BD000080B582B040F60001C2F2000184
:101CD00000910120019001F0CDFF0098818840F231
:101CE0000040C4F2000002F071FB019940F2004094
:101CF000C4F2020001F0E0FC002002B080BD000050
:101D000080B582B040F6A001C2F20001009102202D
:101D1000019001F0AFFF0098818841F20000C4F209
:101D2000000002F053FB019940F20040C4F20200AF
:101D300001F0C2FC002002B080BD000080B582B07E
:101D400040F6C801C2F200010191032001F092FFA8
:101D50000198818841F20040C4F2000002F036FB95
:101D600041F20000C4F20200802101F0A5FC002035
:101D700002B080BD80B586B040F20040C4F20100E0
:101D8000082102F0EFFE08B3FFE740F20040C4F282
:101D900001000390082102F0DBFE039802F032FDFF
:101DA00001460398ADF8161040F65001C2F200014A
:101DB00004914968BDF8162011448AB2022102F04C
:101DC000B7FC04990B2001F055FFFFE740F20040FB
:101DD000C4F20100102102F0C5FE08B3FFE740F293
:101DE0000040C4F201000190102102F0B1FE019800
:101DF00002F008FD01460198ADF8141040F6780194
:101E0000C2F2000102914968BDF8142011448AB25F
:101E1000032102F08DFC02990C2001F02BFFFFE75B
:101E2000002006B080BD000080B582B040F61811D9
:101E3000C2F200010191052001F01CFF0198818888
:101E400044F20000C4F2010002F0C0FA40F6004083
:101E5000C4F202004FF4807101F02EFC002002B0A9
:101E600080BD000080B582B040F64011C2F2000192
:101E70000191062001F0FEFE0198818844F20040A5
:101E8000C4F2010002F0A2FA40F60040C4F20200DF
:101E90004FF4007101F010FC002002B080BD000082
:101EA00080B544F20000C4F20100012102F050FEAE
:101EB000FFF7BAFF80BD000080B544F60000C4F211
:101EC0000100012102F044FEFFF76CFE80BD00001E
:101ED00080B544F20040C4F20100012102F038FE56
:101EE000FFF7C0FF80BD000080B54FF080400121AA
:101EF00002F02EFEFFF7CAFE80BD000080B540F262
:101F00000040C4F20000012102F022FEFFF7DAFED9
:101F100080BD000080B541F20000C4F20000012144
:101F200002F016FEFFF7ECFE80BD000080B541F226
:101F30000040C4F20000012102F00AFEFFF7FEFE9D
:101F400080BD000080B541F60000C4F20000012110
:101F500002F0FEFDFFF744FE80BD000080B540F2B8
:101F60000040C4F20100082102F0FCFD18B1FFE7B7
:101F7000FFF700FFFFE740F20040C4F2010010212C
:101F800002F0F0FD18B1FFE7FFF7F4FEFFE780BDB8
:101F900080B542F20000C4F20000012102F0D8FD39
:101FA000FFF758FE80BD000080B541F60040C4F246
:101FB0000000012102F0CCFDFFF730FE80BD0000E3
:101FC00080B582B0002101910846FEF7ADFE019870
:101FD0000221FFF761F901200C2140F22622FEF7D1
:101FE000A1FD02B080BD000080B584B040F6034082
:101FF00001F0E8FD40F60040C4F20200019001212A
:10200000002202924FF48063039301F097FB019842
:102010000299039B022201F0DFFB04B080BD0000A7
:1020200080B584B040F6034001F0CCFD40F600409E
:10203000C4F2020001900121002202924FF40063D9
:10204000039301F07BFB01980299039B022201F0AC
:10205000C3FB04B080BD000080B584B040F60240F0
:1020600001F0B0FD40F60000C4F202000190012131
:10207000002202924023039301F060FB0198029931
:10208000039B022201F0A8FB04B080BD80B584B0A0
:1020900040F6024001F096FD40F60000C4F2020056
:1020A00001900121002202928023039301F046FB5C
:1020B00001980299039B022201F08EFB04B080BDBF
:1020C00080B584B040F6044001F07CFD41F2000090
:1020D000C4F2020001900121002202924FF48073A9
:1020E000039301F02BFB01980299039B022201F05C
:1020F00073FB04B080BD000080B584B040F60140A1
:1021000001F060FD40F20040C4F2020001900022A4
:10211000029201230393194601F010FB01980299E2
:10212000039B022201F058FB04B080BD80B584B04F
:1021300040F6014001F046FD40F20040C4F20200CA
:1021400001900121002202920223039301F0F6FA8A
:1021500001980299039B1A4601F03EFB04B080BD32
:1021600080B584B040F6044001F02CFD41F200003F
:10217000C4F2020001900121002202928023039305
:1021800001F0DCFA01980299039B022201F024FB82
:1021900004B080BD80B588B040F6024001F012FD69
:1021A00040F60000C4F202000590022103910022D3
:1021B00001924FF48073049301F0C0FA019A0399DD
:1021C00005984FF40073079301F0B8FA039A049B43
:1021D00005980121029101F0FFFA0299039A0598EE
:1021E000079B01F0F9FA049A05980321069101F082
:1021F000F9F905980699079A01F0F4F908B080BD3D
:1022000080B584B040F6034001F0DCFC40F60040AD
:10221000C4F2020001900121002202924FF4807367
:10222000039301F08BFA01980299039B022201F0BB
:10223000D3FA04B080BD000080B584B040F60340FE
:1022400001F0C0FC40F60040C4F202000190012100
:10225000002202924FF40073039301F06FFA019889
:102260000299039B022201F0B7FA04B080BD00007E
:1022700080B58EB04FF4885001F0A4FC4FF0807010
:1022800001F0DCFC0020C4F20100069002F0C4FA68
:1022900000F086F8069801210591ADF81C10002188
:1022A0000491ADF81E10ADF8201041F2873209926A
:1022B000ADF822108DF8281007A902F0ABFB0499A5
:1022C000059A0698ADF82C20ADF82E100222019246
:1022D000ADF830200822ADF832204FF48072ADF80E
:1022E00034204FF40072ADF836200BAA009202F0B1
:1022F00075F8009A0599069802F070F8009A01990D
:10230000069802F06BF8009A06980321039102F0F8
:1023100065F8049A0698114602F00AFA049906989C
:102320006022029202F0BEF9049A0698114602F069
:1023300023FA049A0599069802F0FAF9029A059987
:10234000069802F0AFF9049A0599069802F014FA7B
:102350000199049A069802F0EBF90199029A0698FD
:1023600002F0A0F90199049A069802F005FA03997F
:10237000049A069802F0DCF9029A0399069802F092
:1023800091F90399049A069802F0F6F905990698CE
:1023900002F006FC069802F033FB0EB080BD000090
:1023A00080B588B040F6044001F00CFC41F200001A
:1023B000C4F20200059002210191002200924FF424
:1023C0000073029301F0BAF9009A019905984FF44D
:1023D0000063039301F0B2F9009A019905984FF454
:1023E0000053049301F0AAF9009A019905984FF45B
:1023F0008043079301F0A2F90099019A029B059886
:1024000001F0EAF90099019A039B059801F0E4F9BB
:102410000099019A049B059801F0DEF90099019A50
:102420000598079B01F0D8F9029A059801210691B9
:1024300001F0D8F8039A0598069901F0D3F8049AA8
:102440000598069901F0CEF805980699079A01F0CB
:10245000C9F808B080BD000080B586B041F2121006
:1024600001F0B0FB4FF0807001F0E8FB44F6000093
:10247000C4F20100009002F04DFB009802F0CCF98C
:10248000FFF7B2FD0098C721ADF8081000210191B7
:10249000ADF80A10ADF80C100491ADF80E108DF8DF
:1024A000141002A902F0B6FA009801F085FF009816
:1024B000012102F04DFB019A1A20114601F02CFA7D
:1024C00006B080BD80B586B041F2060001F07AFB0F
:1024D0004FF0807001F0B2FB41F60000C4F2000042
:1024E000009002F017FB009802F096F9FFF798FDB4
:1024F0000098C721ADF8081000210191ADF80A102D
:10250000ADF80C100491ADF80E108DF8141002A95E
:1025100002F080FA009801F04FFF0098012102F0CC
:1025200017FB019A2B20114601F0F6F906B080BD89
:1025300080B586B041F2070001F044FB4FF0807097
:1025400001F07CFB41F60040C4F20000009002F074
:10255000E1FA009802F060F9FFF77EFD0098C721CC
:10256000ADF8081000210191ADF80A10ADF80C107B
:102570000491ADF80E108DF8141002A902F04AFA79
:10258000009801F019FF0098012102F0E1FA019A88
:102590002C20114601F0C0F906B080BD80B586B090
:1025A00041F2080001F00EFB4FF0807001F046FB95
:1025B00042F20000C4F20000009002F0ABFA009872
:1025C00002F02AF9FFF762FD0098C721ADF8081064
:1025D00000210191ADF80A10ADF80C100491ADF88E
:1025E0000E108DF8141002A902F014FA009801F0F0
:1025F000E3FE0098012102F0ABFA019A2D2011466A
:1026000001F08AF906B080BD80B586B04FF48050E5
:1026100001F0D8FA4FF0807001F010FB4FF08040CD
:10262000009002F077FA009802F0F6F8FFF748FD04
:102630000098C721ADF8081000210191ADF80A10EB
:10264000ADF80C100491ADF80E108DF8141002A91D
:1026500002F0E0F9009801F0AFFE0098012102F0CD
:1026600077FA019A1C20114601F056F906B080BD98
:1026700080B586B041F2010001F0A4FA4FF08070FD
:1026800001F0DCFA40F20040C4F20000009002F0D9
:1026900041FA009802F0C0F8FFF72EFD0098C7211C
:1026A000ADF8081000210191ADF80A10ADF80C103A
:1026B0000491ADF80E108DF8141002A902F0AAF9D9
:1026C000009801F079FE0098012102F041FA019A88
:1026D0001D20114601F020F906B080BD80B58EB0F6
:1026E00041F2020001F06EFA4FF0807001F0A6FA9C
:1026F00040F60000C4F20000069002F08DF800F0F1
:1027000081F8069801210191ADF81C100021059176
:10271000ADF81E10ADF8201041F287320992ADF8E5
:1027200022108DF8281007A902F074F9019A059972
:102730000698ADF82C20ADF82E1002220292ADF8CA
:1027400030200822ADF832204FF48072ADF83420EA
:102750004FF40072ADF836200BAA009201F03EFE55
:10276000009A0199069801F039FE009A029906989C
:1027700001F034FE009A06980321049101F02EFE28
:10278000059A0698114601F0D3FF05990698602234
:10279000039201F087FF059A0698114601F0ECFFBD
:1027A0000199059A069801F0C3FF0199039A0698CA
:1027B00001F078FF0199059A069801F0DDFF029972
:1027C000059A069801F0B4FF0299039A069801F061
:1027D00069FF0299059A069801F0CEFF0499059ABF
:1027E000069801F0A5FF039A0499069801F05AFF94
:1027F0000499059A069801F0BFFF069802F000F9C7
:102800000EB080BD80B588B040F6044001F0DAF922
:1028100040F60040C4F20200059002210691002219
:1028200001924FF48053029300F088FF019A0598BB
:1028300006994FF40053039300F080FF019A059826
:1028400006994FF48043049300F078FF019A0598AD
:1028500006994FF40043079300F070FF0199029B23
:102860000598069A00F0B8FF0199039B0598069A0F
:1028700000F0B2FF0199049B0598069A00F0ACFFA6
:1028800001990598069A079B00F0A6FF029A059801
:10289000069900F0A7FE039A0598069900F0A2FE9B
:1028A000049A0598069900F09DFE05980699079AE6
:1028B00000F098FE08B080BD80B58EB041F20300F4
:1028C00001F080F94FF0807001F0B8F940F6004057
:1028D000C4F20000069001F09FFF00F081F8069816
:1028E00001210191ADF81C1000210591ADF81E10D9
:1028F000ADF8201041F287320992ADF822108DF820
:10290000281007A902F086F8019A05990698ADF8F3
:102910002C20ADF82E1002220292ADF830200822B1
:10292000ADF832204FF48072ADF834204FF40072CD
:10293000ADF836200BAA009201F050FD009A0199E3
:10294000069801F04BFD009A0299069801F046FDA9
:10295000009A06980321049101F040FD059A06981B
:10296000114601F0E5FE059906986022039201F0F8
:1029700099FE059A0698114601F0FEFE0199059A06
:10298000069801F0D5FE0199039A069801F08AFE97
:102990000199059A069801F0EFFE0299059A0698AA
:1029A00001F0C6FE0299039A069801F07BFE029997
:1029B000059A069801F0E0FE0499059A069801F040
:1029C000B7FE039A0499069801F06CFE0499059AE3
:1029D000069801F0D1FE069802F012F80EB080BD04
:1029E00080B586B04FF4406001F0ECF80020C4F2EE
:1029F000020003900221049100220092012301931E
:102A000000F09CFE009A0398049B194600F096FE85
:102A1000009A039804990423029300F08FFE009A11
:102A2000039804990823059300F088FE0099019B00
:102A30000398049A00F0D0FE00990398049B1A466C
:102A400000F0CAFE0099029B0398049A00F0C4FEAD
:102A500000990398049A059B00F0BEFE019A039822
:102A6000049900F0BFFD0398049A114600F0BAFDE6
:102A7000029A0398049900F0B5FD03980499059A09
:102A800000F0B0FD06B080BD80B586B041F2040014
:102A900001F098F84FF0807001F0D0F841F200009A
:102AA000C4F20000009002F035F8009801F0B4FE86
:102AB000FFF73CFB0098C721ADF8081000210191F9
:102AC000ADF80A10ADF80C100491ADF80E108DF8A9
:102AD000141002A901F09EFF009801F06DFC00980F
:102AE000012102F035F8019A3620114600F014FF5A
:102AF00006B080BD80B586B041F2050001F062F8F5
:102B00004FF0807001F09AF841F20040C4F20000EA
:102B1000009001F0FFFF009801F07EFEFFF720FB20
:102B20000098C721ADF8081000210191ADF80A10F6
:102B3000ADF80C100491ADF80E108DF8141002A928
:102B400001F068FF009801F037FC0098012101F0C6
:102B5000FFFF019A3720114600F0DEFE06B080BD6F
:102B600080B58EB041F2011001F02CF84FF080706A
:102B700001F064F840F20040C4F20100059001F059
:102B80004BFEFFF707FB0598C721ADF81C1000218D
:102B90000691ADF81E10ADF820104FF6FF720992A5
:102BA000ADF822108DF8281007A901F033FF059821
:102BB0000699ADF8301001220492ADF82C20ADF842
:102BC0003210ADF82E10ADF83410ADF836100221E9
:102BD00001910BAA009201F001FC009A05980321D3
:102BE000039101F0FBFB01990598069A01F0A0FD05
:102BF000019905983022029201F054FD019905983F
:102C0000069A01F0B9FD03990598069A01F090FD26
:102C1000029A0399059801F045FD03990598069AD3
:102C200001F0AAFD059801F0C7FB0499059801F091
:102C3000B7FF0598082101F08BFF0598102101F0DE
:102C400087FF069A2E20114600F066FE0EB080BD6A
:102C500080B586B041F2101000F0B4FF4FF08070E4
:102C600000F0ECFF44F20000C4F20100009001F01B
:102C700051FF009801F0D0FDFFF7C2FA0098C7217C
:102C8000ADF8081000210191ADF80A10ADF80C1054
:102C90000491ADF80E108DF8141002A901F0BAFEDF
:102CA000009801F089FB0098012101F051FF019A81
:102CB0001820114600F030FE06B080BD80B586B009
:102CC00041F2111000F07EFF4FF0807000F0B6FF6F
:102CD00044F20040C4F20100009001F01BFF009894
:102CE00001F09AFDFFF7A8FA0098C721ADF8081087
:102CF00000210191ADF80A10ADF80C100491ADF867
:102D00000E108DF8141002A901F084FE009801F055
:102D100053FB0098012101F01BFF019A1920114675
:102D200000F0FAFD06B080BDFFE7FEE780B58EB08B
:102D3000002004900BA9019100F094FB0120029067
:102D400006A9039100F08EFB46F20040C4F2000099
:102D5000059000F05BF80199029A049B05988DF8A4
:102D600030308DF831208DF832308DF833208DF8E9
:102D700034308DF835308DF82C308DF82D30062319
:102D80008DF82E308DF82F200522ADF8362000F07A
:102D90004DF904990298ADF82210ADF82410ADF861
:102DA0002600FDF7C3FC01460498490101F50051D6
:102DB000ADF81810ADF81A00FDF7B8FC0299049AA6
:102DC000034603985B0103F50053ADF81C30ADF8E2
:102DD0001E20ADF820208DF8281000F047F8049A46
:102DE0001420114600F098FD0598022100F0FEF92C
:102DF00040F2EC70C2F2000040F21801C2F2000191
:102E00006422FDF7CDFC0EB080BD000080B584B01B
:102E10000390039846F20041C4F20001884209D1B0
:102E2000FFE740F61900029000F0F4FE029800F06F
:102E3000DDFE08E040F61A00019000F0EBFE01987C
:102E400000F0D4FEFFE704B080BD000082B0019026
:102E500000208DF8030001988069C0F302108DF8FE
:102E600003009DF8030002B07047000082B001909B
:102E7000002000900198418901208840009046F28E
:102E80000061C4F20001086840F001000860009A87
:102E900046F21C61C4F20001086890430860019882
:102EA000C08908BBFFE7009A46F20C61C4F200013A
:102EB0000868904308600199CA88488840EA02403F
:102EC0004A8946F24061C4F2000141F8320001999A
:102ED0008A88088840EA02404A8946F24461C4F27E
:102EE000000141F83200FFE70198C089012821D193
:102EF000FFE7009A46F20C61C4F200010868104333
:102F0000086001990A88488840EA02404A8946F2E6
:102F10004061C4F2000141F8320001998A88C888F2
:102F200040EA02404A8946F24461C4F2000141F895
:102F30003200FFE70198808948B9FFE7009A46F21E
:102F40000461C4F2000108689043086008E0009A38
:102F500046F20461C4F20001086810430860FFE70C
:102F60000198008948B9FFE7009A46F21461C4F25B
:102F7000000108689043086008E0009A46F2146176
:102F8000C4F20001086810430860FFE70198007C64
:102F9000012809D1FFE7009A46F21C61C4F2000142
:102FA000086810430860FFE746F20061C4F20001C0
:102FB000086820F00100086002B0704780B586B054
:102FC00041F2190000F0FEFD4FF4406000F0FAFD00
:102FD0000020C4F20200039000210291022201921B
:102FE0004FF40063009300F0F7FB009B0199029AF5
:102FF000039800F0A3FB009A03980921049100F0C4
:10300000F1FA019A029903984FF48053059300F066
:10301000E3FB0199029A0398059B00F08FFB03984C
:103020000499059A00F0DEFA06B080BD80B586B03E
:10303000059004914FF6FF70039000208DF80B006F
:103040000599086820F0020008600599086840F0BA
:1030500001000860FFE7059841680020C90701905A
:1030600031B9FFE70398002818BF01200190FFE75E
:103070000198C00720B1FFE7039801380390EAE701
:1030800005984068C00720B9FFE700208DF80B00C5
:10309000A7E0049991F800C091F801E08B78CA7814
:1030A0004FF0407000EA0E6040EA8C7003F00F03AE
:1030B00040EA034002F0070240EA02504989013920
:1030C0006FF39F2108440599C8610498007901288D
:1030D00006D1FFE70599086840F08000086005E028
:1030E0000599086820F080000860FFE7049840799F
:1030F000012806D1FFE70599086840F04000086004
:1031000005E00599086820F040000860FFE7049892
:103110008079012806D1FFE70599086840F0200072
:10312000086005E00599086820F020000860FFE7C6
:103130000498C079012806D1FFE70599086820F0B6
:103140001000086005E00599086840F0100008606C
:10315000FFE70498007A012806D1FFE7059908687F
:1031600020F00800086005E00599086840F00800B4
:103170000860FFE70498407A012806D1FFE7059927
:10318000086840F00400086005E00599086820F030
:1031900004000860FFE70599086820F00100086056
:1031A0004FF6FF700390FFE7059841680020C907BC
:1031B000009031B1FFE70398002818BF012000906C
:1031C000FFE70098C00720B1FFE70398013803909C
:1031D000EAE7039820B1FFE701208DF80B00FFE735
:1031E000FFE79DF80B0006B080BD000082B00190A3
:1031F0000091009A019948691043486102B07047F4
:1032000082B001900091009AC2F38411012088409D
:103210000199120B885002B07047000080B586B04B
:103220000490039100200290019003984CF28101D8
:10323000884206D1FFE70498002100F0EFF80290E1
:1032400027E003988421C0F20101884206D1FFE7FC
:103250000498012100F0E2F8029019E0039848F286
:10326000CB01C0F20101884205D1FFE70498FFF7C6
:10327000EDFD02900BE004980399090B4058039967
:10328000C1F384120121914008400290FFE7FFE75B
:10329000FFE704984069039901F01F020121914062
:1032A00008400190029838B1FFE7019820B1FFE78C
:1032B00001208DF8170003E000208DF81700FFE7CC
:1032C0009DF8170006B080BD83B002908DF80710FE
:1032D000009202989DF8071000EB0110D0F8B001A1
:1032E00000F00400009908720098007A58B9FFE7CE
:1032F00002989DF8071000EB0110D0F8B001400DC6
:10330000009908600AE002989DF8071000EB011090
:10331000D0F8B001C00800994860FFE702989DF816
:10332000071000EB0110D0F8B00100F00200009986
:10333000487202989DF8071000EB0110D0F8B40114
:10334000000A0099C87402989DF8071000EB01105C
:10335000D0F8B40100F00F000099887202989DF82F
:10336000071000EB0110D0F8B8010099C87202985C
:103370009DF8071000EB0110D0F8B801000A009981
:10338000087302989DF8071000EB0110D0F8B801FF
:10339000000C0099487302989DF8071000EB01108B
:1033A000D0F8B801000E0099887302989DF80710B4
:1033B00000EB0110D0F8BC010099C87302989DF889
:1033C000071000EB0110D0F8BC01000A0099087446
:1033D00002989DF8071000EB0110D0F8BC01000C1A
:1033E0000099487402989DF8071000EB0110D0F87E
:1033F000BC01000E009988749DF8070030B9FFE702
:103400000299C86840F02000C86005E00299086988
:1034100040F020000861FFE703B0704782B00190E0
:103420008DF8031000208DF802009DF8030038B9D4
:10343000FFE70198C06800F003008DF802000DE07E
:103440009DF80300012807D1FFE70198006900F00B
:1034500003008DF8020000E0FFE7FFE79DF802009F
:1034600002B0704786B08DF817000491049838B9FF
:10347000FFE7FFE7FFE701200028FBD1FFE7FFE7B9
:103480009DF8170001460291032800F27D80029901
:10349000DFE801F0021E34560499002001904871C3
:1034A0000499C87104998871049A40F2FF315181DE
:1034B0000499087204994870049A02219170049941
:1034C000C87004990871049948720499087062E000
:1034D00004990120C881049900200090087404997F
:1034E0000881049908800499488004998880049987
:1034F000C88004998881049948814CE000208DF8A7
:103500000F00FFE79DF80F0007280DD8FFE704988C
:103510009DF80F1001440020C872FFE79DF80F00CE
:1035200001308DF80F00EDE70499002088720499AE
:1035300048600499087204994872049908602AE066
:1035400000208DF80F00FFE79DF80F0007280DD829
:10355000FFE704989DF80F1001440020C872FFE7B0
:103560009DF80F0001308DF80F00EDE70499002061
:10357000887204994860049908720499C87404997F
:1035800048720499086006E0FFE7FFE70120002881
:10359000FBD1FFE7FFE706B07047000081B0009065
:1035A000009840F6C031C2F200010860FFE740F623
:1035B000C030C2F20000006808B1FFE7F7E701B0D1
:1035C0007047000040F6C030C2F20000006840B111
:1035D000FFE740F6C031C2F2000108680138086018
:1035E000FFE7704786B00590049103920598006A42
:1035F00001900598406A00900020ADF80A00FFE7AE
:10360000BDF80A00072821D8FFE7BDF80A10039883
:10361000C840C00798B1FFE7BDF80A0081000F203D
:1036200000FA01F10198884301900498BDF80A104E
:10363000890000FA01F1019808430190FFE7FFE7D4
:10364000BDF80A000130ADF80A00D9E70820ADF84E
:103650000A00FFE7BDF80A000F2825D8FFE7BDF8EC
:103660000A100398C840C007B8B1FFE7BDF80A00C8
:103670006FF01F0101EB80020F2000FA02F20098A8
:10368000904300900498BDF80A2001EB820100FAF3
:1036900001F1009808430090FFE7FFE7BDF80A003A
:1036A0000130ADF80A00D5E7019805990862009845
:1036B0000599486206B0704782B001900091009869
:1036C0000199C86202B0704783B0029001918DF8F1
:1036D00003209DF8030020B1FFE70198029988615B
:1036E00003E0019802998862FFE703B07047000089
:1036F00080B500F0BBF8FCF7B5FFFEF7E9F8FDF781
:1037000063F8FDF755FEFDF761FBFDF765FD80BD34
:1037100083B001900091019800690099084204D09B
:10372000FFE701208DF80B0003E000208DF80B006F
:10373000FFE79DF80B0003B07047000087B00690CC
:103740000591049203930698006801900698C0685A
:1037500000900020ADF80A00FFE7BDF80A000F282E
:1037600032D8FFE7BDF80A100398C840C00720B35D
:10377000FFE7BDF80A004100032000FA01F20199B9
:10378000914301910599BDF80A20520001FA02F215
:10379000019911430191BDF80A10490000FA01F1A5
:1037A0000098884300900498BDF80A10490000FA78
:1037B00001F1009808430090FFE7FFE7BDF80A0019
:1037C0000130ADF80A00C8E7019806990860009832
:1037D0000699C86007B0704786B005908DF8131041
:1037E000039202939DF81300012806D1FFE7029A85
:1037F000059948681043486005E0029A05994868B1
:1038000090434860FFE70598806800900020ADF87D
:103810000600FFE7BDF806000F2821D8FFE7BDF836
:1038200006100298C840C00798B1FFE7BDF806002F
:103830004100032000FA01F10098884300900398AA
:10384000BDF80610490000FA01F100980843009005
:10385000FFE7FFE7BDF806000130ADF80600D9E745
:1038600000980599886006B07047000080B584B064
:1038700040F6044000F0A6F941F20000C4F2020054
:10388000019001210022029204230393FFF756FFC7
:1038900001980299039B0222FFF79EFF04B080BDAE
:1038A00080B582B00020019000F06CFDFFF720FF92
:1038B0004FF4E13001F08CF9FCF7CCFEFEF7D8FEB6
:1038C000FFF7E2F8FFF716F9FEF79EFEFFF7C0F9E3
:1038D000FFF7F4F9FEF7C0FDFEF7F4FDFEF728FE52
:1038E000FEF75CFEFFF73CF9FEF7E6FFFEF7C0FCD3
:1038F000FEF7F4FEFDF72AF8FEF762FB4FF4FA70CC
:10390000FFF74CFEFFE74CF25030FEF72DF9FDF7C4
:103910008FFAFDF795F8F6E780B584B08DF80F00C3
:103920008DF80E108DF80D2000200290019000906F
:103930004EF60C50CEF20000006800F4E060B0F5E6
:10394000E06F05D1FFE700200190042000904AE0DD
:103950004EF60C50CEF20000006800F4E060B0F5C6
:10396000C06F05D1FFE7012001900320009039E0EE
:103970004EF60C50CEF20000006800F4E060B0F5A6
:10398000A06F04D1FFE702200190009029E04EF6DD
:103990000C50CEF20000006800F4E060B0F5806FDB
:1039A00005D1FFE7032001900120009018E04EF6BA
:1039B0000C50CEF20000006800F4E060B0F5407FEB
:1039C00005D1FFE7042001900020009007E04FF4AC
:1039D000A06000F037F8022001900090FFE7FFE7B9
:1039E000FFE7FFE7FFE79DF80E000199C1F1040131
:1039F000884002909DF80D000099C1F104020F214A
:103A0000D1400140029808430290029800010290C0
:103A100002989DF80F104EF20042CEF20002885438
:103A20009DF80F2002F01F01012088404EF2001186
:103A3000CEF2000141EAD20121F00301086004B096
:103A400080BD000081B0009000980021C0F2FA51C2
:103A500008434EF60C51CEF20001086001B07047E9
:103A600098B08DF85F000020159040F20671C0F606
:103A70000811099140F20121C0F203410891079019
:103A80000690059104900391029043F60800C4F259
:103A900002000068C0F3810016901698019040B1B2
:103AA000FFE7019801280AD0FFE7019802280CD00F
:103AB0003EE042F20040C0F2F40014903EE041F2D9
:103AC0000020C0F27A00149038E043F60400C4F2FB
:103AD0000200016801F03F0110910168C1F38811F3
:103AE0000F91016801F44032022101EBD2310D91B6
:103AF000006800F480000E900E98B0F5800F06D19B
:103B0000FFE741F20020C0F27A000C9005E042F29B
:103B10000040C0F2F4000C90FFE70C981099B0FB45
:103B2000F1F00F9948430D99B0FBF1F0149005E0C6
:103B300042F20040C0F2F4001490FFE743F60800A0
:103B4000C4F202000168C9B209090B910B9A06A9D7
:103B5000895C0A9114990A9AD14013910168C1F3C2
:103B600082210B910B9A04A9895C0A9113990A9AF4
:103B7000D1401291006880B2400B0B900B9902A8C3
:103B8000405C0A9013980A99C84011909DF85F0014
:103B900001460091032810D80099DFE801F00205E2
:103BA000080B1498159009E01398159006E01298E8
:103BB000159003E01198159000E0FFE7159818B0F4
:103BC0007047000081B0ADF80200BDF8020000F0BF
:103BD0001F02012101FA02F3810943F60002C4F237
:103BE000020288581843885001B0704781B0ADF880
:103BF0000200BDF8020000F01F02012101FA02F3E9
:103C0000810943F60002C4F20202885898438850A2
:103C100001B0704781B0ADF80200BDF8020000F0BD
:103C20001F02012101FA02F3810943F60002C4F2E6
:103C3000020288581843885001B0704781B0009044
:103C400000986FF08071884209D1FFE7009A43F62F
:103C50008C01C4F2020108681040086008E0009A74
:103C600043F68C01C4F20201086810430860FFE7C4
:103C700001B0704780B584B08DF80F0002910299B1
:103C800008780130087002980078022840F0DD8042
:103C9000FFE70299002008700298807801460191A0
:103CA000032800F2CE800199DFE801F0020D845E66
:103CB00002990020C861029908629DF80F10084619
:103CC000FDF7CEFCBDE00298C07828B1FFE702996D
:103CD000486A0130486204E00299486A0138486243
:103CE000FFE70299C8690130C8610299486901304B
:103CF0004861029948684B690A6A02EB40029B00DE
:103D0000013392FBF3F2801A088302994B684869E9
:103D10000A6A02EB43038000421C93FBF2F000FBB3
:103D20001230086202988168C069884207D3FFE7B1
:103D30000299C868486102990220887013E00299CC
:103D4000088B096988420DDCFFE70299088B4883DC
:103D500002990869088302990020086202990320E9
:103D60008870FFE7FFE76CE00298C07828B1FFE7B2
:103D70000299486A0130486204E00299486A0138B1
:103D80004862FFE70299C8690130C8610299086971
:103D9000088302988168C06988420AD3FFE70299C4
:103DA000C86848610299488B08830299022088708C
:103DB000FFE746E00298C07828B1FFE70299486A19
:103DC0000130486204E00299486A01384862FFE71E
:103DD0000299C8690130C861029948690130486197
:103DE000029948684B690A6A02EB40029B00013362
:103DF00092FBF3F2801A088302994B6848690A6AB9
:103E000002EB43038000421C93FBF2F000FB1230F4
:103E1000086202984069002812D4FFE70298C0782F
:103E200028B1FFE70299486A0130486204E002992C
:103E3000486A01384862FFE7029900208870FFE76E
:103E4000FFE70299088B4860FFE704B080BD0000DF
:103E500010B5A6B0DDF8A8C0DDF8A4C0DDF8A0C09C
:103E60008DF896008DF895108DF89420249345F2E6
:103E7000AC30C0F600000390016842688368D0F857
:103E80000CC0D0F810E044691C94CDF86CE0CDF87B
:103E900068C01993189217918169C269036AD0F8B2
:103EA00024C0D0F828E0C46A2294CDF884E0CDF88C
:103EB00080C01F931E921D91006B239045F2E0304D
:103EC000C0F600000490016842688368D0F80CC016
:103ED000D0F810E044690F94CDF838E0CDF834C044
:103EE0000C930B920A918169C269036AD0F824C0CD
:103EF000D0F828E0C46A1594CDF850E0CDF84CC055
:103F0000129311921091006B169000200990089066
:103F10009DF8960070B1FFE79DF8950050B1FFE75E
:103F20009DF896000C2805DCFFE79DF895000D280C
:103F300004DBFFE7FF208DF89700ABE12A9842F2FF
:103F40001171884204D3FFE7FF208DF89700A1E1AB
:103F50002A98092803D8FFE70F202A90FFE7249822
:103F6000B0F1FF3F04DCFFE724984042029002E0FA
:103F700024980290FFE70298099009980138099067
:103F80002A98FCF7FEF941EC100B9FEDC51B53EC92
:103F9000112B51EC100BFCF713F941EC100B51EC09
:103FA000100BFCF71AFA2A909DF896008DF817006E
:103FB000FFE79DF817009DF89510884200F3668191
:103FC000FFE79DF8940088B1FFE72498C043C00F35
:103FD0009DF8172017A951F82210C8709DF81700F6
:103FE0002499C943C90FFCF711FE33E024989DF8CA
:103FF000172017A951F82210496A401A089008980A
:10400000B0F1FF3F04DCFFE708984042019002E076
:1040100008980190FFE701980990099801380990E4
:104020009DF8170017AA52F82030586ADDF890C0A2
:10403000002160450846D8BF0120D8709DF81700C0
:1040400052F82020526A249B9A42D8BF0121FCF7E3
:10405000DDFDFFE79DF817100AA850F821008288BF
:104060000846FCF75FFD0998A0BBFFE79DF8171015
:1040700017A850F821204FF0FF3151619DF817101B
:1040800050F82120022191709DF8171050F821203E
:104090004FF47A7151609DF8171050F82100C078E4
:1040A00048B1FFE79DF8171017A850F82110486A8B
:1040B0000138486208E09DF8171017A850F8211041
:1040C000486A01304862FFE79DF817100846FDF77F
:1040D000C1F9D4E00998002800F0D080FFE79DEDF9
:1040E0002A0AB8EE401A9FED740A80EE010A9DF884
:1040F000171017A8009050F82100BDEEC00A80EDFF
:10410000040A9DED280AB8EE401A9FED6C0A80EE75
:10411000010A10EE100AFCF779F941EC100B00F0DF
:1041200086FF51EC100B9FED600B53EC102BFCF74E
:1041300047F841EC100B51EC100B9FED5D0B53EC6D
:10414000102BFCF7AFF841EC100B51EC100BFCF707
:1041500025F900999DF8172051F8221048602A98F7
:10416000404300EE100AB8EE400A9DED281AB8EE62
:10417000411A9FED532A21EE021AB2EE042A81EE73
:10418000021A80EE010ABCEEC00A8DED070A0798FC
:1041900018B9FFE701200790FFE70998299A5043D3
:1041A00028991144B0FBF1F00690069818B9FFE782
:1041B00001200690FFE70698079988420AD8FFE792
:1041C00006980999401A9DF8172017A951F822104E
:1041D000C8600DE00798289948432999B0FBF1F091
:1041E00040429DF8172017A951F82210C860FFE738
:1041F0009DF8171017A850F82100C06848B9FFE7CC
:104200009DF8171017A850F821104FF0FF30C86024
:10421000FFE709999DF8172017A850F82220D368C6
:10422000194491609DF8171050F8211048680969E9
:1042300088420EDCFFE79DF8171017A850F82120E0
:10424000116951609DF8171050F8211003208870F3
:1042500007E09DF8171017A850F82110012088706A
:10426000FFE79DF8171017A850F8211000204861AB
:104270009DF817100846FDF7EDF8FFE7FFE7FFE7A9
:104280009DF8170001308DF8170092E600208DF898
:104290009700FFE79DF9970026B010BD00BF00BF53
:1042A0007B14AE47E17AC43F000000000081F0407B
:1042B0000000000000002440DF6599477059C444A5
:1042C000CF0FC93F43F60800C4F2020050F8081CA3
:1042D00041F4803140F8081C4FF6FE7150F8083C5C
:1042E0004A1E8A4204D213F400311146F6D000BFB0
:1042F00050F8081C8903FBD5826B47F2000142F09D
:104300008052C4F2000182630A6842F440420A60AB
:1043100002680260026842F400420260026842F4ED
:10432000A052026046F20842C0F6401240F8042C47
:1043300050F8082C42F0807240F8082C50F8082CF5
:104340009201FBD50A6842F480320A604A68D203BF
:10435000FCD50A6842F400320A6000BF4A68920342
:10436000FCD5016821F003010160016841F0020100
:10437000016000BF01680907FCD5704780B5FFF7F1
:10438000A1FF80BD80B540F20800C2F200000068C5
:1043900044F6D351C1F26201A0FB01108009FDF780
:1043A0004DFB10B1FFE7FFE7FEE74FF0FF301121B3
:1043B000FDF756FA80BD000081B0009000990868B2
:1043C00040F08000086001B07047000082B00190AA
:1043D000009100980199C86202B0704784B00390C0
:1043E000ADF80A100192BDF80A00014600910328B9
:1043F00000F255810099DFE811F004005C00BA007A
:1044000018010399086A20F001000862039988697D
:1044100020F003008861019802880399086A10431C
:1044200008620399086A20F00200086201988288F5
:104430000399086A1043086203980021C4F201013D
:10444000884208D0FFE7039840F20041C4F201011E
:1044500088422DD1FFE70399086A20F00400086222
:10446000019842880399086A104308620399086A10
:1044700020F0080008620198C2880399086A104376
:1044800008620399486820F48070486001980289A6
:1044900003994868104348600399486820F4007005
:1044A0004860019842890399486810434860FFE7D3
:1044B000F6E00399086A20F0100008620399886901
:1044C00020F440708861019802880399086A40EAE4
:1044D000021008620399086A20F02000086201981F
:1044E00082880399086A40EA021008620398002152
:1044F000C4F20101884208D0FFE7039840F200416E
:10450000C4F20101884231D1FFE70399086A20F023
:1045100040000862019842880399086A40EA021044
:1045200008620399086A20F0800008620198C28836
:104530000399086A40EA021008620399486820F467
:1045400080604860019802890399486840EA8200C7
:1045500048600399486820F40060486001984289E7
:104560000399486840EA82004860FFE798E00399B1
:10457000086A20F4807008620399C86920F003007B
:10458000C861019802880399086A40EA022008621B
:104590000399086A20F400700862019882880399E0
:1045A000086A40EA0220086203980021C4F201016F
:1045B000884208D0FFE7039840F20041C4F20101AD
:1045C000884231D1FFE70399086A20F480600862CD
:1045D000019842880399086A40EA02200862039918
:1045E000086A20F4006008620198C2880399086A8A
:1045F00040EA022008620399486820F4805048602D
:10460000019802890399486840EA021048600399BA
:10461000486820F40050486001984289039948682E
:1046200040EA02104860FFE73AE00399086A20F484
:10463000805008620399C86920F44070C8610198ED
:1046400002880399086A40EA023008620399086AFE
:1046500020F400500862019882880399086A40EAB1
:104660000230086203980021C4F20101884208D098
:10467000FFE7039840F20041C4F2010188420DD1E6
:10468000FFE70399486820F4804048600198028958
:104690000399486840EA82104860FFE700E0FFE7BE
:1046A00004B0704783B00290ADF80610ADF8042056
:1046B000BDF8060001460091032836D80099DFE8CE
:1046C00001F0020E1B270299886920F070008861B2
:1046D000BDF80420029988691043886126E0029998
:1046E000886920F4E0408861BDF804200299886957
:1046F00040EA0220886119E00299C86920F0700040
:10470000C861BDF804200299C8691043C8610DE072
:104710000299C86920F4E040C861BDF804200299FC
:10472000C86940EA0220C86100E0FFE703B07047B3
:1047300084B00390ADF80A100192BDF80A0001465A
:104740000091032814D80099DFE801F002060A0E50
:104750000198039948630CE001980399886308E085
:1047600001980399C86304E001980399086400E084
:10477000FFE704B07047000083B00290ADF8061068
:10478000ADF80420BDF8060001460091032836D894
:104790000099DFE801F0020E1B270299886920F0DA
:1047A00008008861BDF80420029988691043886177
:1047B00026E00299886920F400608861BDF8042031
:1047C0000299886940EA0220886119E00299C86963
:1047D00020F00800C861BDF804200299C8691043A0
:1047E000C8610DE00299C86920F40060C861BDF895
:1047F00004200299C86940EA0220C86100E0FFE78E
:1048000003B0704782B00190002000900198406A88
:104810000090009802B0704780B590B00F900F984C
:104820000E90B0F1804F73D0FFE70E9840F2004138
:10483000C4F20001884274D0FFE70E9840F60001F0
:10484000C4F20001884275D0FFE70E9840F600419F
:10485000C4F20001884276D0FFE70E9841F20001D1
:10486000C4F20001884277D0FFE70E9841F2004180
:10487000C4F20001884278D0FFE70E9841F60001AB
:10488000C4F20001884200F09D80FFE70E9841F6D7
:104890000041C4F20001884200F09D80FFE70E98BD
:1048A00042F20001C4F20001884200F09D80FFE75F
:1048B0000E980021C4F20101884220D0FFE70E9833
:1048C00040F20041C4F20101884257D0FFE70E9840
:1048D00044F20001C4F20101884258D0FFE70E986B
:1048E00044F20041C4F20101884259D0FFE70E981A
:1048F00044F60001C4F2010188425AD07DE04FF431
:1049000010600D90FFF786F90D98FFF76FF975E0CD
:104910004FF400600C90FFF77DF90C98FFF766F9F3
:104920006CE040F601000B90FFF774F90B98FFF76D
:104930005DF963E040F602000A90FFF76BF90A9810
:10494000FFF754F95AE040F603000990FFF762F9C7
:104950000998FFF74BF951E040F604000890FFF783
:1049600059F90898FFF742F948E040F6050007902A
:10497000FFF750F90798FFF739F93FE040F60110CB
:104980000690FFF747F90698FFF730F936E04FF445
:1049900011600590FFF73EF90598FFF727F92DE024
:1049A00040F611100490FFF735F90498FFF71EF94F
:1049B00024E040F612100390FFF72CF90398FFF75C
:1049C00015F91BE040F606000290FFF723F9029864
:1049D000FFF70CF912E040F607000190FFF71AF913
:1049E0000198FFF703F909E040F608000090FFF78F
:1049F00011F90098FFF7FAF800E0FFE710B080BD6A
:104A000081B000900099086840F00100086001B092
:104A10007047000082B001900091009800880199D1
:104A2000886201980021C4F20101884225D0FFE785
:104A30000198B0F1804F20D0FFE7019840F200418B
:104A4000C4F20001884218D0FFE7019840F6000147
:104A5000C4F20001884210D0FFE7019840F60041FF
:104A6000C4F20001884208D0FFE7019840F20041FB
:104A7000C4F20101884212D1FFE70199086820F0D1
:104A80007000086000984288019908681043086027
:104A9000009882880199086810430860FFE7009831
:104AA00080680199C862019841F20001C4F20001D6
:104AB000884214D0FFE7019841F20041C4F200019E
:104AC00088420CD0FFE70199086820F44070086024
:104AD0000098C2880199086810430860FFE70198B0
:104AE0000021C4F20101884208D0FFE7019840F29A
:104AF0000041C4F20101884205D1FFE70098007B24
:104B000001990863FFE70199486940F00100486195
:104B100002B0704781B000900099886820F00700CB
:104B2000886001B07047000082B001900091009A47
:104B30000199C8689043C86002B0704782B0019084
:104B40000091009A0199C8681043C86002B070478C
:104B500082B0019000910098C0430199086102B0B1
:104B60007047000084B0029001910298C0680199DA
:104B700008400090029800690199084207D0FFE7B9
:104B8000009820B1FFE701208DF80F0003E000201E
:104B90008DF80F00FFE79DF80F0004B0704700008C
:104BA00082B001908DF803109DF80300012806D112
:104BB000FFE70199486C40F40040486405E0019922
:104BC000486C20F400404864FFE702B070470000E2
:104BD00080B58AB009904FF44060FEF7F3FF41F2D0
:104BE0000410FEF7EFFF0020C4F20200029007213C
:104BF00000914FF400720192FEF7F4FC00990298C4
:104C00004FF480620492FEF7EDFC019B02980221B2
:104C1000039101220592FEF791FD019B0298039AF0
:104C200000210691FEF7D8FD02980399049B059A8E
:104C3000FEF784FD0298039A049B0699FEF7CCFDCB
:104C400041F20000C4F20100089000F0EBF808986F
:104C5000099900F023F808980821079100F0D8F985
:104C60000599089800F0AEF90699089800F084F9C3
:104C70000699089800F0BEF80699089800F06CF9BB
:104C80000898042100F088F90799089800F0AAF91B
:104C9000089800F057F90AB080BD000080B588B0D0
:104CA00007900691002005900490039002900798C9
:104CB000019044F20041C4F20001884242D0FFE773
:104CC000019844F60001C4F2000188423FD0FFE79A
:104CD000019844F60041C4F2000188423CD0FFE74D
:104CE000019845F20001C4F20001884239D0FFE783
:104CF000019847F60001C4F20001884236D0FFE770
:104D0000019847F60041C4F20001884233D0FFE722
:104D1000019841F20001C4F20101884208D0FFE786
:104D2000019841F20041C4F20101884205D027E018
:104D30000320FEF795FE059023E00320FEF790FE8A
:104D400005901EE00220FEF78BFE059019E0022080
:104D5000FEF786FE059014E00220FEF781FE059026
:104D60000FE00220FEF77CFE05900AE00220FEF72D
:104D700077FE059005E00220FEF772FE059000E048
:104D8000FFE70798C0680004002819D5FFE70598D9
:104D90004000069900EB5100B0FBF1F00290029840
:104DA0004FF6F071084004900298C0F3420003905F
:104DB000BDF81000BDF80C1008430799886017E093
:104DC0000598069900EB5100B0FBF1F002900298B3
:104DD0004FF6F07108400490029800F00F00039025
:104DE000BDF81000BDF80C10084307998860FFE774
:104DF00008B080BD83B0029001910020009002981D
:104E0000D0F880000090009820F400600090019994
:104E100000980843009000980299C1F8800003B000
:104E20007047000080B58AB009900998089044F254
:104E30000041C4F20001884241D0FFE7089844F6DF
:104E40000001C4F20001884242D0FFE7089844F60E
:104E50000041C4F2000188424CD0FFE7089845F2B7
:104E60000001C4F2000188424DD0FFE7089847F6E0
:104E70000001C4F2000188424ED0FFE7089847F6CF
:104E80000041C4F2000188424FD0FFE7089841F288
:104E90000001C4F20101884208D0FFE7089841F2FE
:104EA0000041C4F2010188421BD047E040F60410E3
:104EB0000790FEF7AFFE0798FEF798FE3FE040F63A
:104EC00011000690FEF7A6FE0698FEF78FFE36E06C
:104ED00040F612000590FEF79DFE0598FEF786FE4F
:104EE0002DE040F605100490FEF794FE0498FEF7BE
:104EF0007DFE24E040F613000390FEF78BFE03983E
:104F0000FEF774FE1BE040F614000290FEF782FEEE
:104F10000298FEF76BFE12E040F61E000190FEF7CD
:104F200079FE0198FEF762FE09E040F61F0000904E
:104F3000FEF770FE0098FEF759FE00E0FFE70AB0AA
:104F400080BD000081B000900099C86840F4005016
:104F5000C86001B07047000082B0019000910199D3
:104F6000C86820F40040C860009A0199C8681043DE
:104F7000C86002B07047000082B0019000910199B2
:104F8000C86820F4C060C860009A0199C8681043DE
:104F9000C86002B07047000083B002900191002009
:104FA00000900298C0680090009820F004000090E3
:104FB000019900980843009000980299C86003B0D6
:104FC0007047000082B0019000910199086920F4B7
:104FD00040500861009A019908691043086102B0C5
:104FE0007047000083B00290019100200090029869
:104FF000C0680090009820F0080000900199009887
:105000000843009000980299C86003B07047000000
:1050100082B0019000910199C86820F48050C86066
:10502000009A0199C8681043C86002B0704700B583
:105030002DED048BB0EE409AF0EE609A83B051EC07
:10504000190BFBF763FA41EC180B18EE100A18EE77
:10505000901A8DED008B002818BF0120084320F026
:105060000040C0F17F6000F1E040C00F14D019EEA5
:10507000101A19EE900A8DED009B002918BF01212E
:10508000084320F00040C0F17F6000F1E040C00F15
:1050900004BF012000F018F8B0EE480A03B0F0EEAB
:1050A000680ABDEC048B00BD02E008C8121F08C1ED
:1050B000002AFAD170477047002001E001C1121F99
:1050C000002AFBD1704700000149086070470000CA
:1050D0000000002000000000E0090020800A0020FD
:1050E000A80A0020D00A0020F80A0020200B002087
:1050F000480B0020700B0020980B0020080A0020AD
:10510000300A0020580A002000000000000800209B
:10511000A0080020C8080020F0080020180900207E
:10512000400900206809002090090020B8090020EB
:105130002808002050080020780800200000000007
:10514000E0090020800A0020A80A0020D00A0020E0
:10515000F80A0020200B0020480B0020700B0020D4
:10516000980B0020080A0020300A0020580A00206E
:10517000000000004000000080000000100000005F
:10518000200000000010000000200000004000008F
:105190000080000000800000000400000008000003
:1051A000001000000000000000000240000002406B
:1051B00000080240000802400004024000040240CF
:1051C00000040240000402400000024000080240C7
:1051D000000802400008024000000000E009002032
:1051E000800A0020A80A0020D00A0020F80A002027
:1051F000200B0020480B0020700B0020980B002093
:10520000080A0020300A0020580A00200000000090
:1052100000080020A0080020C8080020F008002096
:10522000180900204009002068090020900900208A
:10523000B809002028080020500800207808002025
:105240000000000000080020A0080020C80800207E
:10525000F0080020180900204009002068090020FB
:1052600090090020B80900202808002050080020DC
:1052700078080020000000000004004000100040FA
:105280000014004000000040004001400044014084
:105290000048014000180040001C00400020004071
:1052A0000004014000040140000000000100000073
:1052B00001000000010000000100000001000000EA
:1052C00001000000010000000100000001000000DA
:1052D00001000000080000001000000000000000B5
:1052E00000080020A0080020C8080020F0080020C6
:1052F00018090020400900206809002090090020BA
:10530000B809002028080020500800207808002054
:1053100000000000000400400010004000140040A5
:1053200000000040004001400044014000480140AE
:1053300000180040001C0040002000400004014014
:105340000004014000000000010000000100000016
:105350000100000001000000010000000100000049
:105360000100000001000000010000000100000039
:10537000080000001000000000000000E00900200C
:10538000800A0020A80A0020D00A0020F80A002085
:10539000200B0020480B0020700B0020980B0020F1
:1053A000080A0020300A0020580A002000000000EF
:1053B00000080020A0080020C8080020F0080020F5
:1053C00018090020400900206809002090090020E9
:1053D000B809002028080020500800207808002084
:1053E00000000000E0090020800A0020A80A002038
:1053F000D00A0020F80A0020200B0020480B0020D3
:10540000700B0020980B0020080A0020300A0020B2
:10541000580A002000000000000C0040000001407D
:105420000008004000000100020003005054000882
:105430000000002018000000A85000086854000870
:1054400018000020B00F0000B85000080000000055
:1054500000000000D3FF000000C2EB0B8813000027
:08546000E803000088130000BE
:040000050800018965
:00000001FF
